{
  "_format": "hh-sol-artifact-1",
  "contractName": "PseudoCappedAuction",
  "sourceName": "contracts/UpgradeableAuctions/PseudoCappedAuction.sol",
  "abi": [
    {
      "anonymous": false,
      "inputs": [
        {
          "indexed": false,
          "internalType": "uint256",
          "name": "end",
          "type": "uint256"
        },
        {
          "indexed": false,
          "internalType": "uint256",
          "name": "finalPrice",
          "type": "uint256"
        }
      ],
      "name": "AuctionFinished",
      "type": "event"
    },
    {
      "anonymous": false,
      "inputs": [
        {
          "indexed": false,
          "internalType": "uint256",
          "name": "pauseDuration",
          "type": "uint256"
        }
      ],
      "name": "AuctionPaused",
      "type": "event"
    },
    {
      "anonymous": false,
      "inputs": [
        {
          "indexed": false,
          "internalType": "uint256",
          "name": "start",
          "type": "uint256"
        },
        {
          "indexed": false,
          "internalType": "uint256",
          "name": "end",
          "type": "uint256"
        }
      ],
      "name": "AuctionStarted",
      "type": "event"
    },
    {
      "anonymous": false,
      "inputs": [
        {
          "indexed": true,
          "internalType": "address",
          "name": "sender",
          "type": "address"
        },
        {
          "indexed": false,
          "internalType": "uint256",
          "name": "amount",
          "type": "uint256"
        }
      ],
      "name": "BidSubmission",
      "type": "event"
    },
    {
      "anonymous": false,
      "inputs": [
        {
          "indexed": false,
          "internalType": "uint8",
          "name": "version",
          "type": "uint8"
        }
      ],
      "name": "Initialized",
      "type": "event"
    },
    {
      "anonymous": false,
      "inputs": [
        {
          "indexed": true,
          "internalType": "bytes32",
          "name": "role",
          "type": "bytes32"
        },
        {
          "indexed": true,
          "internalType": "bytes32",
          "name": "previousAdminRole",
          "type": "bytes32"
        },
        {
          "indexed": true,
          "internalType": "bytes32",
          "name": "newAdminRole",
          "type": "bytes32"
        }
      ],
      "name": "RoleAdminChanged",
      "type": "event"
    },
    {
      "anonymous": false,
      "inputs": [
        {
          "indexed": true,
          "internalType": "bytes32",
          "name": "role",
          "type": "bytes32"
        },
        {
          "indexed": true,
          "internalType": "address",
          "name": "account",
          "type": "address"
        },
        {
          "indexed": true,
          "internalType": "address",
          "name": "sender",
          "type": "address"
        }
      ],
      "name": "RoleGranted",
      "type": "event"
    },
    {
      "anonymous": false,
      "inputs": [
        {
          "indexed": true,
          "internalType": "bytes32",
          "name": "role",
          "type": "bytes32"
        },
        {
          "indexed": true,
          "internalType": "address",
          "name": "account",
          "type": "address"
        },
        {
          "indexed": true,
          "internalType": "address",
          "name": "sender",
          "type": "address"
        }
      ],
      "name": "RoleRevoked",
      "type": "event"
    },
    {
      "anonymous": false,
      "inputs": [
        {
          "indexed": true,
          "internalType": "address",
          "name": "buyer",
          "type": "address"
        },
        {
          "indexed": false,
          "internalType": "uint256",
          "name": "usedBidCoinAmount",
          "type": "uint256"
        },
        {
          "indexed": false,
          "internalType": "uint256",
          "name": "boughtTokenAmount",
          "type": "uint256"
        }
      ],
      "name": "TokenBought",
      "type": "event"
    },
    {
      "anonymous": false,
      "inputs": [
        {
          "indexed": false,
          "internalType": "string",
          "name": "variable",
          "type": "string"
        },
        {
          "indexed": false,
          "internalType": "uint256",
          "name": "value",
          "type": "uint256"
        }
      ],
      "name": "VariableChange",
      "type": "event"
    },
    {
      "inputs": [],
      "name": "DEFAULT_ADMIN_ROLE",
      "outputs": [
        {
          "internalType": "bytes32",
          "name": "",
          "type": "bytes32"
        }
      ],
      "stateMutability": "view",
      "type": "function"
    },
    {
      "inputs": [],
      "name": "PROPOSER_ADMIN_ROLE",
      "outputs": [
        {
          "internalType": "bytes32",
          "name": "",
          "type": "bytes32"
        }
      ],
      "stateMutability": "view",
      "type": "function"
    },
    {
      "inputs": [],
      "name": "PROPOSER_ROLE",
      "outputs": [
        {
          "internalType": "bytes32",
          "name": "",
          "type": "bytes32"
        }
      ],
      "stateMutability": "view",
      "type": "function"
    },
    {
      "inputs": [
        {
          "internalType": "uint256",
          "name": "bidCoinBits",
          "type": "uint256"
        }
      ],
      "name": "bid",
      "outputs": [],
      "stateMutability": "nonpayable",
      "type": "function"
    },
    {
      "inputs": [],
      "name": "bidCoin",
      "outputs": [
        {
          "internalType": "contract WrapperToken",
          "name": "",
          "type": "address"
        }
      ],
      "stateMutability": "view",
      "type": "function"
    },
    {
      "inputs": [
        {
          "internalType": "address",
          "name": "",
          "type": "address"
        }
      ],
      "name": "biddingBook",
      "outputs": [
        {
          "internalType": "uint256",
          "name": "",
          "type": "uint256"
        }
      ],
      "stateMutability": "view",
      "type": "function"
    },
    {
      "inputs": [],
      "name": "currentRate",
      "outputs": [
        {
          "internalType": "uint256",
          "name": "",
          "type": "uint256"
        }
      ],
      "stateMutability": "view",
      "type": "function"
    },
    {
      "inputs": [],
      "name": "forcedManualFinish",
      "outputs": [],
      "stateMutability": "nonpayable",
      "type": "function"
    },
    {
      "inputs": [],
      "name": "fundLimitPerUser",
      "outputs": [
        {
          "internalType": "uint256",
          "name": "",
          "type": "uint256"
        }
      ],
      "stateMutability": "view",
      "type": "function"
    },
    {
      "inputs": [],
      "name": "getCurrentRate",
      "outputs": [
        {
          "internalType": "uint256",
          "name": "current",
          "type": "uint256"
        }
      ],
      "stateMutability": "view",
      "type": "function"
    },
    {
      "inputs": [
        {
          "internalType": "bytes32",
          "name": "role",
          "type": "bytes32"
        }
      ],
      "name": "getRoleAdmin",
      "outputs": [
        {
          "internalType": "bytes32",
          "name": "",
          "type": "bytes32"
        }
      ],
      "stateMutability": "view",
      "type": "function"
    },
    {
      "inputs": [],
      "name": "getStatus",
      "outputs": [
        {
          "internalType": "enum Auction.AuctionStatus",
          "name": "",
          "type": "uint8"
        }
      ],
      "stateMutability": "view",
      "type": "function"
    },
    {
      "inputs": [
        {
          "internalType": "bytes32",
          "name": "role",
          "type": "bytes32"
        },
        {
          "internalType": "address",
          "name": "account",
          "type": "address"
        }
      ],
      "name": "grantRole",
      "outputs": [],
      "stateMutability": "nonpayable",
      "type": "function"
    },
    {
      "inputs": [
        {
          "internalType": "bytes32",
          "name": "role",
          "type": "bytes32"
        },
        {
          "internalType": "address",
          "name": "account",
          "type": "address"
        }
      ],
      "name": "hasRole",
      "outputs": [
        {
          "internalType": "bool",
          "name": "",
          "type": "bool"
        }
      ],
      "stateMutability": "view",
      "type": "function"
    },
    {
      "inputs": [
        {
          "components": [
            {
              "internalType": "address",
              "name": "token",
              "type": "address"
            },
            {
              "internalType": "address",
              "name": "bidCoin",
              "type": "address"
            },
            {
              "internalType": "uint256",
              "name": "numberOfTokensToBeDistributed",
              "type": "uint256"
            },
            {
              "internalType": "uint256",
              "name": "rate",
              "type": "uint256"
            },
            {
              "internalType": "uint256",
              "name": "finalRate",
              "type": "uint256"
            },
            {
              "internalType": "uint256",
              "name": "limit",
              "type": "uint256"
            }
          ],
          "internalType": "struct Auction.auctionParameters",
          "name": "params",
          "type": "tuple"
        }
      ],
      "name": "initialize",
      "outputs": [],
      "stateMutability": "nonpayable",
      "type": "function"
    },
    {
      "inputs": [],
      "name": "latestEndTime",
      "outputs": [
        {
          "internalType": "uint256",
          "name": "",
          "type": "uint256"
        }
      ],
      "stateMutability": "view",
      "type": "function"
    },
    {
      "inputs": [],
      "name": "manualFinish",
      "outputs": [],
      "stateMutability": "nonpayable",
      "type": "function"
    },
    {
      "inputs": [
        {
          "internalType": "bytes[]",
          "name": "data",
          "type": "bytes[]"
        }
      ],
      "name": "multicall",
      "outputs": [
        {
          "internalType": "bytes[]",
          "name": "results",
          "type": "bytes[]"
        }
      ],
      "stateMutability": "nonpayable",
      "type": "function"
    },
    {
      "inputs": [],
      "name": "numberOfTokensToBeDistributed",
      "outputs": [
        {
          "internalType": "uint256",
          "name": "",
          "type": "uint256"
        }
      ],
      "stateMutability": "view",
      "type": "function"
    },
    {
      "inputs": [
        {
          "internalType": "uint256",
          "name": "pauseTimeInHours",
          "type": "uint256"
        }
      ],
      "name": "pauseAuction",
      "outputs": [],
      "stateMutability": "nonpayable",
      "type": "function"
    },
    {
      "inputs": [],
      "name": "projectToken",
      "outputs": [
        {
          "internalType": "contract ERC20MintableBurnableUpgradeable",
          "name": "",
          "type": "address"
        }
      ],
      "stateMutability": "view",
      "type": "function"
    },
    {
      "inputs": [],
      "name": "projectWallet",
      "outputs": [
        {
          "internalType": "address",
          "name": "",
          "type": "address"
        }
      ],
      "stateMutability": "view",
      "type": "function"
    },
    {
      "inputs": [
        {
          "internalType": "bytes32",
          "name": "role",
          "type": "bytes32"
        },
        {
          "internalType": "address",
          "name": "account",
          "type": "address"
        }
      ],
      "name": "renounceRole",
      "outputs": [],
      "stateMutability": "nonpayable",
      "type": "function"
    },
    {
      "inputs": [
        {
          "internalType": "bytes32",
          "name": "role",
          "type": "bytes32"
        },
        {
          "internalType": "address",
          "name": "account",
          "type": "address"
        }
      ],
      "name": "revokeRole",
      "outputs": [],
      "stateMutability": "nonpayable",
      "type": "function"
    },
    {
      "inputs": [
        {
          "internalType": "address",
          "name": "wallet",
          "type": "address"
        }
      ],
      "name": "setTeamWallet",
      "outputs": [],
      "stateMutability": "nonpayable",
      "type": "function"
    },
    {
      "inputs": [],
      "name": "soldProjectTokens",
      "outputs": [
        {
          "internalType": "uint256",
          "name": "",
          "type": "uint256"
        }
      ],
      "stateMutability": "view",
      "type": "function"
    },
    {
      "inputs": [
        {
          "internalType": "uint256",
          "name": "maximumAuctionTimeInHours",
          "type": "uint256"
        }
      ],
      "name": "startAuction",
      "outputs": [],
      "stateMutability": "nonpayable",
      "type": "function"
    },
    {
      "inputs": [],
      "name": "startTime",
      "outputs": [
        {
          "internalType": "uint256",
          "name": "",
          "type": "uint256"
        }
      ],
      "stateMutability": "view",
      "type": "function"
    },
    {
      "inputs": [],
      "name": "status",
      "outputs": [
        {
          "internalType": "enum Auction.AuctionStatus",
          "name": "",
          "type": "uint8"
        }
      ],
      "stateMutability": "view",
      "type": "function"
    },
    {
      "inputs": [
        {
          "internalType": "bytes4",
          "name": "interfaceId",
          "type": "bytes4"
        }
      ],
      "name": "supportsInterface",
      "outputs": [
        {
          "internalType": "bool",
          "name": "",
          "type": "bool"
        }
      ],
      "stateMutability": "view",
      "type": "function"
    },
    {
      "inputs": [],
      "name": "totalDepositedSucoins",
      "outputs": [
        {
          "internalType": "uint256",
          "name": "",
          "type": "uint256"
        }
      ],
      "stateMutability": "view",
      "type": "function"
    },
    {
      "inputs": [],
      "name": "withDraw",
      "outputs": [],
      "stateMutability": "nonpayable",
      "type": "function"
    }
  ],
  "bytecode": "0x60806040523480156200001157600080fd5b50600054610100900460ff1615808015620000335750600054600160ff909116105b8062000063575062000050306200013d60201b6200111b1760201c565b15801562000063575060005460ff166001145b620000cb5760405162461bcd60e51b815260206004820152602e60248201527f496e697469616c697a61626c653a20636f6e747261637420697320616c72656160448201526d191e481a5b9a5d1a585b1a5e995960921b606482015260840160405180910390fd5b6000805460ff191660011790558015620000ef576000805461ff0019166101001790555b801562000136576000805461ff0019169055604051600181527f7f26b83ff96e1f2b6a682f133852f6798a09c465da95921460cefb38474024989060200160405180910390a15b506200014c565b6001600160a01b03163b151590565b612418806200015c6000396000f3fe608060405234801561001057600080fd5b50600436106101f05760003560e01c806362dd23f01161010f578063a51993db116100a2578063d547741f11610071578063d547741f14610417578063f7fb07b01461042a578063f9f8bdb714610432578063faa735001461043b57600080fd5b8063a51993db146103c3578063ac9650d8146103d6578063b296558d146103f6578063beb08ab9146103ff57600080fd5b80638b3e56e1116100de5780638b3e56e11461038a5780638f61f4f51461039357806391d14854146103a8578063a217fddf146103bb57600080fd5b806362dd23f01461034f57806363c5f7c11461036f57806375caa9ef1461037857806378e979251461038157600080fd5b8063228e248e11610187578063454a2ab311610156578063454a2ab3146102f65780634b60ce77146103095780634e69d56014610334578063610b4f361461033c57600080fd5b8063228e248e146102a5578063248a9ca3146102ad5780632f2ff15d146102d057806336568abe146102e357600080fd5b80631525ff7d116101c35780631525ff7d146102425780631a87a934146102555780631d6833aa14610268578063200d2ed21461028b57600080fd5b806301ffc9a7146101f5578063065de74c1461021d5780630dda507e146102325780630fdb1c101461023a575b600080fd5b610208610203366004611dfe565b610444565b60405190151581526020015b60405180910390f35b61023061022b366004611e28565b61047b565b005b61023061050f565b6102306105ec565b610230610250366004611e58565b61084b565b610230610263366004611e73565b61088c565b61027d6000805160206123c383398151915281565b604051908152602001610214565b609b546102989060ff1681565b6040516102149190611ea1565b6102306109a0565b61027d6102bb366004611e28565b60009081526065602052604090206001015490565b6102306102de366004611ec9565b610a1c565b6102306102f1366004611ec9565b610a46565b610230610304366004611e28565b610ac0565b609d5461031c906001600160a01b031681565b6040516001600160a01b039091168152602001610214565b610298610d35565b61023061034a366004611e28565b610da0565b61027d61035d366004611e58565b60a16020526000908152604090205481565b61027d609c5481565b61027d60995481565b61027d60985481565b61027d609f5481565b61027d6000805160206123a383398151915281565b6102086103b6366004611ec9565b610f3d565b61027d600081565b60975461031c906001600160a01b031681565b6103e96103e4366004611ef5565b610f68565b6040516102149190611fba565b61027d609e5481565b609b5461031c9061010090046001600160a01b031681565b610230610425366004611ec9565b61105d565b61027d611082565b61027d60a05481565b61027d60a25481565b60006001600160e01b03198216637965db0b60e01b148061047557506301ffc9a760e01b6001600160e01b03198316145b92915050565b6000805160206123a38339815191526104938161112a565b61049c82611134565b609b805460ff19166001908117909155426098556104bb908390612032565b6104c59042612049565b60998190556098546040517ff8910119ddbef5440c54532457dfe8250a10ed39e583292818f44724b9e1344c92610503928252602082015260400190565b60405180910390a15050565b6002609b5460ff16600381111561052857610528611e8b565b1480156105375750609a544210155b1561054a57609b805460ff191660011790555b6001609b5460ff16600381111561056357610563611e8b565b14801561057257506099544210155b1561057f5761057f6111fb565b6003609b5460ff16600381111561059857610598611e8b565b146105ea5760405162461bcd60e51b815260206004820152601c60248201527f41756374696f6e20686173206e6f742066696e6973686564207965740000000060448201526064015b60405180910390fd5b565b6002609b5460ff16600381111561060557610605611e8b565b1480156106145750609a544210155b1561062757609b805460ff191660011790555b6001609b5460ff16600381111561064057610640611e8b565b14801561064f57506099544210155b1561065c5761065c6111fb565b6003609b5460ff16600381111561067557610675611e8b565b146106c25760405162461bcd60e51b815260206004820152601c60248201527f41756374696f6e20686173206e6f742066696e6973686564207965740000000060448201526064016105e1565b33600090815260a160205260409020548061072d5760405162461bcd60e51b815260206004820152602560248201527f596f7520646f6e2774206861766520616e7920746f6b656e7320746f20776974604482015264686472617760d81b60648201526084016105e1565b33600081815260a16020908152604080832092909255609d5460a054835163313ce56760e01b815293516001600160a01b039092169463a9059cbb9490939192869263313ce56792600480820193918290030181865afa158015610795573d6000803e3d6000fd5b505050506040513d601f19601f820116820180604052508101906107b9919061205c565b6107c490600a612163565b6107ce9086612032565b6107d89190612172565b6040516001600160e01b031960e085901b1681526001600160a01b03909216600483015260248201526044016020604051808303816000875af1158015610823573d6000803e3d6000fd5b505050506040513d601f19601f820116820180604052508101906108479190612194565b5050565b6000805160206123c38339815191526108638161112a565b50609b80546001600160a01b0390921661010002610100600160a81b0319909216919091179055565b600054610100900460ff16158080156108ac5750600054600160ff909116105b806108c65750303b1580156108c6575060005460ff166001145b6109295760405162461bcd60e51b815260206004820152602e60248201527f496e697469616c697a61626c653a20636f6e747261637420697320616c72656160448201526d191e481a5b9a5d1a585b1a5e995960921b60648201526084016105e1565b6000805460ff19166001179055801561094c576000805461ff0019166101001790555b6109558261131b565b61095e82611354565b8015610847576000805461ff0019169055604051600181527f7f26b83ff96e1f2b6a682f133852f6798a09c465da95921460cefb384740249890602001610503565b60006109ab8161112a565b6003609b5460ff1660038111156109c4576109c4611e8b565b03610a115760405162461bcd60e51b815260206004820152601a60248201527f546869732041756374696f6e20616c726561647920656e64656400000000000060448201526064016105e1565b610a196111fb565b50565b600082815260656020526040902060010154610a378161112a565b610a418383611384565b505050565b6001600160a01b0381163314610ab65760405162461bcd60e51b815260206004820152602f60248201527f416363657373436f6e74726f6c3a2063616e206f6e6c792072656e6f756e636560448201526e103937b632b9903337b91039b2b63360891b60648201526084016105e1565b610847828261140a565b6002609b5460ff166003811115610ad957610ad9611e8b565b148015610ae85750609a544210155b15610afb57609b805460ff191660011790555b6001609b5460ff166003811115610b1457610b14611e8b565b148015610b2357506099544210155b15610b3057610a196111fb565b6001609b5460ff166003811115610b4957610b49611e8b565b14610b8f5760405162461bcd60e51b815260206004820152601660248201527541756374696f6e206973206e6f742072756e6e696e6760501b60448201526064016105e1565b609b5461010090046001600160a01b0316610bec5760405162461bcd60e51b815260206004820152601960248201527f50726f6a6563742077616c6c6574206973206e6f74207365740000000000000060448201526064016105e1565b609b5461010090046001600160a01b03163303610c4b5760405162461bcd60e51b815260206004820152601960248201527f50726f6a6563742077616c6c65742063616e6e6f74206269640000000000000060448201526064016105e1565b610c636000805160206123a383398151915233610f3d565b15610ca75760405162461bcd60e51b8152602060048201526014602482015273141c9bdc1bdcd95c9cc818d85b9b9bdd08189a5960621b60448201526064016105e1565b60008111610cf75760405162461bcd60e51b815260206004820152601a60248201527f596f75206e65656420746f2062696420736f6d6520636f696e7300000000000060448201526064016105e1565b60405181815233907f9c89e828e6cee6374b68147c9e753e41746aad98ba255a527a4fc0ac1868bff99060200160405180910390a2610a1981611471565b609b5460009060ff166002816003811115610d5257610d52611e8b565b148015610d615750609a544210155b15610d6a575060015b6001609b5460ff166003811115610d8357610d83611e8b565b148015610d9257506099544210155b15610d9b575060035b919050565b6002609b5460ff166003811115610db957610db9611e8b565b148015610dc85750609a544210155b15610ddb57609b805460ff191660011790555b6001609b5460ff166003811115610df457610df4611e8b565b148015610e0357506099544210155b15610e1057610a196111fb565b6000610e1b8161112a565b6001609b5460ff166003811115610e3457610e34611e8b565b14610e7a5760405162461bcd60e51b815260206004820152601660248201527541756374696f6e206973206e6f742072756e6e696e6760501b60448201526064016105e1565b60008211610eca5760405162461bcd60e51b815260206004820152601960248201527f50617573652054696d65206d757374206265206c6f6e6765720000000000000060448201526064016105e1565b610ed5826001612032565b610edf9042612049565b609a8190556099544291610ef39190612049565b610efd91906121b6565b609955609b805460ff191660021790556040518281527fbfbe0eeb9851e98d21f973d30f11b8dacd485bc42ea47fe58b3335603741543f90602001610503565b60009182526065602090815260408084206001600160a01b0393909316845291905290205460ff1690565b60608167ffffffffffffffff811115610f8357610f836121c9565b604051908082528060200260200182016040528015610fb657816020015b6060815260200190600190039081610fa15790505b50905060005b828110156110565761102630858584818110610fda57610fda6121df565b9050602002810190610fec91906121f5565b8080601f01602080910402602001604051908101604052809392919081815260200183838082843760009201919091525061157292505050565b828281518110611038576110386121df565b6020026020010181905250808061104e90612243565b915050610fbc565b5092915050565b6000828152606560205260409020600101546110788161112a565b610a41838361140a565b609f54609d546040805163313ce56760e01b81529051600093926001600160a01b03169163313ce5679160048083019260209291908290030181865afa1580156110d0573d6000803e3d6000fd5b505050506040513d601f19601f820116820180604052508101906110f4919061205c565b6110ff90600a612163565b609c5461110c9190612032565b6111169190612172565b905090565b6001600160a01b03163b151590565b610a19813361159e565b6000609b5460ff16600381111561114d5761114d611e8b565b146111ab5760405162461bcd60e51b815260206004820152602860248201527f41756374696f6e20616c72656164792073746172746564206f7220616c726561604482015267191e48195b99195960c21b60648201526084016105e1565b60008111610a195760405162461bcd60e51b815260206004820152601b60248201527f41756374696f6e2054696d65206d757374206265206c6f6e676572000000000060448201526064016105e1565b61120d609b805460ff19166003179055565b609e546000036112dc57609d546040516370a0823160e01b81523060048201526001600160a01b03909116906342966c689082906370a0823190602401602060405180830381865afa158015611267573d6000803e3d6000fd5b505050506040513d601f19601f8201168201806040525081019061128b919061225c565b6040518263ffffffff1660e01b81526004016112a991815260200190565b600060405180830381600087803b1580156112c357600080fd5b505af11580156112d7573d6000803e3d6000fd5b505050505b60a0546040805142815260208101929092527fa26f614dfadbd6fab0e2c34abdab71ad292b06a4b47d63fda8dc3ccb85cb5209910160405180910390a1565b600054610100900460ff166113425760405162461bcd60e51b81526004016105e190612275565b61134b81611602565b610a198161163a565b600054610100900460ff1661137b5760405162461bcd60e51b81526004016105e190612275565b60a0013560a255565b61138e8282610f3d565b6108475760008281526065602090815260408083206001600160a01b03851684529091529020805460ff191660011790556113c63390565b6001600160a01b0316816001600160a01b0316837f2f8788117e7eff1d82e926ec794901d17c78024a50270940304540a733656f0d60405160405180910390a45050565b6114148282610f3d565b156108475760008281526065602090815260408083206001600160a01b0385168085529252808320805460ff1916905551339285917ff6391f5c32d9c69d2a47ea670b442974b53935d1edc7fd64eb21e047a839171b9190a45050565b609d60009054906101000a90046001600160a01b03166001600160a01b031663313ce5676040518163ffffffff1660e01b8152600401602060405180830381865afa1580156114c4573d6000803e3d6000fd5b505050506040513d601f19601f820116820180604052508101906114e8919061205c565b6114f390600a612163565b60a0546115009190612172565b8110156115695760405162461bcd60e51b815260206004820152603160248201527f426964636f696e20616d6f756e74206c6f776572207468616e2072657175697260448201527032b2103a3790313abc9030903a37b5b2b760791b60648201526084016105e1565b610a1981611711565b6060611597838360405180606001604052806027815260200161237c602791396118f5565b9392505050565b6115a88282610f3d565b610847576115c0816001600160a01b031660146119d2565b6115cb8360206119d2565b6040516020016115dc9291906122c0565b60408051601f198184030181529082905262461bcd60e51b82526105e191600401612335565b600054610100900460ff166116295760405162461bcd60e51b81526004016105e190612275565b611631611b6e565b610a1981611b95565b600054610100900460ff166116615760405162461bcd60e51b81526004016105e190612275565b60008160400135116116db5760405162461bcd60e51b815260206004820152603c60248201527f41756374696f6e2063616e6e6f742068617070656e206265636175736520746860448201527f65726520617265206e6f20746f6b656e7320746f2061756374696f6e0000000060648201526084016105e1565b6116e86020820182611e58565b609d80546001600160a01b0319166001600160a01b039290921691909117905560400135609f55565b609754604051636eb1769f60e11b81523360048201523060248201526000916001600160a01b03169063dd62ed3e90604401602060405180830381865afa158015611760573d6000803e3d6000fd5b505050506040513d601f19601f82011682018060405250810190611784919061225c565b9050818110156117e55760405162461bcd60e51b815260206004820152602660248201527f417070726f7665642062696420636f696e20616d6f756e74206973206e6f74206044820152650cadcdeeaced60d31b60648201526084016105e1565b609754609b546040516323b872dd60e01b81523360048201526001600160a01b0361010090920482166024820152604481018590529116906323b872dd906064016020604051808303816000875af1158015611845573d6000803e3d6000fd5b505050506040513d601f19601f820116820180604052508101906118699190612194565b5081609c600082825461187c9190612049565b9091555050609c546040517fb325f51492db6a3e2d42f7d2c7721750691a0cf7e6c3e4bd2b940b3528257380916118e491604080825260159082015274746f74616c4465706f73697465645375636f696e7360581b6060820152602081019190915260800190565b60405180910390a161084782611c42565b60606001600160a01b0384163b61195d5760405162461bcd60e51b815260206004820152602660248201527f416464726573733a2064656c65676174652063616c6c20746f206e6f6e2d636f6044820152651b9d1c9858dd60d21b60648201526084016105e1565b600080856001600160a01b0316856040516119789190612348565b600060405180830381855af49150503d80600081146119b3576040519150601f19603f3d011682016040523d82523d6000602084013e6119b8565b606091505b50915091506119c8828286611d0c565b9695505050505050565b606060006119e1836002612032565b6119ec906002612049565b67ffffffffffffffff811115611a0457611a046121c9565b6040519080825280601f01601f191660200182016040528015611a2e576020820181803683370190505b509050600360fc1b81600081518110611a4957611a496121df565b60200101906001600160f81b031916908160001a905350600f60fb1b81600181518110611a7857611a786121df565b60200101906001600160f81b031916908160001a9053506000611a9c846002612032565b611aa7906001612049565b90505b6001811115611b1f576f181899199a1a9b1b9c1cb0b131b232b360811b85600f1660108110611adb57611adb6121df565b1a60f81b828281518110611af157611af16121df565b60200101906001600160f81b031916908160001a90535060049490941c93611b1881612364565b9050611aaa565b5083156115975760405162461bcd60e51b815260206004820181905260248201527f537472696e67733a20686578206c656e67746820696e73756666696369656e7460448201526064016105e1565b600054610100900460ff166105ea5760405162461bcd60e51b81526004016105e190612275565b600054610100900460ff16611bbc5760405162461bcd60e51b81526004016105e190612275565b611bc7600033611384565b611bed6000805160206123a38339815191526000805160206123c3833981519152611d45565b611c056000805160206123c383398151915233611384565b609b805460ff19169055611c1f6040820160208301611e58565b609780546001600160a01b0319166001600160a01b039290921691909117905550565b8060a25460001480611c70575060a25433600090815260a16020526040902054611c6d908390612049565b11155b611ccf5760405162461bcd60e51b815260206004820152602a60248201527f596f752061726520747279696e6720746f20627579206d6f7265207468616e206044820152691e5bdd5c881b1a5b5a5d60b21b60648201526084016105e1565b33600090815260a1602052604081208054849290611cee908490612049565b9091555050609e54600003611d0457609f54609e555b610847611d90565b60608315611d1b575081611597565b825115611d2b5782518084602001fd5b8160405162461bcd60e51b81526004016105e19190612335565b600082815260656020526040808220600101805490849055905190918391839186917fbd79b86ffe0ab8e8776151514217cd7cacd52c909f66475c3af44e129f0b00ff9190a4505050565b6000611d9a611082565b905060a0548114610a195760408051818152600b818301526a63757272656e745261746560a81b60608201526020810183905290517fb325f51492db6a3e2d42f7d2c7721750691a0cf7e6c3e4bd2b940b35282573809181900360800190a160a055565b600060208284031215611e1057600080fd5b81356001600160e01b03198116811461159757600080fd5b600060208284031215611e3a57600080fd5b5035919050565b80356001600160a01b0381168114610d9b57600080fd5b600060208284031215611e6a57600080fd5b61159782611e41565b600060c08284031215611e8557600080fd5b50919050565b634e487b7160e01b600052602160045260246000fd5b6020810160048310611ec357634e487b7160e01b600052602160045260246000fd5b91905290565b60008060408385031215611edc57600080fd5b82359150611eec60208401611e41565b90509250929050565b60008060208385031215611f0857600080fd5b823567ffffffffffffffff80821115611f2057600080fd5b818501915085601f830112611f3457600080fd5b813581811115611f4357600080fd5b8660208260051b8501011115611f5857600080fd5b60209290920196919550909350505050565b60005b83811015611f85578181015183820152602001611f6d565b50506000910152565b60008151808452611fa6816020860160208601611f6a565b601f01601f19169290920160200192915050565b6000602080830181845280855180835260408601915060408160051b870101925083870160005b8281101561200f57603f19888603018452611ffd858351611f8e565b94509285019290850190600101611fe1565b5092979650505050505050565b634e487b7160e01b600052601160045260246000fd5b80820281158282048414176104755761047561201c565b808201808211156104755761047561201c565b60006020828403121561206e57600080fd5b815160ff8116811461159757600080fd5b600181815b808511156120ba5781600019048211156120a0576120a061201c565b808516156120ad57918102915b93841c9390800290612084565b509250929050565b6000826120d157506001610475565b816120de57506000610475565b81600181146120f457600281146120fe5761211a565b6001915050610475565b60ff84111561210f5761210f61201c565b50506001821b610475565b5060208310610133831016604e8410600b841016171561213d575081810a610475565b612147838361207f565b806000190482111561215b5761215b61201c565b029392505050565b600061159760ff8416836120c2565b60008261218f57634e487b7160e01b600052601260045260246000fd5b500490565b6000602082840312156121a657600080fd5b8151801515811461159757600080fd5b818103818111156104755761047561201c565b634e487b7160e01b600052604160045260246000fd5b634e487b7160e01b600052603260045260246000fd5b6000808335601e1984360301811261220c57600080fd5b83018035915067ffffffffffffffff82111561222757600080fd5b60200191503681900382131561223c57600080fd5b9250929050565b6000600182016122555761225561201c565b5060010190565b60006020828403121561226e57600080fd5b5051919050565b6020808252602b908201527f496e697469616c697a61626c653a20636f6e7472616374206973206e6f74206960408201526a6e697469616c697a696e6760a81b606082015260800190565b7f416363657373436f6e74726f6c3a206163636f756e74200000000000000000008152600083516122f8816017850160208801611f6a565b7001034b99036b4b9b9b4b733903937b6329607d1b6017918401918201528351612329816028840160208801611f6a565b01602801949350505050565b6020815260006115976020830184611f8e565b6000825161235a818460208701611f6a565b9190910192915050565b6000816123735761237361201c565b50600019019056fe416464726573733a206c6f772d6c6576656c2064656c65676174652063616c6c206661696c6564b09aa5aeb3702cfd50b6b62bc4532604938f21248a27a1d5ca736082b6819cc19989001599306562c281f170efd64bd922b630d9e66fafc71949876c6ceb48c6a2646970667358221220145ef63ddb0b60553656dc99673ea3c6ae55682c811bc168ce80ade41d38f32f64736f6c63430008110033",
  "linkReferences": {},
  "deployedLinkReferences": {}
}