{
  "_format": "hh-sol-artifact-1",
  "contractName": "Maestro",
  "sourceName": "contracts/Maestro.sol",
  "abi": [
    {
      "inputs": [
        {
          "internalType": "address",
          "name": "_sucoin",
          "type": "address"
        },
        {
          "internalType": "address",
          "name": "_projectManager",
          "type": "address"
        },
        {
          "internalType": "string[]",
          "name": "nameArray",
          "type": "string[]"
        },
        {
          "internalType": "address[]",
          "name": "implementationContracts",
          "type": "address[]"
        }
      ],
      "stateMutability": "nonpayable",
      "type": "constructor"
    },
    {
      "anonymous": false,
      "inputs": [
        {
          "indexed": true,
          "internalType": "address",
          "name": "creator",
          "type": "address"
        },
        {
          "indexed": false,
          "internalType": "address",
          "name": "auction",
          "type": "address"
        },
        {
          "indexed": false,
          "internalType": "string",
          "name": "auctionType",
          "type": "string"
        },
        {
          "indexed": false,
          "internalType": "bytes32",
          "name": "fileHash",
          "type": "bytes32"
        }
      ],
      "name": "CreateAuctionEvent",
      "type": "event"
    },
    {
      "anonymous": false,
      "inputs": [
        {
          "indexed": true,
          "internalType": "address",
          "name": "creator",
          "type": "address"
        },
        {
          "indexed": false,
          "internalType": "string",
          "name": "Name",
          "type": "string"
        },
        {
          "indexed": false,
          "internalType": "string",
          "name": "Symbol",
          "type": "string"
        },
        {
          "indexed": true,
          "internalType": "address",
          "name": "token",
          "type": "address"
        }
      ],
      "name": "TokenCreation",
      "type": "event"
    },
    {
      "inputs": [
        {
          "internalType": "bytes32",
          "name": "projectHash",
          "type": "bytes32"
        },
        {
          "internalType": "string",
          "name": "auctionType",
          "type": "string"
        },
        {
          "components": [
            {
              "internalType": "uint256",
              "name": "numberOfTokensToBeDistributed",
              "type": "uint256"
            },
            {
              "internalType": "uint256",
              "name": "rate",
              "type": "uint256"
            },
            {
              "internalType": "uint256",
              "name": "finalRate",
              "type": "uint256"
            },
            {
              "internalType": "uint256",
              "name": "limit",
              "type": "uint256"
            }
          ],
          "internalType": "struct Maestro.userAuctionParameters",
          "name": "userParams",
          "type": "tuple"
        }
      ],
      "name": "createAuction",
      "outputs": [],
      "stateMutability": "nonpayable",
      "type": "function"
    },
    {
      "inputs": [
        {
          "internalType": "bytes32",
          "name": "projectHash",
          "type": "bytes32"
        },
        {
          "internalType": "string",
          "name": "tokenName",
          "type": "string"
        },
        {
          "internalType": "string",
          "name": "tokenSymbol",
          "type": "string"
        },
        {
          "internalType": "uint256",
          "name": "initialSupply",
          "type": "uint256"
        }
      ],
      "name": "createToken",
      "outputs": [
        {
          "internalType": "address",
          "name": "",
          "type": "address"
        }
      ],
      "stateMutability": "nonpayable",
      "type": "function"
    },
    {
      "inputs": [
        {
          "internalType": "string",
          "name": "name",
          "type": "string"
        },
        {
          "internalType": "address",
          "name": "newImplementationAddress",
          "type": "address"
        }
      ],
      "name": "editImplementation",
      "outputs": [],
      "stateMutability": "nonpayable",
      "type": "function"
    },
    {
      "inputs": [
        {
          "internalType": "bytes32",
          "name": "projectHash",
          "type": "bytes32"
        }
      ],
      "name": "forceFinishAuction",
      "outputs": [],
      "stateMutability": "nonpayable",
      "type": "function"
    },
    {
      "inputs": [
        {
          "internalType": "bytes32[]",
          "name": "hashes",
          "type": "bytes32[]"
        }
      ],
      "name": "getAllAuctionsByHashList",
      "outputs": [
        {
          "components": [
            {
              "internalType": "address",
              "name": "auction",
              "type": "address"
            },
            {
              "internalType": "string",
              "name": "tokenName",
              "type": "string"
            },
            {
              "internalType": "string",
              "name": "tokenSymbol",
              "type": "string"
            },
            {
              "internalType": "string",
              "name": "auctionType",
              "type": "string"
            },
            {
              "internalType": "bytes32",
              "name": "projectHash",
              "type": "bytes32"
            }
          ],
          "internalType": "struct Maestro.ProjectSurface[]",
          "name": "",
          "type": "tuple[]"
        }
      ],
      "stateMutability": "view",
      "type": "function"
    },
    {
      "inputs": [
        {
          "internalType": "bytes32[]",
          "name": "hashes",
          "type": "bytes32[]"
        },
        {
          "internalType": "enum Auction.AuctionStatus",
          "name": "status",
          "type": "uint8"
        },
        {
          "internalType": "uint256",
          "name": "selectCount",
          "type": "uint256"
        },
        {
          "internalType": "bool",
          "name": "ignore",
          "type": "bool"
        }
      ],
      "name": "getProjectSurfaceByStatus",
      "outputs": [
        {
          "components": [
            {
              "internalType": "address",
              "name": "auction",
              "type": "address"
            },
            {
              "internalType": "string",
              "name": "tokenName",
              "type": "string"
            },
            {
              "internalType": "string",
              "name": "tokenSymbol",
              "type": "string"
            },
            {
              "internalType": "string",
              "name": "auctionType",
              "type": "string"
            },
            {
              "internalType": "bytes32",
              "name": "projectHash",
              "type": "bytes32"
            }
          ],
          "internalType": "struct Maestro.ProjectSurface[]",
          "name": "",
          "type": "tuple[]"
        }
      ],
      "stateMutability": "view",
      "type": "function"
    },
    {
      "inputs": [
        {
          "internalType": "bytes32",
          "name": "projectHash",
          "type": "bytes32"
        },
        {
          "internalType": "uint256",
          "name": "pauseTimeInHours",
          "type": "uint256"
        }
      ],
      "name": "pauseAuction",
      "outputs": [],
      "stateMutability": "nonpayable",
      "type": "function"
    },
    {
      "inputs": [
        {
          "internalType": "bytes32",
          "name": "",
          "type": "bytes32"
        }
      ],
      "name": "projectTokens",
      "outputs": [
        {
          "internalType": "address",
          "name": "proposer",
          "type": "address"
        },
        {
          "internalType": "address",
          "name": "token",
          "type": "address"
        },
        {
          "internalType": "address",
          "name": "auction",
          "type": "address"
        },
        {
          "internalType": "string",
          "name": "auctionType",
          "type": "string"
        }
      ],
      "stateMutability": "view",
      "type": "function"
    },
    {
      "inputs": [
        {
          "internalType": "address",
          "name": "newAddress",
          "type": "address"
        }
      ],
      "name": "setSucoin",
      "outputs": [],
      "stateMutability": "nonpayable",
      "type": "function"
    }
  ],
  "bytecode": "0x60806040523480156200001157600080fd5b506040516200441a3803806200441a83398101604081905262000034916200030b565b600480546001600160a01b0319166001600160a01b038616179055815181518114620000cc5760405162461bcd60e51b815260206004820152603660248201527f57726f6e6720696e70757420666f726d6174206e616d6520616e64206164647260448201527f65737320636f756e747320646f6e2774206d6174636800000000000000000000606482015260840160405180910390fd5b60005b818110156200016757828181518110620000ed57620000ed6200046e565b602002602001015160028583815181106200010c576200010c6200046e565b602002602001015160405162000123919062000484565b90815260405190819003602001902080546001600160a01b03929092166001600160a01b0319909216919091179055806200015e81620004a2565b915050620000cf565b506040516200017690620001cf565b604051809103906000f08015801562000193573d6000803e3d6000fd5b50600180546001600160a01b039283166001600160a01b031991821617909155600580549690921695169490941790935550620004ca92505050565b6117f88062002c2283390190565b80516001600160a01b0381168114620001f557600080fd5b919050565b634e487b7160e01b600052604160045260246000fd5b604051601f8201601f191681016001600160401b03811182821017156200023b576200023b620001fa565b604052919050565b60006001600160401b038211156200025f576200025f620001fa565b5060051b60200190565b60005b83811015620002865781810151838201526020016200026c565b50506000910152565b600082601f830112620002a157600080fd5b81516020620002ba620002b48362000243565b62000210565b82815260059290921b84018101918181019086841115620002da57600080fd5b8286015b848110156200030057620002f281620001dd565b8352918301918301620002de565b509695505050505050565b600080600080608085870312156200032257600080fd5b6200032d85620001dd565b935060206200033e818701620001dd565b60408701519094506001600160401b03808211156200035c57600080fd5b818801915088601f8301126200037157600080fd5b815162000382620002b48262000243565b81815260059190911b8301840190848101908b831115620003a257600080fd5b8585015b838110156200043757805185811115620003c05760008081fd5b8601603f81018e13620003d35760008081fd5b8781015186811115620003ea57620003ea620001fa565b620003fe601f8201601f19168a0162000210565b8181528f6040838501011115620004155760008081fd5b62000427828b83016040860162000269565b85525050918601918601620003a6565b5060608b015190975094505050808311156200045257600080fd5b505062000462878288016200028f565b91505092959194509250565b634e487b7160e01b600052603260045260246000fd5b600082516200049881846020870162000269565b9190910192915050565b600060018201620004c357634e487b7160e01b600052601160045260246000fd5b5060010190565b61274880620004da6000396000f3fe608060405234801561001057600080fd5b50600436106100935760003560e01c806342331c7c1161006657806342331c7c146101035780638460718414610116578063bd01598414610136578063d2fd762514610149578063fe98da551461016c57600080fd5b806308e2a263146100985780630f99f157146100ad57806325e7f149146100dd5780633b1efc53146100f0575b600080fd5b6100ab6100a6366004611eca565b61017f565b005b6100c06100bb366004611f2d565b6107da565b6040516001600160a01b0390911681526020015b60405180910390f35b6100ab6100eb366004611fa2565b610a97565b6100ab6100fe366004611fc4565b610e19565b6100ab610111366004611ff4565b611196565b61012961012436600461208e565b611549565b6040516100d49190612120565b6100ab6101443660046121e2565b611563565b61015c610157366004611fc4565b61186b565b6040516100d494939291906121fd565b61012961017a366004612256565b61192c565b60008381526020819052604090206002015483906001600160a01b0316156102015760405162461bcd60e51b815260206004820152602a60248201527f41756374696f6e20616c7265616479206465706c6f79656420666f72207468696044820152693990383937b532b1ba1760b11b60648201526084015b60405180910390fd5b60008481526020819052604090206001015484906001600160a01b03166102745760405162461bcd60e51b815260206004820152602160248201527f4e6f20746f6b656e2061737369676e656420746f20746869732070726f6a65636044820152601d60fa1b60648201526084016101f8565b60055460405163709248bf60e01b8152336004820181905260248201889052879290916001600160a01b039091169063709248bf90604401602060405180830381865afa1580156102c9573d6000803e3d6000fd5b505050506040513d601f19601f820116820180604052508101906102ed91906122ca565b5060006102fb600288611cb4565b9050600061030882611d2e565b6040805160c08101825260008c8152602081815290839020600101546001600160a01b039081168352600480548216838501528c3584860152918c01356060808501919091528c85013560808501528c013560a084015292516306a1ea4d60e21b8152939450909291841691631a87a934916103ce9185910181516001600160a01b0390811682526020808401519091169082015260408083015190820152606080830151908201526080808301519082015260a0918201519181019190915260c00190565b600060405180830381600087803b1580156103e857600080fd5b505af11580156103fc573d6000803e3d6000fd5b50505050816001600160a01b0316632f2ff15d836001600160a01b0316631d6833aa6040518163ffffffff1660e01b8152600401602060405180830381865afa15801561044d573d6000803e3d6000fd5b505050506040513d601f19601f8201168201806040525081019061047191906122e7565b6040516001600160e01b031960e084901b1681526004810191909152336024820152604401600060405180830381600087803b1580156104b057600080fd5b505af11580156104c4573d6000803e3d6000fd5b50505050816001600160a01b0316632f2ff15d836001600160a01b0316638f61f4f56040518163ffffffff1660e01b8152600401602060405180830381865afa158015610515573d6000803e3d6000fd5b505050506040513d601f19601f8201168201806040525081019061053991906122e7565b6040516001600160e01b031960e084901b1681526004810191909152336024820152604401600060405180830381600087803b15801561057857600080fd5b505af115801561058c573d6000803e3d6000fd5b5050604051631525ff7d60e01b81523360048201526001600160a01b0385169250631525ff7d9150602401600060405180830381600087803b1580156105d157600080fd5b505af11580156105e5573d6000803e3d6000fd5b50505060008b8152602081905260409020600101546001600160a01b03169050883515801590610661575060408051808201909152600f81526e2ab731b0b83832b220bab1ba34b7b760891b6020918201528a51908b01207f59a6958b4b24b5b2987c726fa767cf7a872f9de59379b5e0c76a4cdcaaf3e5de14155b156106cd576040516340c10f1960e01b81526001600160a01b0384811660048301528a3560248301528216906340c10f1990604401600060405180830381600087803b1580156106b057600080fd5b505af11580156106c4573d6000803e3d6000fd5b5050505061074f565b604051632f2ff15d60e01b81527f9f2df0fed2c77648de5860a4cc508cd0818c85b8b8a1ab4ceeef8d981c8956a660048201526001600160a01b038481166024830152821690632f2ff15d90604401600060405180830381600087803b15801561073657600080fd5b505af115801561074a573d6000803e3d6000fd5b505050505b60008b81526020819052604090206002810180546001600160a01b0319166001600160a01b0386161790556003016107878b82612385565b50336001600160a01b03167ffa85c3acdf06adbec7dac4f49a2e645ae6a12ee20eb9c9f63dde47deab76242a848c8e6040516107c593929190612445565b60405180910390a25050505050505050505050565b60055460405163709248bf60e01b815233600482018190526024820187905260009287926001600160a01b039091169063709248bf90604401602060405180830381865afa158015610830573d6000803e3d6000fd5b505050506040513d601f19601f8201168201806040525081019061085491906122ca565b506000878152602081905260409020600101546001600160a01b0316156108d15760405162461bcd60e51b815260206004820152602b60248201527f536f6d6520746f6b656e20616c72656164792061737369676e656420746f207460448201526a1a1a5cc81c1c9bda9958dd60aa1b60648201526084016101f8565b6001546000906108e9906001600160a01b0316611d2e565b604051635e9d09fb60e11b81529091506001600160a01b0382169063bd3a13f69061091e908a908a908a903390600401612479565b600060405180830381600087803b15801561093857600080fd5b505af115801561094c573d6000803e3d6000fd5b5050506000898152602081905260408082206001810180546001600160a01b0387166001600160a01b031991821681179092558254163390811790925582516306fdde0360e01b8152925190945090927fec96d5bc0d1a00c83549a02a7a9ae8e2db21c9f4b0de6b53991d0773f31f9e439285926306fdde03926004808401939192918290030181865afa1580156109e8573d6000803e3d6000fd5b505050506040513d6000823e601f3d908101601f19168201604052610a1091908101906124c0565b846001600160a01b03166395d89b416040518163ffffffff1660e01b8152600401600060405180830381865afa158015610a4e573d6000803e3d6000fd5b505050506040513d6000823e601f3d908101601f19168201604052610a7691908101906124c0565b604051610a84929190612537565b60405180910390a3979650505050505050565b600560009054906101000a90046001600160a01b03166001600160a01b03166375b238fc6040518163ffffffff1660e01b8152600401602060405180830381865afa158015610aea573d6000803e3d6000fd5b505050506040513d601f19601f82011682018060405250810190610b0e91906122e7565b600180600554604051632474521560e21b815260048101859052600060248201526001600160a01b03909116906391d1485490604401602060405180830381865afa158015610b61573d6000803e3d6000fd5b505050506040513d601f19601f82011682018060405250810190610b8591906122ca565b80610bfe5750600554604051632474521560e21b8152600481018590523360248201526001600160a01b03909116906391d1485490604401602060405180830381865afa158015610bda573d6000803e3d6000fd5b505050506040513d601f19601f82011682018060405250810190610bfe91906122ca565b610c1a5760405162461bcd60e51b81526004016101f89061255c565b60006003600036604051610c2f9291906125aa565b90815260405190819003602001902060018101549091508190600003610c5a57436001830155610ca9565b82826001015443610c6b91906125d0565b10610ca9576003600036604051610c839291906125aa565b9081526040519081900360200190206000610c9e8282611dcb565b600182016000905550505b60005b8154811015610d1557336001600160a01b0316828281548110610cd157610cd16125e3565b6000918252602090912001546001600160a01b031603610d035760405162461bcd60e51b81526004016101f8906125f9565b80610d0d8161264d565b915050610cac565b5080546001810182556000828152602090200180546001600160a01b031916331790558054849003610e10576003600036604051610d549291906125aa565b9081526040519081900360200190206000610d6f8282611dcb565b506000600191909101819055878152602081905260409020600201546001600160a01b031680610db15760405162461bcd60e51b81526004016101f890612666565b604051633085a79b60e11b81526004810188905281906001600160a01b0382169063610b4f3690602401600060405180830381600087803b158015610df557600080fd5b505af1158015610e09573d6000803e3d6000fd5b5050505050505b50505050505050565b600560009054906101000a90046001600160a01b03166001600160a01b03166375b238fc6040518163ffffffff1660e01b8152600401602060405180830381865afa158015610e6c573d6000803e3d6000fd5b505050506040513d601f19601f82011682018060405250810190610e9091906122e7565b600180600554604051632474521560e21b815260048101859052600060248201526001600160a01b03909116906391d1485490604401602060405180830381865afa158015610ee3573d6000803e3d6000fd5b505050506040513d601f19601f82011682018060405250810190610f0791906122ca565b80610f805750600554604051632474521560e21b8152600481018590523360248201526001600160a01b03909116906391d1485490604401602060405180830381865afa158015610f5c573d6000803e3d6000fd5b505050506040513d601f19601f82011682018060405250810190610f8091906122ca565b610f9c5760405162461bcd60e51b81526004016101f89061255c565b60006003600036604051610fb19291906125aa565b90815260405190819003602001902060018101549091508190600003610fdc5743600183015561102b565b82826001015443610fed91906125d0565b1061102b5760036000366040516110059291906125aa565b90815260405190819003602001902060006110208282611dcb565b600182016000905550505b60005b815481101561109757336001600160a01b0316828281548110611053576110536125e3565b6000918252602090912001546001600160a01b0316036110855760405162461bcd60e51b81526004016101f8906125f9565b8061108f8161264d565b91505061102e565b5080546001810182556000828152602090200180546001600160a01b03191633179055805484900361118e5760036000366040516110d69291906125aa565b90815260405190819003602001902060006110f18282611dcb565b506000600191909101819055868152602081905260409020600201546001600160a01b0316806111335760405162461bcd60e51b81526004016101f890612666565b6000819050806001600160a01b031663228e248e6040518163ffffffff1660e01b8152600401600060405180830381600087803b15801561117357600080fd5b505af1158015611187573d6000803e3d6000fd5b5050505050505b505050505050565b600560009054906101000a90046001600160a01b03166001600160a01b03166375b238fc6040518163ffffffff1660e01b8152600401602060405180830381865afa1580156111e9573d6000803e3d6000fd5b505050506040513d601f19601f8201168201806040525081019061120d91906122e7565b60026064600554604051632474521560e21b815260048101859052600060248201526001600160a01b03909116906391d1485490604401602060405180830381865afa158015611261573d6000803e3d6000fd5b505050506040513d601f19601f8201168201806040525081019061128591906122ca565b806112fe5750600554604051632474521560e21b8152600481018590523360248201526001600160a01b03909116906391d1485490604401602060405180830381865afa1580156112da573d6000803e3d6000fd5b505050506040513d601f19601f820116820180604052508101906112fe91906122ca565b61131a5760405162461bcd60e51b81526004016101f89061255c565b6000600360003660405161132f9291906125aa565b9081526040519081900360200190206001810154909150819060000361135a574360018301556113a9565b8282600101544361136b91906125d0565b106113a95760036000366040516113839291906125aa565b908152604051908190036020019020600061139e8282611dcb565b600182016000905550505b60005b815481101561141557336001600160a01b03168282815481106113d1576113d16125e3565b6000918252602090912001546001600160a01b0316036114035760405162461bcd60e51b81526004016101f8906125f9565b8061140d8161264d565b9150506113ac565b5080546001810182556000828152602090200180546001600160a01b031916331790558054849003610e105760036000366040516114549291906125aa565b908152604051908190036020019020600061146f8282611dcb565b60018201600090555050600060028860405161148b91906126ac565b908152604051908190036020019020546001600160a01b03169050806114ff5760405162461bcd60e51b815260206004820152602360248201527f5468697320636f6e74726163742074797065206973206e6f74207370656369666044820152621a595960ea1b60648201526084016101f8565b8660028960405161151091906126ac565b90815260405190819003602001902080546001600160a01b03929092166001600160a01b03199092169190911790555050505050505050565b606061155a8383600081600161192c565b90505b92915050565b600560009054906101000a90046001600160a01b03166001600160a01b03166375b238fc6040518163ffffffff1660e01b8152600401602060405180830381865afa1580156115b6573d6000803e3d6000fd5b505050506040513d601f19601f820116820180604052508101906115da91906122e7565b60026064600554604051632474521560e21b815260048101859052600060248201526001600160a01b03909116906391d1485490604401602060405180830381865afa15801561162e573d6000803e3d6000fd5b505050506040513d601f19601f8201168201806040525081019061165291906122ca565b806116cb5750600554604051632474521560e21b8152600481018590523360248201526001600160a01b03909116906391d1485490604401602060405180830381865afa1580156116a7573d6000803e3d6000fd5b505050506040513d601f19601f820116820180604052508101906116cb91906122ca565b6116e75760405162461bcd60e51b81526004016101f89061255c565b600060036000366040516116fc9291906125aa565b9081526040519081900360200190206001810154909150819060000361172757436001830155611776565b8282600101544361173891906125d0565b106117765760036000366040516117509291906125aa565b908152604051908190036020019020600061176b8282611dcb565b600182016000905550505b60005b81548110156117e257336001600160a01b031682828154811061179e5761179e6125e3565b6000918252602090912001546001600160a01b0316036117d05760405162461bcd60e51b81526004016101f8906125f9565b806117da8161264d565b915050611779565b5080546001810182556000828152602090200180546001600160a01b03191633179055805484900361118e5760036000366040516118219291906125aa565b908152604051908190036020019020600061183c8282611dcb565b50600060019190910155600480546001600160a01b0388166001600160a01b0319909116179055505050505050565b60006020819052908152604090208054600182015460028301546003840180546001600160a01b03948516959385169490921692916118a990612300565b80601f01602080910402602001604051908101604052809291908181526020018280546118d590612300565b80156119225780601f106118f757610100808354040283529160200191611922565b820191906000526020600020905b81548152906001019060200180831161190557829003601f168201915b5050505050905084565b60608483111561193a578492505b60008367ffffffffffffffff81111561195557611955611e05565b6040519080825280602002602001820160405280156119c457816020015b6119b16040518060a0016040528060006001600160a01b03168152602001606081526020016060815260200160608152602001600080191681525090565b8152602001906001900390816119735790505b50905060005b86811080156119d95750600085115b15611ca95760008060008a8a858181106119f5576119f56125e3565b6020908102929092013583525081019190915260400160002060028101549091506001600160a01b031680611a2b575050611c97565b8580611ab95750876003811115611a4457611a446126c8565b816001600160a01b0316634e69d5606040518163ffffffff1660e01b8152600401602060405180830381865afa158015611a82573d6000803e3d6000fd5b505050506040513d601f19601f82011682018060405250810190611aa691906126de565b6003811115611ab757611ab76126c8565b145b15611c945760018201546040805160a08101825260028501546001600160a01b03908116825282516306fdde0360e01b815292519316929091602083019184916306fdde039160048083019260009291908290030181865afa158015611b23573d6000803e3d6000fd5b505050506040513d6000823e601f3d908101601f19168201604052611b4b91908101906124c0565b8152602001826001600160a01b03166395d89b416040518163ffffffff1660e01b8152600401600060405180830381865afa158015611b8e573d6000803e3d6000fd5b505050506040513d6000823e601f3d908101601f19168201604052611bb691908101906124c0565b8152602001846003018054611bca90612300565b80601f0160208091040260200160405190810160405280929190818152602001828054611bf690612300565b8015611c435780601f10611c1857610100808354040283529160200191611c43565b820191906000526020600020905b815481529060010190602001808311611c2657829003601f168201915b505050505081526020018c8c87818110611c5f57611c5f6125e3565b905060200201358152508589611c74906126fb565b99508981518110611c8757611c876125e3565b6020026020010181905250505b50505b80611ca18161264d565b9150506119ca565b509695505050505050565b6000808383604051611cc691906126ac565b908152604051908190036020019020546001600160a01b031690508061155a5760405162461bcd60e51b815260206004820152601860248201527f54686973207479706520646f6573206e6f74206578697374000000000000000060448201526064016101f8565b6000604051733d602d80600a3d3981f3363d3d373d3d3d363d7360601b81528260601b60148201526e5af43d82803e903d91602b57fd5bf360881b60288201526037816000f09150506001600160a01b038116611dc65760405162461bcd60e51b8152602060048201526016602482015275115490cc4c4d8dce8818dc99585d194819985a5b195960521b60448201526064016101f8565b919050565b5080546000825590600052602060002090810190611de99190611dec565b50565b5b80821115611e015760008155600101611ded565b5090565b634e487b7160e01b600052604160045260246000fd5b604051601f8201601f1916810167ffffffffffffffff81118282101715611e4457611e44611e05565b604052919050565b600067ffffffffffffffff821115611e6657611e66611e05565b50601f01601f191660200190565b600082601f830112611e8557600080fd5b8135611e98611e9382611e4c565b611e1b565b818152846020838601011115611ead57600080fd5b816020850160208301376000918101602001919091529392505050565b600080600083850360c0811215611ee057600080fd5b84359350602085013567ffffffffffffffff811115611efe57600080fd5b611f0a87828801611e74565b9350506080603f1982011215611f1f57600080fd5b506040840190509250925092565b60008060008060808587031215611f4357600080fd5b84359350602085013567ffffffffffffffff80821115611f6257600080fd5b611f6e88838901611e74565b94506040870135915080821115611f8457600080fd5b50611f9187828801611e74565b949793965093946060013593505050565b60008060408385031215611fb557600080fd5b50508035926020909101359150565b600060208284031215611fd657600080fd5b5035919050565b80356001600160a01b0381168114611dc657600080fd5b6000806040838503121561200757600080fd5b823567ffffffffffffffff81111561201e57600080fd5b61202a85828601611e74565b92505061203960208401611fdd565b90509250929050565b60008083601f84011261205457600080fd5b50813567ffffffffffffffff81111561206c57600080fd5b6020830191508360208260051b850101111561208757600080fd5b9250929050565b600080602083850312156120a157600080fd5b823567ffffffffffffffff8111156120b857600080fd5b6120c485828601612042565b90969095509350505050565b60005b838110156120eb5781810151838201526020016120d3565b50506000910152565b6000815180845261210c8160208601602086016120d0565b601f01601f19169290920160200192915050565b60006020808301818452808551808352604092508286019150828160051b87010184880160005b838110156121d457888303603f19018552815180516001600160a01b031684528781015160a089860181905290612180828701826120f4565b915050878201518582038987015261219882826120f4565b915050606080830151868303828801526121b283826120f4565b6080948501519790940196909652505094870194925090860190600101612147565b509098975050505050505050565b6000602082840312156121f457600080fd5b61155a82611fdd565b6001600160a01b038581168252848116602083015283166040820152608060608201819052600090612231908301846120f4565b9695505050505050565b60048110611de957600080fd5b8015158114611de957600080fd5b60008060008060006080868803121561226e57600080fd5b853567ffffffffffffffff81111561228557600080fd5b61229188828901612042565b90965094505060208601356122a58161223b565b92506040860135915060608601356122bc81612248565b809150509295509295909350565b6000602082840312156122dc57600080fd5b815161155a81612248565b6000602082840312156122f957600080fd5b5051919050565b600181811c9082168061231457607f821691505b60208210810361233457634e487b7160e01b600052602260045260246000fd5b50919050565b601f82111561238057600081815260208120601f850160051c810160208610156123615750805b601f850160051c820191505b8181101561118e5782815560010161236d565b505050565b815167ffffffffffffffff81111561239f5761239f611e05565b6123b3816123ad8454612300565b8461233a565b602080601f8311600181146123e857600084156123d05750858301515b600019600386901b1c1916600185901b17855561118e565b600085815260208120601f198616915b82811015612417578886015182559484019460019091019084016123f8565b50858210156124355787850151600019600388901b60f8161c191681555b5050505050600190811b01905550565b6001600160a01b0384168152606060208201819052600090612469908301856120f4565b9050826040830152949350505050565b60808152600061248c60808301876120f4565b828103602084015261249e81876120f4565b604084019590955250506001600160a01b039190911660609091015292915050565b6000602082840312156124d257600080fd5b815167ffffffffffffffff8111156124e957600080fd5b8201601f810184136124fa57600080fd5b8051612508611e9382611e4c565b81815285602083850101111561251d57600080fd5b61252e8260208301602086016120d0565b95945050505050565b60408152600061254a60408301856120f4565b828103602084015261252e81856120f4565b6020808252602e908201527f596f7520646f6e27742068617665207065726d697373696f6e20746f2072756e60408201526d103a3434b990333ab731ba34b7b760911b606082015260800190565b8183823760009101908152919050565b634e487b7160e01b600052601160045260246000fd5b8181038181111561155d5761155d6125ba565b634e487b7160e01b600052603260045260246000fd5b60208082526034908201527f596f752063616e2774207369676e2074776963652c20796f75206e65656420746040820152736f2077616974206f74686572207369676e65727360601b606082015260800190565b60006001820161265f5761265f6125ba565b5060010190565b60208082526026908201527f546865726520617265206e6f2061756374696f6e7320666f72207468697320706040820152651c9bda9958dd60d21b606082015260800190565b600082516126be8184602087016120d0565b9190910192915050565b634e487b7160e01b600052602160045260246000fd5b6000602082840312156126f057600080fd5b815161155a8161223b565b60008161270a5761270a6125ba565b50600019019056fea264697066735822122094ae3a3caee327b9cf64f97dde9bf8dbf5f286fc5deb38814e6731a614ed099d64736f6c6343000811003360806040523480156200001157600080fd5b50600054610100900460ff1615808015620000335750600054600160ff909116105b8062000063575062000050306200013d60201b620007f01760201c565b15801562000063575060005460ff166001145b620000cb5760405162461bcd60e51b815260206004820152602e60248201527f496e697469616c697a61626c653a20636f6e747261637420697320616c72656160448201526d191e481a5b9a5d1a585b1a5e995960921b606482015260840160405180910390fd5b6000805460ff191660011790558015620000ef576000805461ff0019166101001790555b801562000136576000805461ff0019169055604051600181527f7f26b83ff96e1f2b6a682f133852f6798a09c465da95921460cefb38474024989060200160405180910390a15b506200014c565b6001600160a01b03163b151590565b61169c806200015c6000396000f3fe608060405234801561001057600080fd5b506004361061014d5760003560e01c806342966c68116100c3578063a457c2d71161007c578063a457c2d7146102b9578063a9059cbb146102cc578063bd3a13f6146102df578063d5391393146102f2578063d547741f14610319578063dd62ed3e1461032c57600080fd5b806342966c681461024757806370a082311461025a57806379cc67901461028357806391d148541461029657806395d89b41146102a9578063a217fddf146102b157600080fd5b8063248a9ca311610115578063248a9ca3146101c75780632f2ff15d146101ea578063313ce567146101ff57806336568abe1461020e578063395093511461022157806340c10f191461023457600080fd5b806301ffc9a71461015257806306fdde031461017a578063095ea7b31461018f57806318160ddd146101a257806323b872dd146101b4575b600080fd5b610165610160366004611130565b61033f565b60405190151581526020015b60405180910390f35b610182610376565b604051610171919061117e565b61016561019d3660046111cd565b610408565b6067545b604051908152602001610171565b6101656101c23660046111f7565b610420565b6101a66101d5366004611233565b60009081526097602052604090206001015490565b6101fd6101f836600461124c565b610444565b005b60405160128152602001610171565b6101fd61021c36600461124c565b61046e565b61016561022f3660046111cd565b6104f1565b6101fd6102423660046111cd565b610513565b6101fd610255366004611233565b610547565b6101a6610268366004611278565b6001600160a01b031660009081526065602052604090205490565b6101fd6102913660046111cd565b610554565b6101656102a436600461124c565b610569565b610182610594565b6101a6600081565b6101656102c73660046111cd565b6105a3565b6101656102da3660046111cd565b61061e565b6101fd6102ed366004611336565b61062c565b6101a67f9f2df0fed2c77648de5860a4cc508cd0818c85b8b8a1ab4ceeef8d981c8956a681565b6101fd61032736600461124c565b6107a0565b6101a661033a3660046113b4565b6107c5565b60006001600160e01b03198216637965db0b60e01b148061037057506301ffc9a760e01b6001600160e01b03198316145b92915050565b606060688054610385906113de565b80601f01602080910402602001604051908101604052809291908181526020018280546103b1906113de565b80156103fe5780601f106103d3576101008083540402835291602001916103fe565b820191906000526020600020905b8154815290600101906020018083116103e157829003601f168201915b5050505050905090565b6000336104168185856107ff565b5060019392505050565b60003361042e858285610923565b61043985858561099d565b506001949350505050565b60008281526097602052604090206001015461045f81610b6b565b6104698383610b75565b505050565b6001600160a01b03811633146104e35760405162461bcd60e51b815260206004820152602f60248201527f416363657373436f6e74726f6c3a2063616e206f6e6c792072656e6f756e636560448201526e103937b632b9903337b91039b2b63360891b60648201526084015b60405180910390fd5b6104ed8282610bfb565b5050565b60003361041681858561050483836107c5565b61050e919061142e565b6107ff565b7f9f2df0fed2c77648de5860a4cc508cd0818c85b8b8a1ab4ceeef8d981c8956a661053d81610b6b565b6104698383610c62565b6105513382610d41565b50565b61055f823383610923565b6104ed8282610d41565b60009182526097602090815260408084206001600160a01b0393909316845291905290205460ff1690565b606060698054610385906113de565b600033816105b182866107c5565b9050838110156106115760405162461bcd60e51b815260206004820152602560248201527f45524332303a2064656372656173656420616c6c6f77616e63652062656c6f77604482015264207a65726f60d81b60648201526084016104da565b61043982868684036107ff565b60003361041681858561099d565b600054610100900460ff161580801561064c5750600054600160ff909116105b806106665750303b158015610666575060005460ff166001145b6106c95760405162461bcd60e51b815260206004820152602e60248201527f496e697469616c697a61626c653a20636f6e747261637420697320616c72656160448201526d191e481a5b9a5d1a585b1a5e995960921b60648201526084016104da565b6000805460ff1916600117905580156106ec576000805461ff0019166101001790555b6106f68585610e8f565b6106fe610ec0565b61071e6001600160a01b038316156107165782610718565b335b84610c62565b610729600033610b75565b6107537f9f2df0fed2c77648de5860a4cc508cd0818c85b8b8a1ab4ceeef8d981c8956a633610b75565b8015610799576000805461ff0019169055604051600181527f7f26b83ff96e1f2b6a682f133852f6798a09c465da95921460cefb38474024989060200160405180910390a15b5050505050565b6000828152609760205260409020600101546107bb81610b6b565b6104698383610bfb565b6001600160a01b03918216600090815260666020908152604080832093909416825291909152205490565b6001600160a01b03163b151590565b6001600160a01b0383166108615760405162461bcd60e51b8152602060048201526024808201527f45524332303a20617070726f76652066726f6d20746865207a65726f206164646044820152637265737360e01b60648201526084016104da565b6001600160a01b0382166108c25760405162461bcd60e51b815260206004820152602260248201527f45524332303a20617070726f766520746f20746865207a65726f206164647265604482015261737360f01b60648201526084016104da565b6001600160a01b0383811660008181526066602090815260408083209487168084529482529182902085905590518481527f8c5be1e5ebec7d5bd14f71427d1e84f3dd0314c0f7b2291e5b200ac8c7c3b925910160405180910390a3505050565b600061092f84846107c5565b90506000198114610997578181101561098a5760405162461bcd60e51b815260206004820152601d60248201527f45524332303a20696e73756666696369656e7420616c6c6f77616e636500000060448201526064016104da565b61099784848484036107ff565b50505050565b6001600160a01b038316610a015760405162461bcd60e51b815260206004820152602560248201527f45524332303a207472616e736665722066726f6d20746865207a65726f206164604482015264647265737360d81b60648201526084016104da565b6001600160a01b038216610a635760405162461bcd60e51b815260206004820152602360248201527f45524332303a207472616e7366657220746f20746865207a65726f206164647260448201526265737360e81b60648201526084016104da565b6001600160a01b03831660009081526065602052604090205481811015610adb5760405162461bcd60e51b815260206004820152602660248201527f45524332303a207472616e7366657220616d6f756e7420657863656564732062604482015265616c616e636560d01b60648201526084016104da565b6001600160a01b03808516600090815260656020526040808220858503905591851681529081208054849290610b1290849061142e565b92505081905550826001600160a01b0316846001600160a01b03167fddf252ad1be2c89b69c2b068fc378daa952ba7f163c4a11628f55a4df523b3ef84604051610b5e91815260200190565b60405180910390a3610997565b6105518133610ee9565b610b7f8282610569565b6104ed5760008281526097602090815260408083206001600160a01b03851684529091529020805460ff19166001179055610bb73390565b6001600160a01b0316816001600160a01b0316837f2f8788117e7eff1d82e926ec794901d17c78024a50270940304540a733656f0d60405160405180910390a45050565b610c058282610569565b156104ed5760008281526097602090815260408083206001600160a01b0385168085529252808320805460ff1916905551339285917ff6391f5c32d9c69d2a47ea670b442974b53935d1edc7fd64eb21e047a839171b9190a45050565b6001600160a01b038216610cb85760405162461bcd60e51b815260206004820152601f60248201527f45524332303a206d696e7420746f20746865207a65726f20616464726573730060448201526064016104da565b8060676000828254610cca919061142e565b90915550506001600160a01b03821660009081526065602052604081208054839290610cf790849061142e565b90915550506040518181526001600160a01b038316906000907fddf252ad1be2c89b69c2b068fc378daa952ba7f163c4a11628f55a4df523b3ef9060200160405180910390a35050565b6001600160a01b038216610da15760405162461bcd60e51b815260206004820152602160248201527f45524332303a206275726e2066726f6d20746865207a65726f206164647265736044820152607360f81b60648201526084016104da565b6001600160a01b03821660009081526065602052604090205481811015610e155760405162461bcd60e51b815260206004820152602260248201527f45524332303a206275726e20616d6f756e7420657863656564732062616c616e604482015261636560f01b60648201526084016104da565b6001600160a01b0383166000908152606560205260408120838303905560678054849290610e44908490611441565b90915550506040518281526000906001600160a01b038516907fddf252ad1be2c89b69c2b068fc378daa952ba7f163c4a11628f55a4df523b3ef9060200160405180910390a3505050565b600054610100900460ff16610eb65760405162461bcd60e51b81526004016104da90611454565b6104ed8282610f4d565b600054610100900460ff16610ee75760405162461bcd60e51b81526004016104da90611454565b565b610ef38282610569565b6104ed57610f0b816001600160a01b03166014610f8d565b610f16836020610f8d565b604051602001610f2792919061149f565b60408051601f198184030181529082905262461bcd60e51b82526104da9160040161117e565b600054610100900460ff16610f745760405162461bcd60e51b81526004016104da90611454565b6068610f808382611562565b5060696104698282611562565b60606000610f9c836002611622565b610fa790600261142e565b67ffffffffffffffff811115610fbf57610fbf611293565b6040519080825280601f01601f191660200182016040528015610fe9576020820181803683370190505b509050600360fc1b8160008151811061100457611004611639565b60200101906001600160f81b031916908160001a905350600f60fb1b8160018151811061103357611033611639565b60200101906001600160f81b031916908160001a9053506000611057846002611622565b61106290600161142e565b90505b60018111156110da576f181899199a1a9b1b9c1cb0b131b232b360811b85600f166010811061109657611096611639565b1a60f81b8282815181106110ac576110ac611639565b60200101906001600160f81b031916908160001a90535060049490941c936110d38161164f565b9050611065565b5083156111295760405162461bcd60e51b815260206004820181905260248201527f537472696e67733a20686578206c656e67746820696e73756666696369656e7460448201526064016104da565b9392505050565b60006020828403121561114257600080fd5b81356001600160e01b03198116811461112957600080fd5b60005b8381101561117557818101518382015260200161115d565b50506000910152565b602081526000825180602084015261119d81604085016020870161115a565b601f01601f19169190910160400192915050565b80356001600160a01b03811681146111c857600080fd5b919050565b600080604083850312156111e057600080fd5b6111e9836111b1565b946020939093013593505050565b60008060006060848603121561120c57600080fd5b611215846111b1565b9250611223602085016111b1565b9150604084013590509250925092565b60006020828403121561124557600080fd5b5035919050565b6000806040838503121561125f57600080fd5b8235915061126f602084016111b1565b90509250929050565b60006020828403121561128a57600080fd5b611129826111b1565b634e487b7160e01b600052604160045260246000fd5b600082601f8301126112ba57600080fd5b813567ffffffffffffffff808211156112d5576112d5611293565b604051601f8301601f19908116603f011681019082821181831017156112fd576112fd611293565b8160405283815286602085880101111561131657600080fd5b836020870160208301376000602085830101528094505050505092915050565b6000806000806080858703121561134c57600080fd5b843567ffffffffffffffff8082111561136457600080fd5b611370888389016112a9565b9550602087013591508082111561138657600080fd5b50611393878288016112a9565b935050604085013591506113a9606086016111b1565b905092959194509250565b600080604083850312156113c757600080fd5b6113d0836111b1565b915061126f602084016111b1565b600181811c908216806113f257607f821691505b60208210810361141257634e487b7160e01b600052602260045260246000fd5b50919050565b634e487b7160e01b600052601160045260246000fd5b8082018082111561037057610370611418565b8181038181111561037057610370611418565b6020808252602b908201527f496e697469616c697a61626c653a20636f6e7472616374206973206e6f74206960408201526a6e697469616c697a696e6760a81b606082015260800190565b7f416363657373436f6e74726f6c3a206163636f756e74200000000000000000008152600083516114d781601785016020880161115a565b7001034b99036b4b9b9b4b733903937b6329607d1b601791840191820152835161150881602884016020880161115a565b01602801949350505050565b601f82111561046957600081815260208120601f850160051c8101602086101561153b5750805b601f850160051c820191505b8181101561155a57828155600101611547565b505050505050565b815167ffffffffffffffff81111561157c5761157c611293565b6115908161158a84546113de565b84611514565b602080601f8311600181146115c557600084156115ad5750858301515b600019600386901b1c1916600185901b17855561155a565b600085815260208120601f198616915b828110156115f4578886015182559484019460019091019084016115d5565b50858210156116125787850151600019600388901b60f8161c191681555b5050505050600190811b01905550565b808202811582820484141761037057610370611418565b634e487b7160e01b600052603260045260246000fd5b60008161165e5761165e611418565b50600019019056fea2646970667358221220fda0a9dc0f3f0119e08a3740a468f3cf7aacb888871ee54466634fb6e70833c764736f6c63430008110033",
  "linkReferences": {},
  "deployedLinkReferences": {}
}