{
  "_format": "hh-sol-artifact-1",
  "contractName": "OBFCFSAuction",
  "sourceName": "contracts/UpgradeableAuctions/OBFCFSAuction.sol",
  "abi": [
    {
      "anonymous": false,
      "inputs": [
        {
          "indexed": false,
          "internalType": "uint256",
          "name": "end",
          "type": "uint256"
        },
        {
          "indexed": false,
          "internalType": "uint256",
          "name": "finalPrice",
          "type": "uint256"
        }
      ],
      "name": "AuctionFinished",
      "type": "event"
    },
    {
      "anonymous": false,
      "inputs": [
        {
          "indexed": false,
          "internalType": "uint256",
          "name": "pauseDuration",
          "type": "uint256"
        }
      ],
      "name": "AuctionPaused",
      "type": "event"
    },
    {
      "anonymous": false,
      "inputs": [
        {
          "indexed": false,
          "internalType": "uint256",
          "name": "start",
          "type": "uint256"
        },
        {
          "indexed": false,
          "internalType": "uint256",
          "name": "end",
          "type": "uint256"
        }
      ],
      "name": "AuctionStarted",
      "type": "event"
    },
    {
      "anonymous": false,
      "inputs": [
        {
          "indexed": true,
          "internalType": "address",
          "name": "sender",
          "type": "address"
        },
        {
          "indexed": false,
          "internalType": "uint256",
          "name": "amount",
          "type": "uint256"
        }
      ],
      "name": "BidSubmission",
      "type": "event"
    },
    {
      "anonymous": false,
      "inputs": [
        {
          "indexed": false,
          "internalType": "uint8",
          "name": "version",
          "type": "uint8"
        }
      ],
      "name": "Initialized",
      "type": "event"
    },
    {
      "anonymous": false,
      "inputs": [
        {
          "indexed": true,
          "internalType": "bytes32",
          "name": "role",
          "type": "bytes32"
        },
        {
          "indexed": true,
          "internalType": "bytes32",
          "name": "previousAdminRole",
          "type": "bytes32"
        },
        {
          "indexed": true,
          "internalType": "bytes32",
          "name": "newAdminRole",
          "type": "bytes32"
        }
      ],
      "name": "RoleAdminChanged",
      "type": "event"
    },
    {
      "anonymous": false,
      "inputs": [
        {
          "indexed": true,
          "internalType": "bytes32",
          "name": "role",
          "type": "bytes32"
        },
        {
          "indexed": true,
          "internalType": "address",
          "name": "account",
          "type": "address"
        },
        {
          "indexed": true,
          "internalType": "address",
          "name": "sender",
          "type": "address"
        }
      ],
      "name": "RoleGranted",
      "type": "event"
    },
    {
      "anonymous": false,
      "inputs": [
        {
          "indexed": true,
          "internalType": "bytes32",
          "name": "role",
          "type": "bytes32"
        },
        {
          "indexed": true,
          "internalType": "address",
          "name": "account",
          "type": "address"
        },
        {
          "indexed": true,
          "internalType": "address",
          "name": "sender",
          "type": "address"
        }
      ],
      "name": "RoleRevoked",
      "type": "event"
    },
    {
      "anonymous": false,
      "inputs": [
        {
          "indexed": true,
          "internalType": "address",
          "name": "buyer",
          "type": "address"
        },
        {
          "indexed": false,
          "internalType": "uint256",
          "name": "usedBidCoinAmount",
          "type": "uint256"
        },
        {
          "indexed": false,
          "internalType": "uint256",
          "name": "boughtTokenAmount",
          "type": "uint256"
        }
      ],
      "name": "TokenBought",
      "type": "event"
    },
    {
      "anonymous": false,
      "inputs": [
        {
          "indexed": false,
          "internalType": "string",
          "name": "variable",
          "type": "string"
        },
        {
          "indexed": false,
          "internalType": "uint256",
          "name": "value",
          "type": "uint256"
        }
      ],
      "name": "VariableChange",
      "type": "event"
    },
    {
      "inputs": [],
      "name": "DEFAULT_ADMIN_ROLE",
      "outputs": [
        {
          "internalType": "bytes32",
          "name": "",
          "type": "bytes32"
        }
      ],
      "stateMutability": "view",
      "type": "function"
    },
    {
      "inputs": [],
      "name": "PROPOSER_ADMIN_ROLE",
      "outputs": [
        {
          "internalType": "bytes32",
          "name": "",
          "type": "bytes32"
        }
      ],
      "stateMutability": "view",
      "type": "function"
    },
    {
      "inputs": [],
      "name": "PROPOSER_ROLE",
      "outputs": [
        {
          "internalType": "bytes32",
          "name": "",
          "type": "bytes32"
        }
      ],
      "stateMutability": "view",
      "type": "function"
    },
    {
      "inputs": [
        {
          "internalType": "uint256",
          "name": "bidCoinBits",
          "type": "uint256"
        }
      ],
      "name": "bid",
      "outputs": [],
      "stateMutability": "nonpayable",
      "type": "function"
    },
    {
      "inputs": [],
      "name": "bidCoin",
      "outputs": [
        {
          "internalType": "contract WrapperToken",
          "name": "",
          "type": "address"
        }
      ],
      "stateMutability": "view",
      "type": "function"
    },
    {
      "inputs": [
        {
          "internalType": "address",
          "name": "",
          "type": "address"
        }
      ],
      "name": "biddingBook",
      "outputs": [
        {
          "internalType": "uint256",
          "name": "",
          "type": "uint256"
        }
      ],
      "stateMutability": "view",
      "type": "function"
    },
    {
      "inputs": [],
      "name": "currentRate",
      "outputs": [
        {
          "internalType": "uint256",
          "name": "",
          "type": "uint256"
        }
      ],
      "stateMutability": "view",
      "type": "function"
    },
    {
      "inputs": [],
      "name": "forcedManualFinish",
      "outputs": [],
      "stateMutability": "nonpayable",
      "type": "function"
    },
    {
      "inputs": [],
      "name": "fundLimitPerUser",
      "outputs": [
        {
          "internalType": "uint256",
          "name": "",
          "type": "uint256"
        }
      ],
      "stateMutability": "view",
      "type": "function"
    },
    {
      "inputs": [],
      "name": "getCurrentRate",
      "outputs": [
        {
          "internalType": "uint256",
          "name": "current",
          "type": "uint256"
        }
      ],
      "stateMutability": "view",
      "type": "function"
    },
    {
      "inputs": [
        {
          "internalType": "bytes32",
          "name": "role",
          "type": "bytes32"
        }
      ],
      "name": "getRoleAdmin",
      "outputs": [
        {
          "internalType": "bytes32",
          "name": "",
          "type": "bytes32"
        }
      ],
      "stateMutability": "view",
      "type": "function"
    },
    {
      "inputs": [],
      "name": "getStatus",
      "outputs": [
        {
          "internalType": "enum Auction.AuctionStatus",
          "name": "",
          "type": "uint8"
        }
      ],
      "stateMutability": "view",
      "type": "function"
    },
    {
      "inputs": [
        {
          "internalType": "bytes32",
          "name": "role",
          "type": "bytes32"
        },
        {
          "internalType": "address",
          "name": "account",
          "type": "address"
        }
      ],
      "name": "grantRole",
      "outputs": [],
      "stateMutability": "nonpayable",
      "type": "function"
    },
    {
      "inputs": [
        {
          "internalType": "bytes32",
          "name": "role",
          "type": "bytes32"
        },
        {
          "internalType": "address",
          "name": "account",
          "type": "address"
        }
      ],
      "name": "hasRole",
      "outputs": [
        {
          "internalType": "bool",
          "name": "",
          "type": "bool"
        }
      ],
      "stateMutability": "view",
      "type": "function"
    },
    {
      "inputs": [
        {
          "components": [
            {
              "internalType": "address",
              "name": "token",
              "type": "address"
            },
            {
              "internalType": "address",
              "name": "bidCoin",
              "type": "address"
            },
            {
              "internalType": "uint256",
              "name": "numberOfTokensToBeDistributed",
              "type": "uint256"
            },
            {
              "internalType": "uint256",
              "name": "rate",
              "type": "uint256"
            },
            {
              "internalType": "uint256",
              "name": "finalRate",
              "type": "uint256"
            },
            {
              "internalType": "uint256",
              "name": "limit",
              "type": "uint256"
            }
          ],
          "internalType": "struct Auction.auctionParameters",
          "name": "params",
          "type": "tuple"
        }
      ],
      "name": "initialize",
      "outputs": [],
      "stateMutability": "nonpayable",
      "type": "function"
    },
    {
      "inputs": [],
      "name": "latestEndTime",
      "outputs": [
        {
          "internalType": "uint256",
          "name": "",
          "type": "uint256"
        }
      ],
      "stateMutability": "view",
      "type": "function"
    },
    {
      "inputs": [],
      "name": "manualFinish",
      "outputs": [],
      "stateMutability": "nonpayable",
      "type": "function"
    },
    {
      "inputs": [
        {
          "internalType": "bytes[]",
          "name": "data",
          "type": "bytes[]"
        }
      ],
      "name": "multicall",
      "outputs": [
        {
          "internalType": "bytes[]",
          "name": "results",
          "type": "bytes[]"
        }
      ],
      "stateMutability": "nonpayable",
      "type": "function"
    },
    {
      "inputs": [],
      "name": "numberOfTokensToBeDistributed",
      "outputs": [
        {
          "internalType": "uint256",
          "name": "",
          "type": "uint256"
        }
      ],
      "stateMutability": "view",
      "type": "function"
    },
    {
      "inputs": [
        {
          "internalType": "uint256",
          "name": "pauseTimeInHours",
          "type": "uint256"
        }
      ],
      "name": "pauseAuction",
      "outputs": [],
      "stateMutability": "nonpayable",
      "type": "function"
    },
    {
      "inputs": [],
      "name": "projectToken",
      "outputs": [
        {
          "internalType": "contract ERC20MintableBurnableUpgradeable",
          "name": "",
          "type": "address"
        }
      ],
      "stateMutability": "view",
      "type": "function"
    },
    {
      "inputs": [],
      "name": "projectWallet",
      "outputs": [
        {
          "internalType": "address",
          "name": "",
          "type": "address"
        }
      ],
      "stateMutability": "view",
      "type": "function"
    },
    {
      "inputs": [],
      "name": "rate",
      "outputs": [
        {
          "internalType": "uint256",
          "name": "",
          "type": "uint256"
        }
      ],
      "stateMutability": "view",
      "type": "function"
    },
    {
      "inputs": [
        {
          "internalType": "bytes32",
          "name": "role",
          "type": "bytes32"
        },
        {
          "internalType": "address",
          "name": "account",
          "type": "address"
        }
      ],
      "name": "renounceRole",
      "outputs": [],
      "stateMutability": "nonpayable",
      "type": "function"
    },
    {
      "inputs": [
        {
          "internalType": "bytes32",
          "name": "role",
          "type": "bytes32"
        },
        {
          "internalType": "address",
          "name": "account",
          "type": "address"
        }
      ],
      "name": "revokeRole",
      "outputs": [],
      "stateMutability": "nonpayable",
      "type": "function"
    },
    {
      "inputs": [
        {
          "internalType": "address",
          "name": "wallet",
          "type": "address"
        }
      ],
      "name": "setTeamWallet",
      "outputs": [],
      "stateMutability": "nonpayable",
      "type": "function"
    },
    {
      "inputs": [],
      "name": "soldProjectTokens",
      "outputs": [
        {
          "internalType": "uint256",
          "name": "",
          "type": "uint256"
        }
      ],
      "stateMutability": "view",
      "type": "function"
    },
    {
      "inputs": [
        {
          "internalType": "uint256",
          "name": "maximumAuctionTimeInHours",
          "type": "uint256"
        }
      ],
      "name": "startAuction",
      "outputs": [],
      "stateMutability": "nonpayable",
      "type": "function"
    },
    {
      "inputs": [],
      "name": "startTime",
      "outputs": [
        {
          "internalType": "uint256",
          "name": "",
          "type": "uint256"
        }
      ],
      "stateMutability": "view",
      "type": "function"
    },
    {
      "inputs": [],
      "name": "status",
      "outputs": [
        {
          "internalType": "enum Auction.AuctionStatus",
          "name": "",
          "type": "uint8"
        }
      ],
      "stateMutability": "view",
      "type": "function"
    },
    {
      "inputs": [
        {
          "internalType": "bytes4",
          "name": "interfaceId",
          "type": "bytes4"
        }
      ],
      "name": "supportsInterface",
      "outputs": [
        {
          "internalType": "bool",
          "name": "",
          "type": "bool"
        }
      ],
      "stateMutability": "view",
      "type": "function"
    },
    {
      "inputs": [],
      "name": "totalDepositedSucoins",
      "outputs": [
        {
          "internalType": "uint256",
          "name": "",
          "type": "uint256"
        }
      ],
      "stateMutability": "view",
      "type": "function"
    },
    {
      "inputs": [],
      "name": "withDraw",
      "outputs": [],
      "stateMutability": "nonpayable",
      "type": "function"
    }
  ],
  "bytecode": "0x60806040523480156200001157600080fd5b50600054610100900460ff1615808015620000335750600054600160ff909116105b8062000063575062000050306200013d60201b620010a51760201c565b15801562000063575060005460ff166001145b620000cb5760405162461bcd60e51b815260206004820152602e60248201527f496e697469616c697a61626c653a20636f6e747261637420697320616c72656160448201526d191e481a5b9a5d1a585b1a5e995960921b606482015260840160405180910390fd5b6000805460ff191660011790558015620000ef576000805461ff0019166101001790555b801562000136576000805461ff0019169055604051600181527f7f26b83ff96e1f2b6a682f133852f6798a09c465da95921460cefb38474024989060200160405180910390a15b506200014c565b6001600160a01b03163b151590565b612681806200015c6000396000f3fe608060405234801561001057600080fd5b50600436106101fb5760003560e01c8063610b4f361161011a578063a217fddf116100ad578063beb08ab91161007c578063beb08ab914610413578063d547741f1461042b578063f7fb07b01461043e578063f9f8bdb714610446578063faa735001461044f57600080fd5b8063a217fddf146103cf578063a51993db146103d7578063ac9650d8146103ea578063b296558d1461040a57600080fd5b806378e97925116100e957806378e97925146103955780638b3e56e11461039e5780638f61f4f5146103a757806391d14854146103bc57600080fd5b8063610b4f361461035057806362dd23f01461036357806363c5f7c11461038357806375caa9ef1461038c57600080fd5b8063228e248e1161019257806336568abe1161016157806336568abe146102f7578063454a2ab31461030a5780634b60ce771461031d5780634e69d5601461034857600080fd5b8063228e248e146102b0578063248a9ca3146102b85780632c4e722e146102db5780632f2ff15d146102e457600080fd5b80631525ff7d116101ce5780631525ff7d1461024d5780631a87a934146102605780631d6833aa14610273578063200d2ed21461029657600080fd5b806301ffc9a714610200578063065de74c146102285780630dda507e1461023d5780630fdb1c1014610245575b600080fd5b61021361020e366004612067565b610458565b60405190151581526020015b60405180910390f35b61023b610236366004612091565b61048f565b005b61023b610523565b61023b610600565b61023b61025b3660046120c1565b610866565b61023b61026e3660046120dc565b6108a7565b61028860008051602061262c83398151915281565b60405190815260200161021f565b609b546102a39060ff1681565b60405161021f919061210a565b61023b6109c8565b6102886102c6366004612091565b60009081526065602052604090206001015490565b61028860a15481565b61023b6102f2366004612132565b610a44565b61023b610305366004612132565b610a69565b61023b610318366004612091565b610ae3565b609d54610330906001600160a01b031681565b6040516001600160a01b03909116815260200161021f565b6102a3610d58565b61023b61035e366004612091565b610dc3565b6102886103713660046120c1565b60a26020526000908152604090205481565b610288609c5481565b61028860995481565b61028860985481565b610288609f5481565b61028860008051602061260c83398151915281565b6102136103ca366004612132565b610f60565b610288600081565b609754610330906001600160a01b031681565b6103fd6103f836600461215e565b610f8b565b60405161021f9190612223565b610288609e5481565b609b546103309061010090046001600160a01b031681565b61023b610439366004612132565b611080565b60a054610288565b61028860a05481565b61028860a35481565b60006001600160e01b03198216637965db0b60e01b148061048957506301ffc9a760e01b6001600160e01b03198316145b92915050565b60008051602061260c8339815191526104a7816110b4565b6104b0826110be565b609b805460ff19166001908117909155426098556104cf90839061229b565b6104d990426122b2565b60998190556098546040517ff8910119ddbef5440c54532457dfe8250a10ed39e583292818f44724b9e1344c92610517928252602082015260400190565b60405180910390a15050565b6002609b5460ff16600381111561053c5761053c6120f4565b14801561054b5750609a544210155b1561055e57609b805460ff191660011790555b6001609b5460ff166003811115610577576105776120f4565b14801561058657506099544210155b1561059357610593611185565b6003609b5460ff1660038111156105ac576105ac6120f4565b146105fe5760405162461bcd60e51b815260206004820152601c60248201527f41756374696f6e20686173206e6f742066696e6973686564207965740000000060448201526064015b60405180910390fd5b565b6002609b5460ff166003811115610619576106196120f4565b1480156106285750609a544210155b1561063b57609b805460ff191660011790555b6001609b5460ff166003811115610654576106546120f4565b14801561066357506099544210155b1561067057610670611185565b6003609b5460ff166003811115610689576106896120f4565b146106d65760405162461bcd60e51b815260206004820152601c60248201527f41756374696f6e20686173206e6f742066696e6973686564207965740000000060448201526064016105f5565b33600090815260a2602090815260408083205460a054609d54835163313ce56760e01b8152935192959491936001600160a01b039091169263313ce567926004808401939192918290030181865afa158015610736573d6000803e3d6000fd5b505050506040513d601f19601f8201168201806040525081019061075a91906122c5565b61076590600a6123cc565b61076f908461229b565b61077991906123db565b9050600081116107d95760405162461bcd60e51b815260206004820152602560248201527f596f7520646f6e2774206861766520616e7920746f6b656e7320746f20776974604482015264686472617760d81b60648201526084016105f5565b33600081815260a2602052604080822091909155609d54905163a9059cbb60e01b81526004810192909252602482018390526001600160a01b03169063a9059cbb906044016020604051808303816000875af115801561083d573d6000803e3d6000fd5b505050506040513d601f19601f8201168201806040525081019061086191906123fd565b505050565b60008051602061262c83398151915261087e816110b4565b50609b80546001600160a01b0390921661010002610100600160a81b0319909216919091179055565b600054610100900460ff16158080156108c75750600054600160ff909116105b806108e15750303b1580156108e1575060005460ff166001145b6109445760405162461bcd60e51b815260206004820152602e60248201527f496e697469616c697a61626c653a20636f6e747261637420697320616c72656160448201526d191e481a5b9a5d1a585b1a5e995960921b60648201526084016105f5565b6000805460ff191660011790558015610967576000805461ff0019166101001790555b61097082611271565b610979826112aa565b610982826112df565b80156109c4576000805461ff0019169055604051600181527f7f26b83ff96e1f2b6a682f133852f6798a09c465da95921460cefb384740249890602001610517565b5050565b60006109d3816110b4565b6003609b5460ff1660038111156109ec576109ec6120f4565b03610a395760405162461bcd60e51b815260206004820152601a60248201527f546869732041756374696f6e20616c726561647920656e64656400000000000060448201526064016105f5565b610a41611185565b50565b600082815260656020526040902060010154610a5f816110b4565b610861838361130f565b6001600160a01b0381163314610ad95760405162461bcd60e51b815260206004820152602f60248201527f416363657373436f6e74726f6c3a2063616e206f6e6c792072656e6f756e636560448201526e103937b632b9903337b91039b2b63360891b60648201526084016105f5565b6109c48282611395565b6002609b5460ff166003811115610afc57610afc6120f4565b148015610b0b5750609a544210155b15610b1e57609b805460ff191660011790555b6001609b5460ff166003811115610b3757610b376120f4565b148015610b4657506099544210155b15610b5357610a41611185565b6001609b5460ff166003811115610b6c57610b6c6120f4565b14610bb25760405162461bcd60e51b815260206004820152601660248201527541756374696f6e206973206e6f742072756e6e696e6760501b60448201526064016105f5565b609b5461010090046001600160a01b0316610c0f5760405162461bcd60e51b815260206004820152601960248201527f50726f6a6563742077616c6c6574206973206e6f74207365740000000000000060448201526064016105f5565b609b5461010090046001600160a01b03163303610c6e5760405162461bcd60e51b815260206004820152601960248201527f50726f6a6563742077616c6c65742063616e6e6f74206269640000000000000060448201526064016105f5565b610c8660008051602061260c83398151915233610f60565b15610cca5760405162461bcd60e51b8152602060048201526014602482015273141c9bdc1bdcd95c9cc818d85b9b9bdd08189a5960621b60448201526064016105f5565b60008111610d1a5760405162461bcd60e51b815260206004820152601a60248201527f596f75206e65656420746f2062696420736f6d6520636f696e7300000000000060448201526064016105f5565b60405181815233907f9c89e828e6cee6374b68147c9e753e41746aad98ba255a527a4fc0ac1868bff99060200160405180910390a2610a41816113fc565b609b5460009060ff166002816003811115610d7557610d756120f4565b148015610d845750609a544210155b15610d8d575060015b6001609b5460ff166003811115610da657610da66120f4565b148015610db557506099544210155b15610dbe575060035b919050565b6002609b5460ff166003811115610ddc57610ddc6120f4565b148015610deb5750609a544210155b15610dfe57609b805460ff191660011790555b6001609b5460ff166003811115610e1757610e176120f4565b148015610e2657506099544210155b15610e3357610a41611185565b6000610e3e816110b4565b6001609b5460ff166003811115610e5757610e576120f4565b14610e9d5760405162461bcd60e51b815260206004820152601660248201527541756374696f6e206973206e6f742072756e6e696e6760501b60448201526064016105f5565b60008211610eed5760405162461bcd60e51b815260206004820152601960248201527f50617573652054696d65206d757374206265206c6f6e6765720000000000000060448201526064016105f5565b610ef882600161229b565b610f0290426122b2565b609a8190556099544291610f1691906122b2565b610f20919061241f565b609955609b805460ff191660021790556040518281527fbfbe0eeb9851e98d21f973d30f11b8dacd485bc42ea47fe58b3335603741543f90602001610517565b60009182526065602090815260408084206001600160a01b0393909316845291905290205460ff1690565b60608167ffffffffffffffff811115610fa657610fa6612432565b604051908082528060200260200182016040528015610fd957816020015b6060815260200190600190039081610fc45790505b50905060005b828110156110795761104930858584818110610ffd57610ffd612448565b905060200281019061100f919061245e565b8080601f0160208091040260200160405190810160405280939291908181526020018383808284376000920191909152506115a892505050565b82828151811061105b5761105b612448565b60200260200101819052508080611071906124ac565b915050610fdf565b5092915050565b60008281526065602052604090206001015461109b816110b4565b6108618383611395565b6001600160a01b03163b151590565b610a4181336115d4565b6000609b5460ff1660038111156110d7576110d76120f4565b146111355760405162461bcd60e51b815260206004820152602860248201527f41756374696f6e20616c72656164792073746172746564206f7220616c726561604482015267191e48195b99195960c21b60648201526084016105f5565b60008111610a415760405162461bcd60e51b815260206004820152601b60248201527f41756374696f6e2054696d65206d757374206265206c6f6e676572000000000060448201526064016105f5565b611197609b805460ff19166003179055565b6000609e54609f546111a9919061241f565b9050801561123157609d54609b5460405163a9059cbb60e01b81526001600160a01b03610100909204821660048201526024810184905291169063a9059cbb906044016020604051808303816000875af115801561120b573d6000803e3d6000fd5b505050506040513d601f19601f8201168201806040525081019061122f91906123fd565b505b60a0546040805142815260208101929092527fa26f614dfadbd6fab0e2c34abdab71ad292b06a4b47d63fda8dc3ccb85cb5209910160405180910390a150565b600054610100900460ff166112985760405162461bcd60e51b81526004016105f5906124c5565b6112a181611638565b610a4181611670565b600054610100900460ff166112d15760405162461bcd60e51b81526004016105f5906124c5565b6060013560a181905560a055565b600054610100900460ff166113065760405162461bcd60e51b81526004016105f5906124c5565b60a0013560a355565b6113198282610f60565b6109c45760008281526065602090815260408083206001600160a01b03851684529091529020805460ff191660011790556113513390565b6001600160a01b0316816001600160a01b0316837f2f8788117e7eff1d82e926ec794901d17c78024a50270940304540a733656f0d60405160405180910390a45050565b61139f8282610f60565b156109c45760008281526065602090815260408083206001600160a01b0385168085529252808320805460ff1916905551339285917ff6391f5c32d9c69d2a47ea670b442974b53935d1edc7fd64eb21e047a839171b9190a45050565b611404611747565b6000609e54609f54611416919061241f565b9050600081116114685760405162461bcd60e51b815260206004820152601d60248201527f4e6f20636f696e73206c65667420666f72207468652061756374696f6e00000060448201526064016105f5565b6114748260a0546117b6565b91506000609d60009054906101000a90046001600160a01b03166001600160a01b031663313ce5676040518163ffffffff1660e01b8152600401602060405180830381865afa1580156114cb573d6000803e3d6000fd5b505050506040513d601f19601f820116820180604052508101906114ef91906122c5565b6114fa90600a6123cc565b8260a054611508919061229b565b61151291906123db565b905061151e82826123db565b8310156115875760405162461bcd60e51b815260206004820152603160248201527f426964636f696e20616d6f756e74206c6f776572207468616e2072657175697260448201527032b2103a3790313abc9030903a37b5b2b760791b60648201526084016105f5565b80831061159f5761159781611820565b610861611185565b61086183611820565b60606115cd83836040518060600160405280602781526020016125e560279139611a04565b9392505050565b6115de8282610f60565b6109c4576115f6816001600160a01b03166014611ae1565b611601836020611ae1565b604051602001611612929190612510565b60408051601f198184030181529082905262461bcd60e51b82526105f591600401612585565b600054610100900460ff1661165f5760405162461bcd60e51b81526004016105f5906124c5565b611667611c7d565b610a4181611ca4565b600054610100900460ff166116975760405162461bcd60e51b81526004016105f5906124c5565b60008160400135116117115760405162461bcd60e51b815260206004820152603c60248201527f41756374696f6e2063616e6e6f742068617070656e206265636175736520746860448201527f65726520617265206e6f20746f6b656e7320746f2061756374696f6e0000000060648201526084016105f5565b61171e60208201826120c1565b609d80546001600160a01b0319166001600160a01b039290921691909117905560400135609f55565b600061175260a05490565b905060a0548114610a415760408051818152600b818301526a63757272656e745261746560a81b60608201526020810183905290517fb325f51492db6a3e2d42f7d2c7721750691a0cf7e6c3e4bd2b940b35282573809181900360800190a160a055565b60008061180283846117dd87609760009054906101000a90046001600160a01b0316611d51565b6117e791906123db565b6117f1919061229b565b6097546001600160a01b0316611dca565b61180c908561241f565b9050611818818561241f565b949350505050565b609754604051636eb1769f60e11b81523360048201523060248201526000916001600160a01b03169063dd62ed3e90604401602060405180830381865afa15801561186f573d6000803e3d6000fd5b505050506040513d601f19601f820116820180604052508101906118939190612598565b9050818110156118f45760405162461bcd60e51b815260206004820152602660248201527f417070726f7665642062696420636f696e20616d6f756e74206973206e6f74206044820152650cadcdeeaced60d31b60648201526084016105f5565b609754609b546040516323b872dd60e01b81523360048201526001600160a01b0361010090920482166024820152604481018590529116906323b872dd906064016020604051808303816000875af1158015611954573d6000803e3d6000fd5b505050506040513d601f19601f8201168201806040525081019061197891906123fd565b5081609c600082825461198b91906122b2565b9091555050609c546040517fb325f51492db6a3e2d42f7d2c7721750691a0cf7e6c3e4bd2b940b3528257380916119f391604080825260159082015274746f74616c4465706f73697465645375636f696e7360581b6060820152602081019190915260800190565b60405180910390a16109c482611e43565b60606001600160a01b0384163b611a6c5760405162461bcd60e51b815260206004820152602660248201527f416464726573733a2064656c65676174652063616c6c20746f206e6f6e2d636f6044820152651b9d1c9858dd60d21b60648201526084016105f5565b600080856001600160a01b031685604051611a8791906125b1565b600060405180830381855af49150503d8060008114611ac2576040519150601f19603f3d011682016040523d82523d6000602084013e611ac7565b606091505b5091509150611ad7828286611fe3565b9695505050505050565b60606000611af083600261229b565b611afb9060026122b2565b67ffffffffffffffff811115611b1357611b13612432565b6040519080825280601f01601f191660200182016040528015611b3d576020820181803683370190505b509050600360fc1b81600081518110611b5857611b58612448565b60200101906001600160f81b031916908160001a905350600f60fb1b81600181518110611b8757611b87612448565b60200101906001600160f81b031916908160001a9053506000611bab84600261229b565b611bb69060016122b2565b90505b6001811115611c2e576f181899199a1a9b1b9c1cb0b131b232b360811b85600f1660108110611bea57611bea612448565b1a60f81b828281518110611c0057611c00612448565b60200101906001600160f81b031916908160001a90535060049490941c93611c27816125cd565b9050611bb9565b5083156115cd5760405162461bcd60e51b815260206004820181905260248201527f537472696e67733a20686578206c656e67746820696e73756666696369656e7460448201526064016105f5565b600054610100900460ff166105fe5760405162461bcd60e51b81526004016105f5906124c5565b600054610100900460ff16611ccb5760405162461bcd60e51b81526004016105f5906124c5565b611cd660003361130f565b611cfc60008051602061260c83398151915260008051602061262c83398151915261201c565b611d1460008051602061262c8339815191523361130f565b609b805460ff19169055611d2e60408201602083016120c1565b609780546001600160a01b0319166001600160a01b039290921691909117905550565b6000816001600160a01b031663313ce5676040518163ffffffff1660e01b8152600401602060405180830381865afa158015611d91573d6000803e3d6000fd5b505050506040513d601f19601f82011682018060405250810190611db591906122c5565b611dc090600a6123cc565b6115cd908461229b565b6000816001600160a01b031663313ce5676040518163ffffffff1660e01b8152600401602060405180830381865afa158015611e0a573d6000803e3d6000fd5b505050506040513d601f19601f82011682018060405250810190611e2e91906122c5565b611e3990600a6123cc565b6115cd90846123db565b8060a35460001480611e71575060a35433600090815260a26020526040902054611e6e9083906122b2565b11155b611ed05760405162461bcd60e51b815260206004820152602a60248201527f596f752061726520747279696e6720746f20627579206d6f7265207468616e206044820152691e5bdd5c881b1a5b5a5d60b21b60648201526084016105f5565b60a054609d546040805163313ce56760e01b81529051600093926001600160a01b03169163313ce5679160048083019260209291908290030181865afa158015611f1e573d6000803e3d6000fd5b505050506040513d601f19601f82011682018060405250810190611f4291906122c5565b611f4d90600a6123cc565b611f57908561229b565b611f6191906123db565b33600090815260a26020526040812080549293508592909190611f859084906122b2565b9250508190555080609e6000828254611f9e91906122b2565b9091555050604080518481526020810183905233917f28cab0d660ed8aedd61a8c9db00b97f6a2d67e07d87795994f440b18bc5f1aa3910160405180910390a2505050565b60608315611ff25750816115cd565b8251156120025782518084602001fd5b8160405162461bcd60e51b81526004016105f59190612585565b600082815260656020526040808220600101805490849055905190918391839186917fbd79b86ffe0ab8e8776151514217cd7cacd52c909f66475c3af44e129f0b00ff9190a4505050565b60006020828403121561207957600080fd5b81356001600160e01b0319811681146115cd57600080fd5b6000602082840312156120a357600080fd5b5035919050565b80356001600160a01b0381168114610dbe57600080fd5b6000602082840312156120d357600080fd5b6115cd826120aa565b600060c082840312156120ee57600080fd5b50919050565b634e487b7160e01b600052602160045260246000fd5b602081016004831061212c57634e487b7160e01b600052602160045260246000fd5b91905290565b6000806040838503121561214557600080fd5b82359150612155602084016120aa565b90509250929050565b6000806020838503121561217157600080fd5b823567ffffffffffffffff8082111561218957600080fd5b818501915085601f83011261219d57600080fd5b8135818111156121ac57600080fd5b8660208260051b85010111156121c157600080fd5b60209290920196919550909350505050565b60005b838110156121ee5781810151838201526020016121d6565b50506000910152565b6000815180845261220f8160208601602086016121d3565b601f01601f19169290920160200192915050565b6000602080830181845280855180835260408601915060408160051b870101925083870160005b8281101561227857603f198886030184526122668583516121f7565b9450928501929085019060010161224a565b5092979650505050505050565b634e487b7160e01b600052601160045260246000fd5b808202811582820484141761048957610489612285565b8082018082111561048957610489612285565b6000602082840312156122d757600080fd5b815160ff811681146115cd57600080fd5b600181815b8085111561232357816000190482111561230957612309612285565b8085161561231657918102915b93841c93908002906122ed565b509250929050565b60008261233a57506001610489565b8161234757506000610489565b816001811461235d576002811461236757612383565b6001915050610489565b60ff84111561237857612378612285565b50506001821b610489565b5060208310610133831016604e8410600b84101617156123a6575081810a610489565b6123b083836122e8565b80600019048211156123c4576123c4612285565b029392505050565b60006115cd60ff84168361232b565b6000826123f857634e487b7160e01b600052601260045260246000fd5b500490565b60006020828403121561240f57600080fd5b815180151581146115cd57600080fd5b8181038181111561048957610489612285565b634e487b7160e01b600052604160045260246000fd5b634e487b7160e01b600052603260045260246000fd5b6000808335601e1984360301811261247557600080fd5b83018035915067ffffffffffffffff82111561249057600080fd5b6020019150368190038213156124a557600080fd5b9250929050565b6000600182016124be576124be612285565b5060010190565b6020808252602b908201527f496e697469616c697a61626c653a20636f6e7472616374206973206e6f74206960408201526a6e697469616c697a696e6760a81b606082015260800190565b7f416363657373436f6e74726f6c3a206163636f756e74200000000000000000008152600083516125488160178501602088016121d3565b7001034b99036b4b9b9b4b733903937b6329607d1b60179184019182015283516125798160288401602088016121d3565b01602801949350505050565b6020815260006115cd60208301846121f7565b6000602082840312156125aa57600080fd5b5051919050565b600082516125c38184602087016121d3565b9190910192915050565b6000816125dc576125dc612285565b50600019019056fe416464726573733a206c6f772d6c6576656c2064656c65676174652063616c6c206661696c6564b09aa5aeb3702cfd50b6b62bc4532604938f21248a27a1d5ca736082b6819cc19989001599306562c281f170efd64bd922b630d9e66fafc71949876c6ceb48c6a264697066735822122072ee3345553fa2082ce9f01449391fdffc585af63b32f0584a796c046d6551ce64736f6c63430008110033",
  "linkReferences": {},
  "deployedLinkReferences": {}
}