{
  "_format": "hh-sol-artifact-1",
  "contractName": "StrictDutchAuction",
  "sourceName": "contracts/UpgradeableAuctions/StrictDutchAuction.sol",
  "abi": [
    {
      "anonymous": false,
      "inputs": [
        {
          "indexed": false,
          "internalType": "uint256",
          "name": "end",
          "type": "uint256"
        },
        {
          "indexed": false,
          "internalType": "uint256",
          "name": "finalPrice",
          "type": "uint256"
        }
      ],
      "name": "AuctionFinished",
      "type": "event"
    },
    {
      "anonymous": false,
      "inputs": [
        {
          "indexed": false,
          "internalType": "uint256",
          "name": "pauseDuration",
          "type": "uint256"
        }
      ],
      "name": "AuctionPaused",
      "type": "event"
    },
    {
      "anonymous": false,
      "inputs": [
        {
          "indexed": false,
          "internalType": "uint256",
          "name": "start",
          "type": "uint256"
        },
        {
          "indexed": false,
          "internalType": "uint256",
          "name": "end",
          "type": "uint256"
        }
      ],
      "name": "AuctionStarted",
      "type": "event"
    },
    {
      "anonymous": false,
      "inputs": [
        {
          "indexed": true,
          "internalType": "address",
          "name": "sender",
          "type": "address"
        },
        {
          "indexed": false,
          "internalType": "uint256",
          "name": "amount",
          "type": "uint256"
        }
      ],
      "name": "BidSubmission",
      "type": "event"
    },
    {
      "anonymous": false,
      "inputs": [
        {
          "indexed": false,
          "internalType": "uint8",
          "name": "version",
          "type": "uint8"
        }
      ],
      "name": "Initialized",
      "type": "event"
    },
    {
      "anonymous": false,
      "inputs": [
        {
          "indexed": true,
          "internalType": "bytes32",
          "name": "role",
          "type": "bytes32"
        },
        {
          "indexed": true,
          "internalType": "bytes32",
          "name": "previousAdminRole",
          "type": "bytes32"
        },
        {
          "indexed": true,
          "internalType": "bytes32",
          "name": "newAdminRole",
          "type": "bytes32"
        }
      ],
      "name": "RoleAdminChanged",
      "type": "event"
    },
    {
      "anonymous": false,
      "inputs": [
        {
          "indexed": true,
          "internalType": "bytes32",
          "name": "role",
          "type": "bytes32"
        },
        {
          "indexed": true,
          "internalType": "address",
          "name": "account",
          "type": "address"
        },
        {
          "indexed": true,
          "internalType": "address",
          "name": "sender",
          "type": "address"
        }
      ],
      "name": "RoleGranted",
      "type": "event"
    },
    {
      "anonymous": false,
      "inputs": [
        {
          "indexed": true,
          "internalType": "bytes32",
          "name": "role",
          "type": "bytes32"
        },
        {
          "indexed": true,
          "internalType": "address",
          "name": "account",
          "type": "address"
        },
        {
          "indexed": true,
          "internalType": "address",
          "name": "sender",
          "type": "address"
        }
      ],
      "name": "RoleRevoked",
      "type": "event"
    },
    {
      "anonymous": false,
      "inputs": [
        {
          "indexed": true,
          "internalType": "address",
          "name": "buyer",
          "type": "address"
        },
        {
          "indexed": false,
          "internalType": "uint256",
          "name": "usedBidCoinAmount",
          "type": "uint256"
        },
        {
          "indexed": false,
          "internalType": "uint256",
          "name": "boughtTokenAmount",
          "type": "uint256"
        }
      ],
      "name": "TokenBought",
      "type": "event"
    },
    {
      "anonymous": false,
      "inputs": [
        {
          "indexed": false,
          "internalType": "string",
          "name": "variable",
          "type": "string"
        },
        {
          "indexed": false,
          "internalType": "uint256",
          "name": "value",
          "type": "uint256"
        }
      ],
      "name": "VariableChange",
      "type": "event"
    },
    {
      "inputs": [],
      "name": "DEFAULT_ADMIN_ROLE",
      "outputs": [
        {
          "internalType": "bytes32",
          "name": "",
          "type": "bytes32"
        }
      ],
      "stateMutability": "view",
      "type": "function"
    },
    {
      "inputs": [],
      "name": "PROPOSER_ADMIN_ROLE",
      "outputs": [
        {
          "internalType": "bytes32",
          "name": "",
          "type": "bytes32"
        }
      ],
      "stateMutability": "view",
      "type": "function"
    },
    {
      "inputs": [],
      "name": "PROPOSER_ROLE",
      "outputs": [
        {
          "internalType": "bytes32",
          "name": "",
          "type": "bytes32"
        }
      ],
      "stateMutability": "view",
      "type": "function"
    },
    {
      "inputs": [
        {
          "internalType": "uint256",
          "name": "bidCoinBits",
          "type": "uint256"
        }
      ],
      "name": "bid",
      "outputs": [],
      "stateMutability": "nonpayable",
      "type": "function"
    },
    {
      "inputs": [],
      "name": "bidCoin",
      "outputs": [
        {
          "internalType": "contract WrapperToken",
          "name": "",
          "type": "address"
        }
      ],
      "stateMutability": "view",
      "type": "function"
    },
    {
      "inputs": [],
      "name": "currentRate",
      "outputs": [
        {
          "internalType": "uint256",
          "name": "",
          "type": "uint256"
        }
      ],
      "stateMutability": "view",
      "type": "function"
    },
    {
      "inputs": [],
      "name": "finalRate",
      "outputs": [
        {
          "internalType": "uint256",
          "name": "",
          "type": "uint256"
        }
      ],
      "stateMutability": "view",
      "type": "function"
    },
    {
      "inputs": [],
      "name": "forcedManualFinish",
      "outputs": [],
      "stateMutability": "nonpayable",
      "type": "function"
    },
    {
      "inputs": [],
      "name": "getCurrentRate",
      "outputs": [
        {
          "internalType": "uint256",
          "name": "current",
          "type": "uint256"
        }
      ],
      "stateMutability": "view",
      "type": "function"
    },
    {
      "inputs": [
        {
          "internalType": "bytes32",
          "name": "role",
          "type": "bytes32"
        }
      ],
      "name": "getRoleAdmin",
      "outputs": [
        {
          "internalType": "bytes32",
          "name": "",
          "type": "bytes32"
        }
      ],
      "stateMutability": "view",
      "type": "function"
    },
    {
      "inputs": [],
      "name": "getStatus",
      "outputs": [
        {
          "internalType": "enum Auction.AuctionStatus",
          "name": "",
          "type": "uint8"
        }
      ],
      "stateMutability": "view",
      "type": "function"
    },
    {
      "inputs": [],
      "name": "getTotalSupply",
      "outputs": [
        {
          "internalType": "uint256",
          "name": "timeSupply",
          "type": "uint256"
        }
      ],
      "stateMutability": "view",
      "type": "function"
    },
    {
      "inputs": [
        {
          "internalType": "bytes32",
          "name": "role",
          "type": "bytes32"
        },
        {
          "internalType": "address",
          "name": "account",
          "type": "address"
        }
      ],
      "name": "grantRole",
      "outputs": [],
      "stateMutability": "nonpayable",
      "type": "function"
    },
    {
      "inputs": [
        {
          "internalType": "bytes32",
          "name": "role",
          "type": "bytes32"
        },
        {
          "internalType": "address",
          "name": "account",
          "type": "address"
        }
      ],
      "name": "hasRole",
      "outputs": [
        {
          "internalType": "bool",
          "name": "",
          "type": "bool"
        }
      ],
      "stateMutability": "view",
      "type": "function"
    },
    {
      "inputs": [],
      "name": "initTokens",
      "outputs": [
        {
          "internalType": "uint256",
          "name": "",
          "type": "uint256"
        }
      ],
      "stateMutability": "view",
      "type": "function"
    },
    {
      "inputs": [
        {
          "components": [
            {
              "internalType": "address",
              "name": "token",
              "type": "address"
            },
            {
              "internalType": "address",
              "name": "bidCoin",
              "type": "address"
            },
            {
              "internalType": "uint256",
              "name": "numberOfTokensToBeDistributed",
              "type": "uint256"
            },
            {
              "internalType": "uint256",
              "name": "rate",
              "type": "uint256"
            },
            {
              "internalType": "uint256",
              "name": "finalRate",
              "type": "uint256"
            },
            {
              "internalType": "uint256",
              "name": "limit",
              "type": "uint256"
            }
          ],
          "internalType": "struct Auction.auctionParameters",
          "name": "params",
          "type": "tuple"
        }
      ],
      "name": "initialize",
      "outputs": [],
      "stateMutability": "nonpayable",
      "type": "function"
    },
    {
      "inputs": [],
      "name": "latestEndTime",
      "outputs": [
        {
          "internalType": "uint256",
          "name": "",
          "type": "uint256"
        }
      ],
      "stateMutability": "view",
      "type": "function"
    },
    {
      "inputs": [],
      "name": "manualFinish",
      "outputs": [],
      "stateMutability": "nonpayable",
      "type": "function"
    },
    {
      "inputs": [
        {
          "internalType": "bytes[]",
          "name": "data",
          "type": "bytes[]"
        }
      ],
      "name": "multicall",
      "outputs": [
        {
          "internalType": "bytes[]",
          "name": "results",
          "type": "bytes[]"
        }
      ],
      "stateMutability": "nonpayable",
      "type": "function"
    },
    {
      "inputs": [],
      "name": "numberOfTokensToBeDistributed",
      "outputs": [
        {
          "internalType": "uint256",
          "name": "",
          "type": "uint256"
        }
      ],
      "stateMutability": "view",
      "type": "function"
    },
    {
      "inputs": [
        {
          "internalType": "uint256",
          "name": "pauseTimeInHours",
          "type": "uint256"
        }
      ],
      "name": "pauseAuction",
      "outputs": [],
      "stateMutability": "nonpayable",
      "type": "function"
    },
    {
      "inputs": [],
      "name": "projectToken",
      "outputs": [
        {
          "internalType": "contract ERC20MintableBurnableUpgradeable",
          "name": "",
          "type": "address"
        }
      ],
      "stateMutability": "view",
      "type": "function"
    },
    {
      "inputs": [],
      "name": "projectWallet",
      "outputs": [
        {
          "internalType": "address",
          "name": "",
          "type": "address"
        }
      ],
      "stateMutability": "view",
      "type": "function"
    },
    {
      "inputs": [],
      "name": "rate",
      "outputs": [
        {
          "internalType": "uint256",
          "name": "",
          "type": "uint256"
        }
      ],
      "stateMutability": "view",
      "type": "function"
    },
    {
      "inputs": [
        {
          "internalType": "bytes32",
          "name": "role",
          "type": "bytes32"
        },
        {
          "internalType": "address",
          "name": "account",
          "type": "address"
        }
      ],
      "name": "renounceRole",
      "outputs": [],
      "stateMutability": "nonpayable",
      "type": "function"
    },
    {
      "inputs": [
        {
          "internalType": "bytes32",
          "name": "role",
          "type": "bytes32"
        },
        {
          "internalType": "address",
          "name": "account",
          "type": "address"
        }
      ],
      "name": "revokeRole",
      "outputs": [],
      "stateMutability": "nonpayable",
      "type": "function"
    },
    {
      "inputs": [
        {
          "internalType": "address",
          "name": "wallet",
          "type": "address"
        }
      ],
      "name": "setTeamWallet",
      "outputs": [],
      "stateMutability": "nonpayable",
      "type": "function"
    },
    {
      "inputs": [],
      "name": "soldProjectTokens",
      "outputs": [
        {
          "internalType": "uint256",
          "name": "",
          "type": "uint256"
        }
      ],
      "stateMutability": "view",
      "type": "function"
    },
    {
      "inputs": [
        {
          "internalType": "uint256",
          "name": "maximumAuctionTimeInHours",
          "type": "uint256"
        }
      ],
      "name": "startAuction",
      "outputs": [],
      "stateMutability": "nonpayable",
      "type": "function"
    },
    {
      "inputs": [],
      "name": "startTime",
      "outputs": [
        {
          "internalType": "uint256",
          "name": "",
          "type": "uint256"
        }
      ],
      "stateMutability": "view",
      "type": "function"
    },
    {
      "inputs": [],
      "name": "status",
      "outputs": [
        {
          "internalType": "enum Auction.AuctionStatus",
          "name": "",
          "type": "uint8"
        }
      ],
      "stateMutability": "view",
      "type": "function"
    },
    {
      "inputs": [
        {
          "internalType": "bytes4",
          "name": "interfaceId",
          "type": "bytes4"
        }
      ],
      "name": "supportsInterface",
      "outputs": [
        {
          "internalType": "bool",
          "name": "",
          "type": "bool"
        }
      ],
      "stateMutability": "view",
      "type": "function"
    },
    {
      "inputs": [],
      "name": "totalDepositedSucoins",
      "outputs": [
        {
          "internalType": "uint256",
          "name": "",
          "type": "uint256"
        }
      ],
      "stateMutability": "view",
      "type": "function"
    }
  ],
  "bytecode": "0x60806040523480156200001157600080fd5b50600054610100900460ff1615808015620000335750600054600160ff909116105b8062000063575062000050306200013d60201b62000dd31760201c565b15801562000063575060005460ff166001145b620000cb5760405162461bcd60e51b815260206004820152602e60248201527f496e697469616c697a61626c653a20636f6e747261637420697320616c72656160448201526d191e481a5b9a5d1a585b1a5e995960921b606482015260840160405180910390fd5b6000805460ff191660011790558015620000ef576000805461ff0019166101001790555b801562000136576000805461ff0019169055604051600181527f7f26b83ff96e1f2b6a682f133852f6798a09c465da95921460cefb38474024989060200160405180910390a15b506200014c565b6001600160a01b03163b151590565b612742806200015c6000396000f3fe608060405234801561001057600080fd5b50600436106101fb5760003560e01c80634e69d5601161011a578063a217fddf116100ad578063beb08ab91161007c578063beb08ab9146103fd578063c4e41b2214610415578063d547741f1461041d578063f7fb07b014610430578063f9f8bdb71461043857600080fd5b8063a217fddf146103b9578063a51993db146103c1578063ac9650d8146103d4578063b296558d146103f457600080fd5b806378e97925116100e957806378e979251461037f5780638b3e56e1146103885780638f61f4f51461039157806391d14854146103a657600080fd5b80634e69d56014610352578063610b4f361461035a57806363c5f7c11461036d57806375caa9ef1461037657600080fd5b8063228e248e116101925780632f2ff15d116101615780632f2ff15d146102ee57806336568abe14610301578063454a2ab3146103145780634b60ce771461032757600080fd5b8063228e248e146102b1578063248a9ca3146102b957806327aa7e8a146102dc5780632c4e722e146102e557600080fd5b80631a87a934116101ce5780631a87a934146102585780631d6833aa1461026b578063200d2ed21461028e57806321106109146102a857600080fd5b806301ffc9a714610200578063065de74c146102285780630dda507e1461023d5780631525ff7d14610245575b600080fd5b61021361020e366004612128565b610441565b60405190151581526020015b60405180910390f35b61023b610236366004612152565b610478565b005b61023b61048a565b61023b610253366004612182565b610579565b61023b61026636600461219d565b6105ba565b6102806000805160206126ed83398151915281565b60405190815260200161021f565b609b5461029b9060ff1681565b60405161021f91906121cb565b61028060a25481565b61023b6106e8565b6102806102c7366004612152565b60009081526065602052604090206001015490565b61028060a45481565b61028060a15481565b61023b6102fc3660046121f3565b610764565b61023b61030f3660046121f3565b61078e565b61023b610322366004612152565b610808565b609d5461033a906001600160a01b031681565b6040516001600160a01b03909116815260200161021f565b61029b610a8f565b61023b610368366004612152565b610afa565b610280609c5481565b61028060995481565b61028060985481565b610280609f5481565b6102806000805160206126cd83398151915281565b6102136103b43660046121f3565b610b0b565b610280600081565b60975461033a906001600160a01b031681565b6103e76103e236600461221f565b610b36565b60405161021f91906122e4565b610280609e5481565b609b5461033a9061010090046001600160a01b031681565b610280610c2b565b61023b61042b3660046121f3565b610cf3565b610280610d18565b61028060a05481565b60006001600160e01b03198216637965db0b60e01b148061047257506301ffc9a760e01b6001600160e01b03198316145b92915050565b61048181610de2565b5060995460a355565b6002609b5460ff1660038111156104a3576104a36121b5565b1480156104b25750609a544210155b156104c557609b805460ff191660011790555b6001609b5460ff1660038111156104de576104de6121b5565b1480156104ff5750609954421015806104ff5750609e546104fd610c2b565b145b1561050c5761050c610e6a565b6003609b5460ff166003811115610525576105256121b5565b146105775760405162461bcd60e51b815260206004820152601c60248201527f41756374696f6e20686173206e6f742066696e6973686564207965740000000060448201526064015b60405180910390fd5b565b6000805160206126ed83398151915261059181610f8b565b50609b80546001600160a01b0390921661010002610100600160a81b0319909216919091179055565b600054610100900460ff16158080156105da5750600054600160ff909116105b806105f45750303b1580156105f4575060005460ff166001145b6106575760405162461bcd60e51b815260206004820152602e60248201527f496e697469616c697a61626c653a20636f6e747261637420697320616c72656160448201526d191e481a5b9a5d1a585b1a5e995960921b606482015260840161056e565b6000805460ff19166001179055801561067a576000805461ff0019166101001790555b61068382610f95565b61068c82610fce565b61069582611003565b61069d6110e6565b80156106e4576000805461ff0019169055604051600181527f7f26b83ff96e1f2b6a682f133852f6798a09c465da95921460cefb3847402498906020015b60405180910390a15b5050565b60006106f381610f8b565b6003609b5460ff16600381111561070c5761070c6121b5565b036107595760405162461bcd60e51b815260206004820152601a60248201527f546869732041756374696f6e20616c726561647920656e646564000000000000604482015260640161056e565b610761610e6a565b50565b60008281526065602052604090206001015461077f81610f8b565b6107898383611115565b505050565b6001600160a01b03811633146107fe5760405162461bcd60e51b815260206004820152602f60248201527f416363657373436f6e74726f6c3a2063616e206f6e6c792072656e6f756e636560448201526e103937b632b9903337b91039b2b63360891b606482015260840161056e565b6106e4828261119b565b6002609b5460ff166003811115610821576108216121b5565b1480156108305750609a544210155b1561084357609b805460ff191660011790555b6001609b5460ff16600381111561085c5761085c6121b5565b14801561087d57506099544210158061087d5750609e5461087b610c2b565b145b1561088a57610761610e6a565b6001609b5460ff1660038111156108a3576108a36121b5565b146108e95760405162461bcd60e51b815260206004820152601660248201527541756374696f6e206973206e6f742072756e6e696e6760501b604482015260640161056e565b609b5461010090046001600160a01b03166109465760405162461bcd60e51b815260206004820152601960248201527f50726f6a6563742077616c6c6574206973206e6f742073657400000000000000604482015260640161056e565b609b5461010090046001600160a01b031633036109a55760405162461bcd60e51b815260206004820152601960248201527f50726f6a6563742077616c6c65742063616e6e6f742062696400000000000000604482015260640161056e565b6109bd6000805160206126cd83398151915233610b0b565b15610a015760405162461bcd60e51b8152602060048201526014602482015273141c9bdc1bdcd95c9cc818d85b9b9bdd08189a5960621b604482015260640161056e565b60008111610a515760405162461bcd60e51b815260206004820152601a60248201527f596f75206e65656420746f2062696420736f6d6520636f696e73000000000000604482015260640161056e565b60405181815233907f9c89e828e6cee6374b68147c9e753e41746aad98ba255a527a4fc0ac1868bff99060200160405180910390a261076181611202565b609b5460009060ff166002816003811115610aac57610aac6121b5565b148015610abb5750609a544210155b15610ac4575060015b6001609b5460ff166003811115610add57610add6121b5565b148015610aec57506099544210155b15610af5575060035b919050565b610b026113ae565b61076181611436565b60009182526065602090815260408084206001600160a01b0393909316845291905290205460ff1690565b60608167ffffffffffffffff811115610b5157610b51612346565b604051908082528060200260200182016040528015610b8457816020015b6060815260200190600190039081610b6f5790505b50905060005b82811015610c2457610bf430858584818110610ba857610ba861235c565b9050602002810190610bba9190612372565b8080601f0160208091040260200160405190810160405280939291908181526020018383808284376000920191909152506115e592505050565b828281518110610c0657610c0661235c565b60200260200101819052508080610c1c906123d6565b915050610b8a565b5092915050565b60008060985460a354610c3e91906123ef565b9050609854600003610c5257505060a45490565b6003609b5460ff166003811115610c6b57610c6b6121b5565b1480610c7957506099544210155b15610c86575050609e5490565b609a54421015610c98575050609f5490565b60008142609954610ca991906123ef565b610cb390846123ef565b60a454610cc09190612402565b610cca9190612419565b60a454610cd791906123ef565b9050609e548110610ce85780610cec565b609e545b9250505090565b600082815260656020526040902060010154610d0e81610f8b565b610789838361119b565b60008060985460a354610d2b91906123ef565b9050609854600003610d3f57505060a15490565b6099544210610d5057505060a25490565b6003609b5460ff166003811115610d6957610d696121b5565b1480610d765750609a5442105b15610d8357505060a05490565b8042609954610d9291906123ef565b610d9c90836123ef565b60a25460a154610dac91906123ef565b610db69190612402565b610dc09190612419565b60a154610dcd91906123ef565b91505090565b6001600160a01b03163b151590565b6000805160206126cd833981519152610dfa81610f8b565b610e0382611611565b609b805460ff1916600190811790915542609855610e22908390612402565b610e2c904261243b565b60998190556098546040517ff8910119ddbef5440c54532457dfe8250a10ed39e583292818f44724b9e1344c926106db928252602082015260400190565b609b805460ff19166003179055609d546040516370a0823160e01b81523060048201526000916001600160a01b0316906370a0823190602401602060405180830381865afa158015610ec0573d6000803e3d6000fd5b505050506040513d601f19601f82011682018060405250810190610ee4919061244e565b90508015610f4b57609d54604051630852cd8d60e31b8152600481018390526001600160a01b03909116906342966c6890602401600060405180830381600087803b158015610f3257600080fd5b505af1158015610f46573d6000803e3d6000fd5b505050505b60a0546040805142815260208101929092527fa26f614dfadbd6fab0e2c34abdab71ad292b06a4b47d63fda8dc3ccb85cb5209910160405180910390a150565b61076181336116d8565b600054610100900460ff16610fbc5760405162461bcd60e51b815260040161056e90612467565b610fc58161173c565b61076181611774565b600054610100900460ff16610ff55760405162461bcd60e51b815260040161056e90612467565b6060013560a181905560a055565b600054610100900460ff1661102a5760405162461bcd60e51b815260040161056e90612467565b608081013560a28190556110805760405162461bcd60e51b815260206004820181905260248201527f46696e616c2052617465206d75737420626520686967686572207468616e2030604482015260640161056e565b60a15460a254106107615760405162461bcd60e51b815260206004820152602a60248201527f46696e616c2052617465206d757374206265206c6f776572207468616e20496e604482015269697469616c207261746560b01b606482015260840161056e565b600054610100900460ff1661110d5760405162461bcd60e51b815260040161056e90612467565b609f5460a455565b61111f8282610b0b565b6106e45760008281526065602090815260408083206001600160a01b03851684529091529020805460ff191660011790556111573390565b6001600160a01b0316816001600160a01b0316837f2f8788117e7eff1d82e926ec794901d17c78024a50270940304540a733656f0d60405160405180910390a45050565b6111a58282610b0b565b156106e45760008281526065602090815260408083206001600160a01b0385168085529252808320805460ff1916905551339285917ff6391f5c32d9c69d2a47ea670b442974b53935d1edc7fd64eb21e047a839171b9190a45050565b61120a6113ae565b6000609e54609f5461121c91906123ef565b90506000811161126e5760405162461bcd60e51b815260206004820152601d60248201527f4e6f20636f696e73206c65667420666f72207468652061756374696f6e000000604482015260640161056e565b61127a8260a05461184b565b91506000609d60009054906101000a90046001600160a01b03166001600160a01b031663313ce5676040518163ffffffff1660e01b8152600401602060405180830381865afa1580156112d1573d6000803e3d6000fd5b505050506040513d601f19601f820116820180604052508101906112f591906124b2565b61130090600a6125b9565b8260a05461130e9190612402565b6113189190612419565b90506113248282612419565b83101561138d5760405162461bcd60e51b815260206004820152603160248201527f426964636f696e20616d6f756e74206c6f776572207468616e2072657175697260448201527032b2103a3790313abc9030903a37b5b2b760791b606482015260840161056e565b8083106113a55761139d816118b5565b610789610e6a565b610789836118b5565b6113b6611a99565b60006113c0610c2b565b9050609f5481146107615760408051818152601d818301527f6e756d6265724f66546f6b656e73546f4265446973747269627574656400000060608201526020810183905290517fb325f51492db6a3e2d42f7d2c7721750691a0cf7e6c3e4bd2b940b35282573809181900360800190a1609f55565b6002609b5460ff16600381111561144f5761144f6121b5565b14801561145e5750609a544210155b1561147157609b805460ff191660011790555b6001609b5460ff16600381111561148a5761148a6121b5565b1480156114ab5750609954421015806114ab5750609e546114a9610c2b565b145b156114b857610761610e6a565b60006114c381610f8b565b6001609b5460ff1660038111156114dc576114dc6121b5565b146115225760405162461bcd60e51b815260206004820152601660248201527541756374696f6e206973206e6f742072756e6e696e6760501b604482015260640161056e565b600082116115725760405162461bcd60e51b815260206004820152601960248201527f50617573652054696d65206d757374206265206c6f6e67657200000000000000604482015260640161056e565b61157d826001612402565b611587904261243b565b609a819055609954429161159b919061243b565b6115a591906123ef565b609955609b805460ff191660021790556040518281527fbfbe0eeb9851e98d21f973d30f11b8dacd485bc42ea47fe58b3335603741543f906020016106db565b606061160a83836040518060600160405280602781526020016126a660279139611b07565b9392505050565b6000609b5460ff16600381111561162a5761162a6121b5565b146116885760405162461bcd60e51b815260206004820152602860248201527f41756374696f6e20616c72656164792073746172746564206f7220616c726561604482015267191e48195b99195960c21b606482015260840161056e565b600081116107615760405162461bcd60e51b815260206004820152601b60248201527f41756374696f6e2054696d65206d757374206265206c6f6e6765720000000000604482015260640161056e565b6116e28282610b0b565b6106e4576116fa816001600160a01b03166014611be4565b611705836020611be4565b6040516020016117169291906125c8565b60408051601f198184030181529082905262461bcd60e51b825261056e9160040161263d565b600054610100900460ff166117635760405162461bcd60e51b815260040161056e90612467565b61176b611d80565b61076181611da7565b600054610100900460ff1661179b5760405162461bcd60e51b815260040161056e90612467565b60008160400135116118155760405162461bcd60e51b815260206004820152603c60248201527f41756374696f6e2063616e6e6f742068617070656e206265636175736520746860448201527f65726520617265206e6f20746f6b656e7320746f2061756374696f6e00000000606482015260840161056e565b6118226020820182612182565b609d80546001600160a01b0319166001600160a01b039290921691909117905560400135609f55565b600080611897838461187287609760009054906101000a90046001600160a01b0316611e54565b61187c9190612419565b6118869190612402565b6097546001600160a01b0316611ecd565b6118a190856123ef565b90506118ad81856123ef565b949350505050565b609754604051636eb1769f60e11b81523360048201523060248201526000916001600160a01b03169063dd62ed3e90604401602060405180830381865afa158015611904573d6000803e3d6000fd5b505050506040513d601f19601f82011682018060405250810190611928919061244e565b9050818110156119895760405162461bcd60e51b815260206004820152602660248201527f417070726f7665642062696420636f696e20616d6f756e74206973206e6f74206044820152650cadcdeeaced60d31b606482015260840161056e565b609754609b546040516323b872dd60e01b81523360048201526001600160a01b0361010090920482166024820152604481018590529116906323b872dd906064016020604051808303816000875af11580156119e9573d6000803e3d6000fd5b505050506040513d601f19601f82011682018060405250810190611a0d9190612650565b5081609c6000828254611a20919061243b565b9091555050609c546040517fb325f51492db6a3e2d42f7d2c7721750691a0cf7e6c3e4bd2b940b352825738091611a8891604080825260159082015274746f74616c4465706f73697465645375636f696e7360581b6060820152602081019190915260800190565b60405180910390a16106e482611f46565b6000611aa3610d18565b905060a05481146107615760408051818152600b818301526a63757272656e745261746560a81b60608201526020810183905290517fb325f51492db6a3e2d42f7d2c7721750691a0cf7e6c3e4bd2b940b35282573809181900360800190a160a055565b60606001600160a01b0384163b611b6f5760405162461bcd60e51b815260206004820152602660248201527f416464726573733a2064656c65676174652063616c6c20746f206e6f6e2d636f6044820152651b9d1c9858dd60d21b606482015260840161056e565b600080856001600160a01b031685604051611b8a9190612672565b600060405180830381855af49150503d8060008114611bc5576040519150601f19603f3d011682016040523d82523d6000602084013e611bca565b606091505b5091509150611bda8282866120a4565b9695505050505050565b60606000611bf3836002612402565b611bfe90600261243b565b67ffffffffffffffff811115611c1657611c16612346565b6040519080825280601f01601f191660200182016040528015611c40576020820181803683370190505b509050600360fc1b81600081518110611c5b57611c5b61235c565b60200101906001600160f81b031916908160001a905350600f60fb1b81600181518110611c8a57611c8a61235c565b60200101906001600160f81b031916908160001a9053506000611cae846002612402565b611cb990600161243b565b90505b6001811115611d31576f181899199a1a9b1b9c1cb0b131b232b360811b85600f1660108110611ced57611ced61235c565b1a60f81b828281518110611d0357611d0361235c565b60200101906001600160f81b031916908160001a90535060049490941c93611d2a8161268e565b9050611cbc565b50831561160a5760405162461bcd60e51b815260206004820181905260248201527f537472696e67733a20686578206c656e67746820696e73756666696369656e74604482015260640161056e565b600054610100900460ff166105775760405162461bcd60e51b815260040161056e90612467565b600054610100900460ff16611dce5760405162461bcd60e51b815260040161056e90612467565b611dd9600033611115565b611dff6000805160206126cd8339815191526000805160206126ed8339815191526120dd565b611e176000805160206126ed83398151915233611115565b609b805460ff19169055611e316040820160208301612182565b609780546001600160a01b0319166001600160a01b039290921691909117905550565b6000816001600160a01b031663313ce5676040518163ffffffff1660e01b8152600401602060405180830381865afa158015611e94573d6000803e3d6000fd5b505050506040513d601f19601f82011682018060405250810190611eb891906124b2565b611ec390600a6125b9565b61160a9084612402565b6000816001600160a01b031663313ce5676040518163ffffffff1660e01b8152600401602060405180830381865afa158015611f0d573d6000803e3d6000fd5b505050506040513d601f19601f82011682018060405250810190611f3191906124b2565b611f3c90600a6125b9565b61160a9084612419565b60a054609d546040805163313ce56760e01b81529051600093926001600160a01b03169163313ce5679160048083019260209291908290030181865afa158015611f94573d6000803e3d6000fd5b505050506040513d601f19601f82011682018060405250810190611fb891906124b2565b611fc390600a6125b9565b611fcd9084612402565b611fd79190612419565b609d5460405163a9059cbb60e01b8152336004820152602481018390529192506001600160a01b03169063a9059cbb906044016020604051808303816000875af1158015612029573d6000803e3d6000fd5b505050506040513d601f19601f8201168201806040525081019061204d9190612650565b5080609e6000828254612060919061243b565b9091555050604080518381526020810183905233917f28cab0d660ed8aedd61a8c9db00b97f6a2d67e07d87795994f440b18bc5f1aa3910160405180910390a25050565b606083156120b357508161160a565b8251156120c35782518084602001fd5b8160405162461bcd60e51b815260040161056e919061263d565b600082815260656020526040808220600101805490849055905190918391839186917fbd79b86ffe0ab8e8776151514217cd7cacd52c909f66475c3af44e129f0b00ff9190a4505050565b60006020828403121561213a57600080fd5b81356001600160e01b03198116811461160a57600080fd5b60006020828403121561216457600080fd5b5035919050565b80356001600160a01b0381168114610af557600080fd5b60006020828403121561219457600080fd5b61160a8261216b565b600060c082840312156121af57600080fd5b50919050565b634e487b7160e01b600052602160045260246000fd5b60208101600483106121ed57634e487b7160e01b600052602160045260246000fd5b91905290565b6000806040838503121561220657600080fd5b823591506122166020840161216b565b90509250929050565b6000806020838503121561223257600080fd5b823567ffffffffffffffff8082111561224a57600080fd5b818501915085601f83011261225e57600080fd5b81358181111561226d57600080fd5b8660208260051b850101111561228257600080fd5b60209290920196919550909350505050565b60005b838110156122af578181015183820152602001612297565b50506000910152565b600081518084526122d0816020860160208601612294565b601f01601f19169290920160200192915050565b6000602080830181845280855180835260408601915060408160051b870101925083870160005b8281101561233957603f198886030184526123278583516122b8565b9450928501929085019060010161230b565b5092979650505050505050565b634e487b7160e01b600052604160045260246000fd5b634e487b7160e01b600052603260045260246000fd5b6000808335601e1984360301811261238957600080fd5b83018035915067ffffffffffffffff8211156123a457600080fd5b6020019150368190038213156123b957600080fd5b9250929050565b634e487b7160e01b600052601160045260246000fd5b6000600182016123e8576123e86123c0565b5060010190565b81810381811115610472576104726123c0565b8082028115828204841417610472576104726123c0565b60008261243657634e487b7160e01b600052601260045260246000fd5b500490565b80820180821115610472576104726123c0565b60006020828403121561246057600080fd5b5051919050565b6020808252602b908201527f496e697469616c697a61626c653a20636f6e7472616374206973206e6f74206960408201526a6e697469616c697a696e6760a81b606082015260800190565b6000602082840312156124c457600080fd5b815160ff8116811461160a57600080fd5b600181815b808511156125105781600019048211156124f6576124f66123c0565b8085161561250357918102915b93841c93908002906124da565b509250929050565b60008261252757506001610472565b8161253457506000610472565b816001811461254a576002811461255457612570565b6001915050610472565b60ff841115612565576125656123c0565b50506001821b610472565b5060208310610133831016604e8410600b8410161715612593575081810a610472565b61259d83836124d5565b80600019048211156125b1576125b16123c0565b029392505050565b600061160a60ff841683612518565b7f416363657373436f6e74726f6c3a206163636f756e7420000000000000000000815260008351612600816017850160208801612294565b7001034b99036b4b9b9b4b733903937b6329607d1b6017918401918201528351612631816028840160208801612294565b01602801949350505050565b60208152600061160a60208301846122b8565b60006020828403121561266257600080fd5b8151801515811461160a57600080fd5b60008251612684818460208701612294565b9190910192915050565b60008161269d5761269d6123c0565b50600019019056fe416464726573733a206c6f772d6c6576656c2064656c65676174652063616c6c206661696c6564b09aa5aeb3702cfd50b6b62bc4532604938f21248a27a1d5ca736082b6819cc19989001599306562c281f170efd64bd922b630d9e66fafc71949876c6ceb48c6a2646970667358221220bedd1d4f4b7dc1e55b29eae8fdd9fe5ac3f0a27467f464239e1605764923466764736f6c63430008110033",
  "linkReferences": {},
  "deployedLinkReferences": {}
}