{
  "_format": "hh-sol-artifact-1",
  "contractName": "SimpleCloner",
  "sourceName": "contracts/test/SımpleCloner.sol",
  "abi": [
    {
      "inputs": [],
      "stateMutability": "nonpayable",
      "type": "constructor"
    },
    {
      "anonymous": false,
      "inputs": [
        {
          "indexed": true,
          "internalType": "address",
          "name": "_from",
          "type": "address"
        },
        {
          "indexed": true,
          "internalType": "address",
          "name": "_to",
          "type": "address"
        }
      ],
      "name": "ContractCloned",
      "type": "event"
    },
    {
      "inputs": [
        {
          "internalType": "address",
          "name": "template",
          "type": "address"
        }
      ],
      "name": "clone",
      "outputs": [
        {
          "internalType": "address",
          "name": "",
          "type": "address"
        }
      ],
      "stateMutability": "nonpayable",
      "type": "function"
    }
  ],
  "bytecode": "0x608060405234801561001057600080fd5b506101ba806100206000396000f3fe608060405234801561001057600080fd5b506004361061002b5760003560e01c80638124b78e14610030575b600080fd5b61004361003e366004610154565b61005f565b6040516001600160a01b03909116815260200160405180910390f35b60008061006b836100b3565b9050806001600160a01b0316836001600160a01b03167fde1be40e6f5223239d36c21777a933c3ad0ef18adb238318e975ff7ecebffd5060405160405180910390a392915050565b6000604051733d602d80600a3d3981f3363d3d373d3d3d363d7360601b81528260601b60148201526e5af43d82803e903d91602b57fd5bf360881b60288201526037816000f09150506001600160a01b03811661014f5760405162461bcd60e51b8152602060048201526016602482015275115490cc4c4d8dce8818dc99585d194819985a5b195960521b604482015260640160405180910390fd5b919050565b60006020828403121561016657600080fd5b81356001600160a01b038116811461017d57600080fd5b939250505056fea264697066735822122042350e1decfbde24fa46146fe1e94bf33277da9c22ba33640c84faa464d86f0d64736f6c63430008110033",
  "linkReferences": {},
  "deployedLinkReferences": {}
}