{
  "_format": "hh-sol-artifact-1",
  "contractName": "UncappedAuction",
  "sourceName": "contracts/UpgradeableAuctions/UncappedAuction.sol",
  "abi": [
    {
      "anonymous": false,
      "inputs": [
        {
          "indexed": false,
          "internalType": "uint256",
          "name": "end",
          "type": "uint256"
        },
        {
          "indexed": false,
          "internalType": "uint256",
          "name": "finalPrice",
          "type": "uint256"
        }
      ],
      "name": "AuctionFinished",
      "type": "event"
    },
    {
      "anonymous": false,
      "inputs": [
        {
          "indexed": false,
          "internalType": "uint256",
          "name": "pauseDuration",
          "type": "uint256"
        }
      ],
      "name": "AuctionPaused",
      "type": "event"
    },
    {
      "anonymous": false,
      "inputs": [
        {
          "indexed": false,
          "internalType": "uint256",
          "name": "start",
          "type": "uint256"
        },
        {
          "indexed": false,
          "internalType": "uint256",
          "name": "end",
          "type": "uint256"
        }
      ],
      "name": "AuctionStarted",
      "type": "event"
    },
    {
      "anonymous": false,
      "inputs": [
        {
          "indexed": true,
          "internalType": "address",
          "name": "sender",
          "type": "address"
        },
        {
          "indexed": false,
          "internalType": "uint256",
          "name": "amount",
          "type": "uint256"
        }
      ],
      "name": "BidSubmission",
      "type": "event"
    },
    {
      "anonymous": false,
      "inputs": [
        {
          "indexed": false,
          "internalType": "uint8",
          "name": "version",
          "type": "uint8"
        }
      ],
      "name": "Initialized",
      "type": "event"
    },
    {
      "anonymous": false,
      "inputs": [
        {
          "indexed": true,
          "internalType": "bytes32",
          "name": "role",
          "type": "bytes32"
        },
        {
          "indexed": true,
          "internalType": "bytes32",
          "name": "previousAdminRole",
          "type": "bytes32"
        },
        {
          "indexed": true,
          "internalType": "bytes32",
          "name": "newAdminRole",
          "type": "bytes32"
        }
      ],
      "name": "RoleAdminChanged",
      "type": "event"
    },
    {
      "anonymous": false,
      "inputs": [
        {
          "indexed": true,
          "internalType": "bytes32",
          "name": "role",
          "type": "bytes32"
        },
        {
          "indexed": true,
          "internalType": "address",
          "name": "account",
          "type": "address"
        },
        {
          "indexed": true,
          "internalType": "address",
          "name": "sender",
          "type": "address"
        }
      ],
      "name": "RoleGranted",
      "type": "event"
    },
    {
      "anonymous": false,
      "inputs": [
        {
          "indexed": true,
          "internalType": "bytes32",
          "name": "role",
          "type": "bytes32"
        },
        {
          "indexed": true,
          "internalType": "address",
          "name": "account",
          "type": "address"
        },
        {
          "indexed": true,
          "internalType": "address",
          "name": "sender",
          "type": "address"
        }
      ],
      "name": "RoleRevoked",
      "type": "event"
    },
    {
      "anonymous": false,
      "inputs": [
        {
          "indexed": true,
          "internalType": "address",
          "name": "buyer",
          "type": "address"
        },
        {
          "indexed": false,
          "internalType": "uint256",
          "name": "usedBidCoinAmount",
          "type": "uint256"
        },
        {
          "indexed": false,
          "internalType": "uint256",
          "name": "boughtTokenAmount",
          "type": "uint256"
        }
      ],
      "name": "TokenBought",
      "type": "event"
    },
    {
      "anonymous": false,
      "inputs": [
        {
          "indexed": false,
          "internalType": "string",
          "name": "variable",
          "type": "string"
        },
        {
          "indexed": false,
          "internalType": "uint256",
          "name": "value",
          "type": "uint256"
        }
      ],
      "name": "VariableChange",
      "type": "event"
    },
    {
      "inputs": [],
      "name": "DEFAULT_ADMIN_ROLE",
      "outputs": [
        {
          "internalType": "bytes32",
          "name": "",
          "type": "bytes32"
        }
      ],
      "stateMutability": "view",
      "type": "function"
    },
    {
      "inputs": [],
      "name": "MINTER_ROLE",
      "outputs": [
        {
          "internalType": "bytes32",
          "name": "",
          "type": "bytes32"
        }
      ],
      "stateMutability": "view",
      "type": "function"
    },
    {
      "inputs": [],
      "name": "PROPOSER_ADMIN_ROLE",
      "outputs": [
        {
          "internalType": "bytes32",
          "name": "",
          "type": "bytes32"
        }
      ],
      "stateMutability": "view",
      "type": "function"
    },
    {
      "inputs": [],
      "name": "PROPOSER_ROLE",
      "outputs": [
        {
          "internalType": "bytes32",
          "name": "",
          "type": "bytes32"
        }
      ],
      "stateMutability": "view",
      "type": "function"
    },
    {
      "inputs": [
        {
          "internalType": "uint256",
          "name": "bidCoinBits",
          "type": "uint256"
        }
      ],
      "name": "bid",
      "outputs": [],
      "stateMutability": "nonpayable",
      "type": "function"
    },
    {
      "inputs": [],
      "name": "bidCoin",
      "outputs": [
        {
          "internalType": "contract WrapperToken",
          "name": "",
          "type": "address"
        }
      ],
      "stateMutability": "view",
      "type": "function"
    },
    {
      "inputs": [],
      "name": "forcedManualFinish",
      "outputs": [],
      "stateMutability": "nonpayable",
      "type": "function"
    },
    {
      "inputs": [
        {
          "internalType": "bytes32",
          "name": "role",
          "type": "bytes32"
        }
      ],
      "name": "getRoleAdmin",
      "outputs": [
        {
          "internalType": "bytes32",
          "name": "",
          "type": "bytes32"
        }
      ],
      "stateMutability": "view",
      "type": "function"
    },
    {
      "inputs": [],
      "name": "getStatus",
      "outputs": [
        {
          "internalType": "enum Auction.AuctionStatus",
          "name": "",
          "type": "uint8"
        }
      ],
      "stateMutability": "view",
      "type": "function"
    },
    {
      "inputs": [
        {
          "internalType": "bytes32",
          "name": "role",
          "type": "bytes32"
        },
        {
          "internalType": "address",
          "name": "account",
          "type": "address"
        }
      ],
      "name": "grantRole",
      "outputs": [],
      "stateMutability": "nonpayable",
      "type": "function"
    },
    {
      "inputs": [
        {
          "internalType": "bytes32",
          "name": "role",
          "type": "bytes32"
        },
        {
          "internalType": "address",
          "name": "account",
          "type": "address"
        }
      ],
      "name": "hasRole",
      "outputs": [
        {
          "internalType": "bool",
          "name": "",
          "type": "bool"
        }
      ],
      "stateMutability": "view",
      "type": "function"
    },
    {
      "inputs": [
        {
          "components": [
            {
              "internalType": "address",
              "name": "token",
              "type": "address"
            },
            {
              "internalType": "address",
              "name": "bidCoin",
              "type": "address"
            },
            {
              "internalType": "uint256",
              "name": "numberOfTokensToBeDistributed",
              "type": "uint256"
            },
            {
              "internalType": "uint256",
              "name": "rate",
              "type": "uint256"
            },
            {
              "internalType": "uint256",
              "name": "finalRate",
              "type": "uint256"
            },
            {
              "internalType": "uint256",
              "name": "limit",
              "type": "uint256"
            }
          ],
          "internalType": "struct Auction.auctionParameters",
          "name": "params",
          "type": "tuple"
        }
      ],
      "name": "initialize",
      "outputs": [],
      "stateMutability": "nonpayable",
      "type": "function"
    },
    {
      "inputs": [],
      "name": "latestEndTime",
      "outputs": [
        {
          "internalType": "uint256",
          "name": "",
          "type": "uint256"
        }
      ],
      "stateMutability": "view",
      "type": "function"
    },
    {
      "inputs": [],
      "name": "manualFinish",
      "outputs": [],
      "stateMutability": "nonpayable",
      "type": "function"
    },
    {
      "inputs": [
        {
          "internalType": "bytes[]",
          "name": "data",
          "type": "bytes[]"
        }
      ],
      "name": "multicall",
      "outputs": [
        {
          "internalType": "bytes[]",
          "name": "results",
          "type": "bytes[]"
        }
      ],
      "stateMutability": "nonpayable",
      "type": "function"
    },
    {
      "inputs": [],
      "name": "numberOfTokensToBeDistributed",
      "outputs": [
        {
          "internalType": "uint256",
          "name": "",
          "type": "uint256"
        }
      ],
      "stateMutability": "view",
      "type": "function"
    },
    {
      "inputs": [
        {
          "internalType": "uint256",
          "name": "pauseTimeInHours",
          "type": "uint256"
        }
      ],
      "name": "pauseAuction",
      "outputs": [],
      "stateMutability": "nonpayable",
      "type": "function"
    },
    {
      "inputs": [],
      "name": "projectToken",
      "outputs": [
        {
          "internalType": "contract ERC20MintableBurnableUpgradeable",
          "name": "",
          "type": "address"
        }
      ],
      "stateMutability": "view",
      "type": "function"
    },
    {
      "inputs": [],
      "name": "projectWallet",
      "outputs": [
        {
          "internalType": "address",
          "name": "",
          "type": "address"
        }
      ],
      "stateMutability": "view",
      "type": "function"
    },
    {
      "inputs": [],
      "name": "rate",
      "outputs": [
        {
          "internalType": "uint256",
          "name": "",
          "type": "uint256"
        }
      ],
      "stateMutability": "view",
      "type": "function"
    },
    {
      "inputs": [
        {
          "internalType": "bytes32",
          "name": "role",
          "type": "bytes32"
        },
        {
          "internalType": "address",
          "name": "account",
          "type": "address"
        }
      ],
      "name": "renounceRole",
      "outputs": [],
      "stateMutability": "nonpayable",
      "type": "function"
    },
    {
      "inputs": [
        {
          "internalType": "bytes32",
          "name": "role",
          "type": "bytes32"
        },
        {
          "internalType": "address",
          "name": "account",
          "type": "address"
        }
      ],
      "name": "revokeRole",
      "outputs": [],
      "stateMutability": "nonpayable",
      "type": "function"
    },
    {
      "inputs": [
        {
          "internalType": "address",
          "name": "wallet",
          "type": "address"
        }
      ],
      "name": "setTeamWallet",
      "outputs": [],
      "stateMutability": "nonpayable",
      "type": "function"
    },
    {
      "inputs": [],
      "name": "soldProjectTokens",
      "outputs": [
        {
          "internalType": "uint256",
          "name": "",
          "type": "uint256"
        }
      ],
      "stateMutability": "view",
      "type": "function"
    },
    {
      "inputs": [
        {
          "internalType": "uint256",
          "name": "maximumAuctionTimeInHours",
          "type": "uint256"
        }
      ],
      "name": "startAuction",
      "outputs": [],
      "stateMutability": "nonpayable",
      "type": "function"
    },
    {
      "inputs": [],
      "name": "startTime",
      "outputs": [
        {
          "internalType": "uint256",
          "name": "",
          "type": "uint256"
        }
      ],
      "stateMutability": "view",
      "type": "function"
    },
    {
      "inputs": [],
      "name": "status",
      "outputs": [
        {
          "internalType": "enum Auction.AuctionStatus",
          "name": "",
          "type": "uint8"
        }
      ],
      "stateMutability": "view",
      "type": "function"
    },
    {
      "inputs": [
        {
          "internalType": "bytes4",
          "name": "interfaceId",
          "type": "bytes4"
        }
      ],
      "name": "supportsInterface",
      "outputs": [
        {
          "internalType": "bool",
          "name": "",
          "type": "bool"
        }
      ],
      "stateMutability": "view",
      "type": "function"
    },
    {
      "inputs": [],
      "name": "totalDepositedSucoins",
      "outputs": [
        {
          "internalType": "uint256",
          "name": "",
          "type": "uint256"
        }
      ],
      "stateMutability": "view",
      "type": "function"
    }
  ],
  "bytecode": "0x60806040523480156200001157600080fd5b50600054610100900460ff1615808015620000335750600054600160ff909116105b8062000063575062000050306200013d60201b62000df41760201c565b15801562000063575060005460ff166001145b620000cb5760405162461bcd60e51b815260206004820152602e60248201527f496e697469616c697a61626c653a20636f6e747261637420697320616c72656160448201526d191e481a5b9a5d1a585b1a5e995960921b606482015260840160405180910390fd5b6000805460ff191660011790558015620000ef576000805461ff0019166101001790555b801562000136576000805461ff0019169055604051600181527f7f26b83ff96e1f2b6a682f133852f6798a09c465da95921460cefb38474024989060200160405180910390a15b506200014c565b6001600160a01b03163b151590565b61225e806200015c6000396000f3fe608060405234801561001057600080fd5b50600436106101cf5760003560e01c80634e69d5601161010457806391d14854116100a2578063b296558d11610071578063b296558d146103b6578063beb08ab9146103bf578063d5391393146103d7578063d547741f146103fe57600080fd5b806391d1485414610368578063a217fddf1461037b578063a51993db14610383578063ac9650d81461039657600080fd5b806375caa9ef116100de57806375caa9ef1461033857806378e97925146103415780638b3e56e11461034a5780638f61f4f51461035357600080fd5b80634e69d56014610314578063610b4f361461031c57806363c5f7c11461032f57600080fd5b8063228e248e116101715780632f2ff15d1161014b5780632f2ff15d146102b057806336568abe146102c3578063454a2ab3146102d65780634b60ce77146102e957600080fd5b8063228e248e1461027c578063248a9ca3146102845780632c4e722e146102a757600080fd5b80631525ff7d116101ad5780631525ff7d146102195780631a87a9341461022c5780631d6833aa1461023f578063200d2ed21461026257600080fd5b806301ffc9a7146101d4578063065de74c146101fc5780630dda507e14610211575b600080fd5b6101e76101e2366004611c44565b610411565b60405190151581526020015b60405180910390f35b61020f61020a366004611c6e565b610448565b005b61020f6104dc565b61020f610227366004611c9e565b6105b9565b61020f61023a366004611cb9565b6105fa565b61025460008051602061220983398151915281565b6040519081526020016101f3565b609b5461026f9060ff1681565b6040516101f39190611ce7565b61020f610712565b610254610292366004611c6e565b60009081526065602052604090206001015490565b61025460a05481565b61020f6102be366004611d0f565b61078e565b61020f6102d1366004611d0f565b6107b8565b61020f6102e4366004611c6e565b610832565b609d546102fc906001600160a01b031681565b6040516001600160a01b0390911681526020016101f3565b61026f610aa7565b61020f61032a366004611c6e565b610b12565b610254609c5481565b61025460995481565b61025460985481565b610254609f5481565b6102546000805160206121e983398151915281565b6101e7610376366004611d0f565b610caf565b610254600081565b6097546102fc906001600160a01b031681565b6103a96103a4366004611d3b565b610cda565b6040516101f39190611e00565b610254609e5481565b609b546102fc9061010090046001600160a01b031681565b6102547f9f2df0fed2c77648de5860a4cc508cd0818c85b8b8a1ab4ceeef8d981c8956a681565b61020f61040c366004611d0f565b610dcf565b60006001600160e01b03198216637965db0b60e01b148061044257506301ffc9a760e01b6001600160e01b03198316145b92915050565b6000805160206121e983398151915261046081610e03565b61046982610e0d565b609b805460ff1916600190811790915542609855610488908390611e78565b6104929042611e8f565b60998190556098546040517ff8910119ddbef5440c54532457dfe8250a10ed39e583292818f44724b9e1344c926104d0928252602082015260400190565b60405180910390a15050565b6002609b5460ff1660038111156104f5576104f5611cd1565b1480156105045750609a544210155b1561051757609b805460ff191660011790555b6001609b5460ff16600381111561053057610530611cd1565b14801561053f57506099544210155b1561054c5761054c610f24565b6003609b5460ff16600381111561056557610565611cd1565b146105b75760405162461bcd60e51b815260206004820152601c60248201527f41756374696f6e20686173206e6f742066696e6973686564207965740000000060448201526064015b60405180910390fd5b565b6000805160206122098339815191526105d181610e03565b50609b80546001600160a01b0390921661010002610100600160a81b0319909216919091179055565b600054610100900460ff161580801561061a5750600054600160ff909116105b806106345750303b158015610634575060005460ff166001145b6106975760405162461bcd60e51b815260206004820152602e60248201527f496e697469616c697a61626c653a20636f6e747261637420697320616c72656160448201526d191e481a5b9a5d1a585b1a5e995960921b60648201526084016105ae565b6000805460ff1916600117905580156106ba576000805461ff0019166101001790555b6106c382610fff565b6106cc82611037565b801561070e576000805461ff0019169055604051600181527f7f26b83ff96e1f2b6a682f133852f6798a09c465da95921460cefb3847402498906020016104d0565b5050565b600061071d81610e03565b6003609b5460ff16600381111561073657610736611cd1565b036107835760405162461bcd60e51b815260206004820152601a60248201527f546869732041756374696f6e20616c726561647920656e64656400000000000060448201526064016105ae565b61078b610f24565b50565b6000828152606560205260409020600101546107a981610e03565b6107b38383611094565b505050565b6001600160a01b03811633146108285760405162461bcd60e51b815260206004820152602f60248201527f416363657373436f6e74726f6c3a2063616e206f6e6c792072656e6f756e636560448201526e103937b632b9903337b91039b2b63360891b60648201526084016105ae565b61070e828261111a565b6002609b5460ff16600381111561084b5761084b611cd1565b14801561085a5750609a544210155b1561086d57609b805460ff191660011790555b6001609b5460ff16600381111561088657610886611cd1565b14801561089557506099544210155b156108a25761078b610f24565b6001609b5460ff1660038111156108bb576108bb611cd1565b146109015760405162461bcd60e51b815260206004820152601660248201527541756374696f6e206973206e6f742072756e6e696e6760501b60448201526064016105ae565b609b5461010090046001600160a01b031661095e5760405162461bcd60e51b815260206004820152601960248201527f50726f6a6563742077616c6c6574206973206e6f74207365740000000000000060448201526064016105ae565b609b5461010090046001600160a01b031633036109bd5760405162461bcd60e51b815260206004820152601960248201527f50726f6a6563742077616c6c65742063616e6e6f74206269640000000000000060448201526064016105ae565b6109d56000805160206121e983398151915233610caf565b15610a195760405162461bcd60e51b8152602060048201526014602482015273141c9bdc1bdcd95c9cc818d85b9b9bdd08189a5960621b60448201526064016105ae565b60008111610a695760405162461bcd60e51b815260206004820152601a60248201527f596f75206e65656420746f2062696420736f6d6520636f696e7300000000000060448201526064016105ae565b60405181815233907f9c89e828e6cee6374b68147c9e753e41746aad98ba255a527a4fc0ac1868bff99060200160405180910390a261078b81611181565b609b5460009060ff166002816003811115610ac457610ac4611cd1565b148015610ad35750609a544210155b15610adc575060015b6001609b5460ff166003811115610af557610af5611cd1565b148015610b0457506099544210155b15610b0d575060035b919050565b6002609b5460ff166003811115610b2b57610b2b611cd1565b148015610b3a5750609a544210155b15610b4d57609b805460ff191660011790555b6001609b5460ff166003811115610b6657610b66611cd1565b148015610b7557506099544210155b15610b825761078b610f24565b6000610b8d81610e03565b6001609b5460ff166003811115610ba657610ba6611cd1565b14610bec5760405162461bcd60e51b815260206004820152601660248201527541756374696f6e206973206e6f742072756e6e696e6760501b60448201526064016105ae565b60008211610c3c5760405162461bcd60e51b815260206004820152601960248201527f50617573652054696d65206d757374206265206c6f6e6765720000000000000060448201526064016105ae565b610c47826001611e78565b610c519042611e8f565b609a8190556099544291610c659190611e8f565b610c6f9190611ea2565b609955609b805460ff191660021790556040518281527fbfbe0eeb9851e98d21f973d30f11b8dacd485bc42ea47fe58b3335603741543f906020016104d0565b60009182526065602090815260408084206001600160a01b0393909316845291905290205460ff1690565b60608167ffffffffffffffff811115610cf557610cf5611eb5565b604051908082528060200260200182016040528015610d2857816020015b6060815260200190600190039081610d135790505b50905060005b82811015610dc857610d9830858584818110610d4c57610d4c611ecb565b9050602002810190610d5e9190611ee1565b8080601f01602080910402602001604051908101604052809392919081815260200183838082843760009201919091525061129092505050565b828281518110610daa57610daa611ecb565b60200260200101819052508080610dc090611f2f565b915050610d2e565b5092915050565b600082815260656020526040902060010154610dea81610e03565b6107b3838361111a565b6001600160a01b03163b151590565b61078b81336112bc565b610e1681611320565b609d54604051632474521560e21b81527f9f2df0fed2c77648de5860a4cc508cd0818c85b8b8a1ab4ceeef8d981c8956a660048201523060248201526001600160a01b03909116906391d1485490604401602060405180830381865afa158015610e84573d6000803e3d6000fd5b505050506040513d601f19601f82011682018060405250810190610ea89190611f48565b61078b5760405162461bcd60e51b815260206004820152604160248201527f436f6e747261637420646f6573206e6f74206861766520746865206d696e746560448201527f72207065726d697373696f6e20746f207374617274207468652061756374696f6064820152603760f91b608482015260a4016105ae565b610f36609b805460ff19166003179055565b609d54604051631b2b455f60e11b81527f9f2df0fed2c77648de5860a4cc508cd0818c85b8b8a1ab4ceeef8d981c8956a660048201523060248201526001600160a01b03909116906336568abe90604401600060405180830381600087803b158015610fa157600080fd5b505af1158015610fb5573d6000803e3d6000fd5b505050507fa26f614dfadbd6fab0e2c34abdab71ad292b06a4b47d63fda8dc3ccb85cb520942609e54604051610ff5929190918252602082015260400190565b60405180910390a1565b600054610100900460ff166110265760405162461bcd60e51b81526004016105ae90611f6a565b61102e6113e7565b61078b8161140e565b600054610100900460ff1661105e5760405162461bcd60e51b81526004016105ae90611f6a565b61106b6020820182611c9e565b609d80546001600160a01b0319166001600160a01b03929092169190911790556060013560a055565b61109e8282610caf565b61070e5760008281526065602090815260408083206001600160a01b03851684529091529020805460ff191660011790556110d63390565b6001600160a01b0316816001600160a01b0316837f2f8788117e7eff1d82e926ec794901d17c78024a50270940304540a733656f0d60405160405180910390a45050565b6111248282610caf565b1561070e5760008281526065602090815260408083206001600160a01b0385168085529252808320805460ff1916905551339285917ff6391f5c32d9c69d2a47ea670b442974b53935d1edc7fd64eb21e047a839171b9190a45050565b61118d8160a0546114bb565b9050609d60009054906101000a90046001600160a01b03166001600160a01b031663313ce5676040518163ffffffff1660e01b8152600401602060405180830381865afa1580156111e2573d6000803e3d6000fd5b505050506040513d601f19601f820116820180604052508101906112069190611fb5565b61121190600a6120bc565b60a05461121e91906120cb565b8110156112875760405162461bcd60e51b815260206004820152603160248201527f426964636f696e20616d6f756e74206c6f776572207468616e2072657175697260448201527032b2103a3790313abc9030903a37b5b2b760791b60648201526084016105ae565b61078b81611525565b60606112b583836040518060600160405280602781526020016121c260279139611709565b9392505050565b6112c68282610caf565b61070e576112de816001600160a01b031660146117e6565b6112e98360206117e6565b6040516020016112fa9291906120ed565b60408051601f198184030181529082905262461bcd60e51b82526105ae91600401612162565b6000609b5460ff16600381111561133957611339611cd1565b146113975760405162461bcd60e51b815260206004820152602860248201527f41756374696f6e20616c72656164792073746172746564206f7220616c726561604482015267191e48195b99195960c21b60648201526084016105ae565b6000811161078b5760405162461bcd60e51b815260206004820152601b60248201527f41756374696f6e2054696d65206d757374206265206c6f6e676572000000000060448201526064016105ae565b600054610100900460ff166105b75760405162461bcd60e51b81526004016105ae90611f6a565b600054610100900460ff166114355760405162461bcd60e51b81526004016105ae90611f6a565b611440600033611094565b6114666000805160206121e9833981519152600080516020612209833981519152611982565b61147e60008051602061220983398151915233611094565b609b805460ff191690556114986040820160208301611c9e565b609780546001600160a01b0319166001600160a01b039290921691909117905550565b60008061150783846114e287609760009054906101000a90046001600160a01b03166119cd565b6114ec91906120cb565b6114f69190611e78565b6097546001600160a01b0316611a46565b6115119085611ea2565b905061151d8185611ea2565b949350505050565b609754604051636eb1769f60e11b81523360048201523060248201526000916001600160a01b03169063dd62ed3e90604401602060405180830381865afa158015611574573d6000803e3d6000fd5b505050506040513d601f19601f820116820180604052508101906115989190612175565b9050818110156115f95760405162461bcd60e51b815260206004820152602660248201527f417070726f7665642062696420636f696e20616d6f756e74206973206e6f74206044820152650cadcdeeaced60d31b60648201526084016105ae565b609754609b546040516323b872dd60e01b81523360048201526001600160a01b0361010090920482166024820152604481018590529116906323b872dd906064016020604051808303816000875af1158015611659573d6000803e3d6000fd5b505050506040513d601f19601f8201168201806040525081019061167d9190611f48565b5081609c60008282546116909190611e8f565b9091555050609c546040517fb325f51492db6a3e2d42f7d2c7721750691a0cf7e6c3e4bd2b940b3528257380916116f891604080825260159082015274746f74616c4465706f73697465645375636f696e7360581b6060820152602081019190915260800190565b60405180910390a161070e82611abf565b60606001600160a01b0384163b6117715760405162461bcd60e51b815260206004820152602660248201527f416464726573733a2064656c65676174652063616c6c20746f206e6f6e2d636f6044820152651b9d1c9858dd60d21b60648201526084016105ae565b600080856001600160a01b03168560405161178c919061218e565b600060405180830381855af49150503d80600081146117c7576040519150601f19603f3d011682016040523d82523d6000602084013e6117cc565b606091505b50915091506117dc828286611c0b565b9695505050505050565b606060006117f5836002611e78565b611800906002611e8f565b67ffffffffffffffff81111561181857611818611eb5565b6040519080825280601f01601f191660200182016040528015611842576020820181803683370190505b509050600360fc1b8160008151811061185d5761185d611ecb565b60200101906001600160f81b031916908160001a905350600f60fb1b8160018151811061188c5761188c611ecb565b60200101906001600160f81b031916908160001a90535060006118b0846002611e78565b6118bb906001611e8f565b90505b6001811115611933576f181899199a1a9b1b9c1cb0b131b232b360811b85600f16601081106118ef576118ef611ecb565b1a60f81b82828151811061190557611905611ecb565b60200101906001600160f81b031916908160001a90535060049490941c9361192c816121aa565b90506118be565b5083156112b55760405162461bcd60e51b815260206004820181905260248201527f537472696e67733a20686578206c656e67746820696e73756666696369656e7460448201526064016105ae565b600082815260656020526040808220600101805490849055905190918391839186917fbd79b86ffe0ab8e8776151514217cd7cacd52c909f66475c3af44e129f0b00ff9190a4505050565b6000816001600160a01b031663313ce5676040518163ffffffff1660e01b8152600401602060405180830381865afa158015611a0d573d6000803e3d6000fd5b505050506040513d601f19601f82011682018060405250810190611a319190611fb5565b611a3c90600a6120bc565b6112b59084611e78565b6000816001600160a01b031663313ce5676040518163ffffffff1660e01b8152600401602060405180830381865afa158015611a86573d6000803e3d6000fd5b505050506040513d601f19601f82011682018060405250810190611aaa9190611fb5565b611ab590600a6120bc565b6112b590846120cb565b60a054609d546040805163313ce56760e01b81529051600093926001600160a01b03169163313ce5679160048083019260209291908290030181865afa158015611b0d573d6000803e3d6000fd5b505050506040513d601f19601f82011682018060405250810190611b319190611fb5565b611b3c90600a6120bc565b611b469084611e78565b611b5091906120cb565b609d546040516340c10f1960e01b8152336004820152602481018390529192506001600160a01b0316906340c10f1990604401600060405180830381600087803b158015611b9d57600080fd5b505af1158015611bb1573d6000803e3d6000fd5b5050505080609e6000828254611bc79190611e8f565b9091555050604080518381526020810183905233917f28cab0d660ed8aedd61a8c9db00b97f6a2d67e07d87795994f440b18bc5f1aa3910160405180910390a25050565b60608315611c1a5750816112b5565b825115611c2a5782518084602001fd5b8160405162461bcd60e51b81526004016105ae9190612162565b600060208284031215611c5657600080fd5b81356001600160e01b0319811681146112b557600080fd5b600060208284031215611c8057600080fd5b5035919050565b80356001600160a01b0381168114610b0d57600080fd5b600060208284031215611cb057600080fd5b6112b582611c87565b600060c08284031215611ccb57600080fd5b50919050565b634e487b7160e01b600052602160045260246000fd5b6020810160048310611d0957634e487b7160e01b600052602160045260246000fd5b91905290565b60008060408385031215611d2257600080fd5b82359150611d3260208401611c87565b90509250929050565b60008060208385031215611d4e57600080fd5b823567ffffffffffffffff80821115611d6657600080fd5b818501915085601f830112611d7a57600080fd5b813581811115611d8957600080fd5b8660208260051b8501011115611d9e57600080fd5b60209290920196919550909350505050565b60005b83811015611dcb578181015183820152602001611db3565b50506000910152565b60008151808452611dec816020860160208601611db0565b601f01601f19169290920160200192915050565b6000602080830181845280855180835260408601915060408160051b870101925083870160005b82811015611e5557603f19888603018452611e43858351611dd4565b94509285019290850190600101611e27565b5092979650505050505050565b634e487b7160e01b600052601160045260246000fd5b808202811582820484141761044257610442611e62565b8082018082111561044257610442611e62565b8181038181111561044257610442611e62565b634e487b7160e01b600052604160045260246000fd5b634e487b7160e01b600052603260045260246000fd5b6000808335601e19843603018112611ef857600080fd5b83018035915067ffffffffffffffff821115611f1357600080fd5b602001915036819003821315611f2857600080fd5b9250929050565b600060018201611f4157611f41611e62565b5060010190565b600060208284031215611f5a57600080fd5b815180151581146112b557600080fd5b6020808252602b908201527f496e697469616c697a61626c653a20636f6e7472616374206973206e6f74206960408201526a6e697469616c697a696e6760a81b606082015260800190565b600060208284031215611fc757600080fd5b815160ff811681146112b557600080fd5b600181815b80851115612013578160001904821115611ff957611ff9611e62565b8085161561200657918102915b93841c9390800290611fdd565b509250929050565b60008261202a57506001610442565b8161203757506000610442565b816001811461204d576002811461205757612073565b6001915050610442565b60ff84111561206857612068611e62565b50506001821b610442565b5060208310610133831016604e8410600b8410161715612096575081810a610442565b6120a08383611fd8565b80600019048211156120b4576120b4611e62565b029392505050565b60006112b560ff84168361201b565b6000826120e857634e487b7160e01b600052601260045260246000fd5b500490565b7f416363657373436f6e74726f6c3a206163636f756e7420000000000000000000815260008351612125816017850160208801611db0565b7001034b99036b4b9b9b4b733903937b6329607d1b6017918401918201528351612156816028840160208801611db0565b01602801949350505050565b6020815260006112b56020830184611dd4565b60006020828403121561218757600080fd5b5051919050565b600082516121a0818460208701611db0565b9190910192915050565b6000816121b9576121b9611e62565b50600019019056fe416464726573733a206c6f772d6c6576656c2064656c65676174652063616c6c206661696c6564b09aa5aeb3702cfd50b6b62bc4532604938f21248a27a1d5ca736082b6819cc19989001599306562c281f170efd64bd922b630d9e66fafc71949876c6ceb48c6a26469706673582212204eaf712793837990436f7b749186af1fc78f995d53e848867ae2d91e839be29c64736f6c63430008110033",
  "linkReferences": {},
  "deployedLinkReferences": {}
}