{
  "_format": "hh-sol-artifact-1",
  "contractName": "ERC20MintableBurnableUpgradeable",
  "sourceName": "contracts/UpgradeableTokens/ERC20MintableBurnableUpgradeable.sol",
  "abi": [
    {
      "inputs": [],
      "stateMutability": "nonpayable",
      "type": "constructor"
    },
    {
      "anonymous": false,
      "inputs": [
        {
          "indexed": true,
          "internalType": "address",
          "name": "owner",
          "type": "address"
        },
        {
          "indexed": true,
          "internalType": "address",
          "name": "spender",
          "type": "address"
        },
        {
          "indexed": false,
          "internalType": "uint256",
          "name": "value",
          "type": "uint256"
        }
      ],
      "name": "Approval",
      "type": "event"
    },
    {
      "anonymous": false,
      "inputs": [
        {
          "indexed": false,
          "internalType": "uint8",
          "name": "version",
          "type": "uint8"
        }
      ],
      "name": "Initialized",
      "type": "event"
    },
    {
      "anonymous": false,
      "inputs": [
        {
          "indexed": true,
          "internalType": "bytes32",
          "name": "role",
          "type": "bytes32"
        },
        {
          "indexed": true,
          "internalType": "bytes32",
          "name": "previousAdminRole",
          "type": "bytes32"
        },
        {
          "indexed": true,
          "internalType": "bytes32",
          "name": "newAdminRole",
          "type": "bytes32"
        }
      ],
      "name": "RoleAdminChanged",
      "type": "event"
    },
    {
      "anonymous": false,
      "inputs": [
        {
          "indexed": true,
          "internalType": "bytes32",
          "name": "role",
          "type": "bytes32"
        },
        {
          "indexed": true,
          "internalType": "address",
          "name": "account",
          "type": "address"
        },
        {
          "indexed": true,
          "internalType": "address",
          "name": "sender",
          "type": "address"
        }
      ],
      "name": "RoleGranted",
      "type": "event"
    },
    {
      "anonymous": false,
      "inputs": [
        {
          "indexed": true,
          "internalType": "bytes32",
          "name": "role",
          "type": "bytes32"
        },
        {
          "indexed": true,
          "internalType": "address",
          "name": "account",
          "type": "address"
        },
        {
          "indexed": true,
          "internalType": "address",
          "name": "sender",
          "type": "address"
        }
      ],
      "name": "RoleRevoked",
      "type": "event"
    },
    {
      "anonymous": false,
      "inputs": [
        {
          "indexed": true,
          "internalType": "address",
          "name": "from",
          "type": "address"
        },
        {
          "indexed": true,
          "internalType": "address",
          "name": "to",
          "type": "address"
        },
        {
          "indexed": false,
          "internalType": "uint256",
          "name": "value",
          "type": "uint256"
        }
      ],
      "name": "Transfer",
      "type": "event"
    },
    {
      "inputs": [],
      "name": "DEFAULT_ADMIN_ROLE",
      "outputs": [
        {
          "internalType": "bytes32",
          "name": "",
          "type": "bytes32"
        }
      ],
      "stateMutability": "view",
      "type": "function"
    },
    {
      "inputs": [],
      "name": "MINTER_ROLE",
      "outputs": [
        {
          "internalType": "bytes32",
          "name": "",
          "type": "bytes32"
        }
      ],
      "stateMutability": "view",
      "type": "function"
    },
    {
      "inputs": [
        {
          "internalType": "address",
          "name": "owner",
          "type": "address"
        },
        {
          "internalType": "address",
          "name": "spender",
          "type": "address"
        }
      ],
      "name": "allowance",
      "outputs": [
        {
          "internalType": "uint256",
          "name": "",
          "type": "uint256"
        }
      ],
      "stateMutability": "view",
      "type": "function"
    },
    {
      "inputs": [
        {
          "internalType": "address",
          "name": "spender",
          "type": "address"
        },
        {
          "internalType": "uint256",
          "name": "amount",
          "type": "uint256"
        }
      ],
      "name": "approve",
      "outputs": [
        {
          "internalType": "bool",
          "name": "",
          "type": "bool"
        }
      ],
      "stateMutability": "nonpayable",
      "type": "function"
    },
    {
      "inputs": [
        {
          "internalType": "address",
          "name": "account",
          "type": "address"
        }
      ],
      "name": "balanceOf",
      "outputs": [
        {
          "internalType": "uint256",
          "name": "",
          "type": "uint256"
        }
      ],
      "stateMutability": "view",
      "type": "function"
    },
    {
      "inputs": [
        {
          "internalType": "uint256",
          "name": "amount",
          "type": "uint256"
        }
      ],
      "name": "burn",
      "outputs": [],
      "stateMutability": "nonpayable",
      "type": "function"
    },
    {
      "inputs": [
        {
          "internalType": "address",
          "name": "account",
          "type": "address"
        },
        {
          "internalType": "uint256",
          "name": "amount",
          "type": "uint256"
        }
      ],
      "name": "burnFrom",
      "outputs": [],
      "stateMutability": "nonpayable",
      "type": "function"
    },
    {
      "inputs": [],
      "name": "decimals",
      "outputs": [
        {
          "internalType": "uint8",
          "name": "",
          "type": "uint8"
        }
      ],
      "stateMutability": "view",
      "type": "function"
    },
    {
      "inputs": [
        {
          "internalType": "address",
          "name": "spender",
          "type": "address"
        },
        {
          "internalType": "uint256",
          "name": "subtractedValue",
          "type": "uint256"
        }
      ],
      "name": "decreaseAllowance",
      "outputs": [
        {
          "internalType": "bool",
          "name": "",
          "type": "bool"
        }
      ],
      "stateMutability": "nonpayable",
      "type": "function"
    },
    {
      "inputs": [
        {
          "internalType": "bytes32",
          "name": "role",
          "type": "bytes32"
        }
      ],
      "name": "getRoleAdmin",
      "outputs": [
        {
          "internalType": "bytes32",
          "name": "",
          "type": "bytes32"
        }
      ],
      "stateMutability": "view",
      "type": "function"
    },
    {
      "inputs": [
        {
          "internalType": "bytes32",
          "name": "role",
          "type": "bytes32"
        },
        {
          "internalType": "address",
          "name": "account",
          "type": "address"
        }
      ],
      "name": "grantRole",
      "outputs": [],
      "stateMutability": "nonpayable",
      "type": "function"
    },
    {
      "inputs": [
        {
          "internalType": "bytes32",
          "name": "role",
          "type": "bytes32"
        },
        {
          "internalType": "address",
          "name": "account",
          "type": "address"
        }
      ],
      "name": "hasRole",
      "outputs": [
        {
          "internalType": "bool",
          "name": "",
          "type": "bool"
        }
      ],
      "stateMutability": "view",
      "type": "function"
    },
    {
      "inputs": [
        {
          "internalType": "address",
          "name": "spender",
          "type": "address"
        },
        {
          "internalType": "uint256",
          "name": "addedValue",
          "type": "uint256"
        }
      ],
      "name": "increaseAllowance",
      "outputs": [
        {
          "internalType": "bool",
          "name": "",
          "type": "bool"
        }
      ],
      "stateMutability": "nonpayable",
      "type": "function"
    },
    {
      "inputs": [
        {
          "internalType": "string",
          "name": "tokenName",
          "type": "string"
        },
        {
          "internalType": "string",
          "name": "tokenSymbol",
          "type": "string"
        },
        {
          "internalType": "uint256",
          "name": "initialSupply",
          "type": "uint256"
        },
        {
          "internalType": "address",
          "name": "to",
          "type": "address"
        }
      ],
      "name": "initialize",
      "outputs": [],
      "stateMutability": "nonpayable",
      "type": "function"
    },
    {
      "inputs": [
        {
          "internalType": "address",
          "name": "to",
          "type": "address"
        },
        {
          "internalType": "uint256",
          "name": "amount",
          "type": "uint256"
        }
      ],
      "name": "mint",
      "outputs": [],
      "stateMutability": "nonpayable",
      "type": "function"
    },
    {
      "inputs": [],
      "name": "name",
      "outputs": [
        {
          "internalType": "string",
          "name": "",
          "type": "string"
        }
      ],
      "stateMutability": "view",
      "type": "function"
    },
    {
      "inputs": [
        {
          "internalType": "bytes32",
          "name": "role",
          "type": "bytes32"
        },
        {
          "internalType": "address",
          "name": "account",
          "type": "address"
        }
      ],
      "name": "renounceRole",
      "outputs": [],
      "stateMutability": "nonpayable",
      "type": "function"
    },
    {
      "inputs": [
        {
          "internalType": "bytes32",
          "name": "role",
          "type": "bytes32"
        },
        {
          "internalType": "address",
          "name": "account",
          "type": "address"
        }
      ],
      "name": "revokeRole",
      "outputs": [],
      "stateMutability": "nonpayable",
      "type": "function"
    },
    {
      "inputs": [
        {
          "internalType": "bytes4",
          "name": "interfaceId",
          "type": "bytes4"
        }
      ],
      "name": "supportsInterface",
      "outputs": [
        {
          "internalType": "bool",
          "name": "",
          "type": "bool"
        }
      ],
      "stateMutability": "view",
      "type": "function"
    },
    {
      "inputs": [],
      "name": "symbol",
      "outputs": [
        {
          "internalType": "string",
          "name": "",
          "type": "string"
        }
      ],
      "stateMutability": "view",
      "type": "function"
    },
    {
      "inputs": [],
      "name": "totalSupply",
      "outputs": [
        {
          "internalType": "uint256",
          "name": "",
          "type": "uint256"
        }
      ],
      "stateMutability": "view",
      "type": "function"
    },
    {
      "inputs": [
        {
          "internalType": "address",
          "name": "to",
          "type": "address"
        },
        {
          "internalType": "uint256",
          "name": "amount",
          "type": "uint256"
        }
      ],
      "name": "transfer",
      "outputs": [
        {
          "internalType": "bool",
          "name": "",
          "type": "bool"
        }
      ],
      "stateMutability": "nonpayable",
      "type": "function"
    },
    {
      "inputs": [
        {
          "internalType": "address",
          "name": "from",
          "type": "address"
        },
        {
          "internalType": "address",
          "name": "to",
          "type": "address"
        },
        {
          "internalType": "uint256",
          "name": "amount",
          "type": "uint256"
        }
      ],
      "name": "transferFrom",
      "outputs": [
        {
          "internalType": "bool",
          "name": "",
          "type": "bool"
        }
      ],
      "stateMutability": "nonpayable",
      "type": "function"
    }
  ],
  "bytecode": "0x60806040523480156200001157600080fd5b50600054610100900460ff1615808015620000335750600054600160ff909116105b8062000063575062000050306200013d60201b620007f01760201c565b15801562000063575060005460ff166001145b620000cb5760405162461bcd60e51b815260206004820152602e60248201527f496e697469616c697a61626c653a20636f6e747261637420697320616c72656160448201526d191e481a5b9a5d1a585b1a5e995960921b606482015260840160405180910390fd5b6000805460ff191660011790558015620000ef576000805461ff0019166101001790555b801562000136576000805461ff0019169055604051600181527f7f26b83ff96e1f2b6a682f133852f6798a09c465da95921460cefb38474024989060200160405180910390a15b506200014c565b6001600160a01b03163b151590565b61169c806200015c6000396000f3fe608060405234801561001057600080fd5b506004361061014d5760003560e01c806342966c68116100c3578063a457c2d71161007c578063a457c2d7146102b9578063a9059cbb146102cc578063bd3a13f6146102df578063d5391393146102f2578063d547741f14610319578063dd62ed3e1461032c57600080fd5b806342966c681461024757806370a082311461025a57806379cc67901461028357806391d148541461029657806395d89b41146102a9578063a217fddf146102b157600080fd5b8063248a9ca311610115578063248a9ca3146101c75780632f2ff15d146101ea578063313ce567146101ff57806336568abe1461020e578063395093511461022157806340c10f191461023457600080fd5b806301ffc9a71461015257806306fdde031461017a578063095ea7b31461018f57806318160ddd146101a257806323b872dd146101b4575b600080fd5b610165610160366004611130565b61033f565b60405190151581526020015b60405180910390f35b610182610376565b604051610171919061117e565b61016561019d3660046111cd565b610408565b6067545b604051908152602001610171565b6101656101c23660046111f7565b610420565b6101a66101d5366004611233565b60009081526097602052604090206001015490565b6101fd6101f836600461124c565b610444565b005b60405160128152602001610171565b6101fd61021c36600461124c565b61046e565b61016561022f3660046111cd565b6104f1565b6101fd6102423660046111cd565b610513565b6101fd610255366004611233565b610547565b6101a6610268366004611278565b6001600160a01b031660009081526065602052604090205490565b6101fd6102913660046111cd565b610554565b6101656102a436600461124c565b610569565b610182610594565b6101a6600081565b6101656102c73660046111cd565b6105a3565b6101656102da3660046111cd565b61061e565b6101fd6102ed366004611336565b61062c565b6101a67f9f2df0fed2c77648de5860a4cc508cd0818c85b8b8a1ab4ceeef8d981c8956a681565b6101fd61032736600461124c565b6107a0565b6101a661033a3660046113b4565b6107c5565b60006001600160e01b03198216637965db0b60e01b148061037057506301ffc9a760e01b6001600160e01b03198316145b92915050565b606060688054610385906113de565b80601f01602080910402602001604051908101604052809291908181526020018280546103b1906113de565b80156103fe5780601f106103d3576101008083540402835291602001916103fe565b820191906000526020600020905b8154815290600101906020018083116103e157829003601f168201915b5050505050905090565b6000336104168185856107ff565b5060019392505050565b60003361042e858285610923565b61043985858561099d565b506001949350505050565b60008281526097602052604090206001015461045f81610b6b565b6104698383610b75565b505050565b6001600160a01b03811633146104e35760405162461bcd60e51b815260206004820152602f60248201527f416363657373436f6e74726f6c3a2063616e206f6e6c792072656e6f756e636560448201526e103937b632b9903337b91039b2b63360891b60648201526084015b60405180910390fd5b6104ed8282610bfb565b5050565b60003361041681858561050483836107c5565b61050e919061142e565b6107ff565b7f9f2df0fed2c77648de5860a4cc508cd0818c85b8b8a1ab4ceeef8d981c8956a661053d81610b6b565b6104698383610c62565b6105513382610d41565b50565b61055f823383610923565b6104ed8282610d41565b60009182526097602090815260408084206001600160a01b0393909316845291905290205460ff1690565b606060698054610385906113de565b600033816105b182866107c5565b9050838110156106115760405162461bcd60e51b815260206004820152602560248201527f45524332303a2064656372656173656420616c6c6f77616e63652062656c6f77604482015264207a65726f60d81b60648201526084016104da565b61043982868684036107ff565b60003361041681858561099d565b600054610100900460ff161580801561064c5750600054600160ff909116105b806106665750303b158015610666575060005460ff166001145b6106c95760405162461bcd60e51b815260206004820152602e60248201527f496e697469616c697a61626c653a20636f6e747261637420697320616c72656160448201526d191e481a5b9a5d1a585b1a5e995960921b60648201526084016104da565b6000805460ff1916600117905580156106ec576000805461ff0019166101001790555b6106f68585610e8f565b6106fe610ec0565b61071e6001600160a01b038316156107165782610718565b335b84610c62565b610729600033610b75565b6107537f9f2df0fed2c77648de5860a4cc508cd0818c85b8b8a1ab4ceeef8d981c8956a633610b75565b8015610799576000805461ff0019169055604051600181527f7f26b83ff96e1f2b6a682f133852f6798a09c465da95921460cefb38474024989060200160405180910390a15b5050505050565b6000828152609760205260409020600101546107bb81610b6b565b6104698383610bfb565b6001600160a01b03918216600090815260666020908152604080832093909416825291909152205490565b6001600160a01b03163b151590565b6001600160a01b0383166108615760405162461bcd60e51b8152602060048201526024808201527f45524332303a20617070726f76652066726f6d20746865207a65726f206164646044820152637265737360e01b60648201526084016104da565b6001600160a01b0382166108c25760405162461bcd60e51b815260206004820152602260248201527f45524332303a20617070726f766520746f20746865207a65726f206164647265604482015261737360f01b60648201526084016104da565b6001600160a01b0383811660008181526066602090815260408083209487168084529482529182902085905590518481527f8c5be1e5ebec7d5bd14f71427d1e84f3dd0314c0f7b2291e5b200ac8c7c3b925910160405180910390a3505050565b600061092f84846107c5565b90506000198114610997578181101561098a5760405162461bcd60e51b815260206004820152601d60248201527f45524332303a20696e73756666696369656e7420616c6c6f77616e636500000060448201526064016104da565b61099784848484036107ff565b50505050565b6001600160a01b038316610a015760405162461bcd60e51b815260206004820152602560248201527f45524332303a207472616e736665722066726f6d20746865207a65726f206164604482015264647265737360d81b60648201526084016104da565b6001600160a01b038216610a635760405162461bcd60e51b815260206004820152602360248201527f45524332303a207472616e7366657220746f20746865207a65726f206164647260448201526265737360e81b60648201526084016104da565b6001600160a01b03831660009081526065602052604090205481811015610adb5760405162461bcd60e51b815260206004820152602660248201527f45524332303a207472616e7366657220616d6f756e7420657863656564732062604482015265616c616e636560d01b60648201526084016104da565b6001600160a01b03808516600090815260656020526040808220858503905591851681529081208054849290610b1290849061142e565b92505081905550826001600160a01b0316846001600160a01b03167fddf252ad1be2c89b69c2b068fc378daa952ba7f163c4a11628f55a4df523b3ef84604051610b5e91815260200190565b60405180910390a3610997565b6105518133610ee9565b610b7f8282610569565b6104ed5760008281526097602090815260408083206001600160a01b03851684529091529020805460ff19166001179055610bb73390565b6001600160a01b0316816001600160a01b0316837f2f8788117e7eff1d82e926ec794901d17c78024a50270940304540a733656f0d60405160405180910390a45050565b610c058282610569565b156104ed5760008281526097602090815260408083206001600160a01b0385168085529252808320805460ff1916905551339285917ff6391f5c32d9c69d2a47ea670b442974b53935d1edc7fd64eb21e047a839171b9190a45050565b6001600160a01b038216610cb85760405162461bcd60e51b815260206004820152601f60248201527f45524332303a206d696e7420746f20746865207a65726f20616464726573730060448201526064016104da565b8060676000828254610cca919061142e565b90915550506001600160a01b03821660009081526065602052604081208054839290610cf790849061142e565b90915550506040518181526001600160a01b038316906000907fddf252ad1be2c89b69c2b068fc378daa952ba7f163c4a11628f55a4df523b3ef9060200160405180910390a35050565b6001600160a01b038216610da15760405162461bcd60e51b815260206004820152602160248201527f45524332303a206275726e2066726f6d20746865207a65726f206164647265736044820152607360f81b60648201526084016104da565b6001600160a01b03821660009081526065602052604090205481811015610e155760405162461bcd60e51b815260206004820152602260248201527f45524332303a206275726e20616d6f756e7420657863656564732062616c616e604482015261636560f01b60648201526084016104da565b6001600160a01b0383166000908152606560205260408120838303905560678054849290610e44908490611441565b90915550506040518281526000906001600160a01b038516907fddf252ad1be2c89b69c2b068fc378daa952ba7f163c4a11628f55a4df523b3ef9060200160405180910390a3505050565b600054610100900460ff16610eb65760405162461bcd60e51b81526004016104da90611454565b6104ed8282610f4d565b600054610100900460ff16610ee75760405162461bcd60e51b81526004016104da90611454565b565b610ef38282610569565b6104ed57610f0b816001600160a01b03166014610f8d565b610f16836020610f8d565b604051602001610f2792919061149f565b60408051601f198184030181529082905262461bcd60e51b82526104da9160040161117e565b600054610100900460ff16610f745760405162461bcd60e51b81526004016104da90611454565b6068610f808382611562565b5060696104698282611562565b60606000610f9c836002611622565b610fa790600261142e565b67ffffffffffffffff811115610fbf57610fbf611293565b6040519080825280601f01601f191660200182016040528015610fe9576020820181803683370190505b509050600360fc1b8160008151811061100457611004611639565b60200101906001600160f81b031916908160001a905350600f60fb1b8160018151811061103357611033611639565b60200101906001600160f81b031916908160001a9053506000611057846002611622565b61106290600161142e565b90505b60018111156110da576f181899199a1a9b1b9c1cb0b131b232b360811b85600f166010811061109657611096611639565b1a60f81b8282815181106110ac576110ac611639565b60200101906001600160f81b031916908160001a90535060049490941c936110d38161164f565b9050611065565b5083156111295760405162461bcd60e51b815260206004820181905260248201527f537472696e67733a20686578206c656e67746820696e73756666696369656e7460448201526064016104da565b9392505050565b60006020828403121561114257600080fd5b81356001600160e01b03198116811461112957600080fd5b60005b8381101561117557818101518382015260200161115d565b50506000910152565b602081526000825180602084015261119d81604085016020870161115a565b601f01601f19169190910160400192915050565b80356001600160a01b03811681146111c857600080fd5b919050565b600080604083850312156111e057600080fd5b6111e9836111b1565b946020939093013593505050565b60008060006060848603121561120c57600080fd5b611215846111b1565b9250611223602085016111b1565b9150604084013590509250925092565b60006020828403121561124557600080fd5b5035919050565b6000806040838503121561125f57600080fd5b8235915061126f602084016111b1565b90509250929050565b60006020828403121561128a57600080fd5b611129826111b1565b634e487b7160e01b600052604160045260246000fd5b600082601f8301126112ba57600080fd5b813567ffffffffffffffff808211156112d5576112d5611293565b604051601f8301601f19908116603f011681019082821181831017156112fd576112fd611293565b8160405283815286602085880101111561131657600080fd5b836020870160208301376000602085830101528094505050505092915050565b6000806000806080858703121561134c57600080fd5b843567ffffffffffffffff8082111561136457600080fd5b611370888389016112a9565b9550602087013591508082111561138657600080fd5b50611393878288016112a9565b935050604085013591506113a9606086016111b1565b905092959194509250565b600080604083850312156113c757600080fd5b6113d0836111b1565b915061126f602084016111b1565b600181811c908216806113f257607f821691505b60208210810361141257634e487b7160e01b600052602260045260246000fd5b50919050565b634e487b7160e01b600052601160045260246000fd5b8082018082111561037057610370611418565b8181038181111561037057610370611418565b6020808252602b908201527f496e697469616c697a61626c653a20636f6e7472616374206973206e6f74206960408201526a6e697469616c697a696e6760a81b606082015260800190565b7f416363657373436f6e74726f6c3a206163636f756e74200000000000000000008152600083516114d781601785016020880161115a565b7001034b99036b4b9b9b4b733903937b6329607d1b601791840191820152835161150881602884016020880161115a565b01602801949350505050565b601f82111561046957600081815260208120601f850160051c8101602086101561153b5750805b601f850160051c820191505b8181101561155a57828155600101611547565b505050505050565b815167ffffffffffffffff81111561157c5761157c611293565b6115908161158a84546113de565b84611514565b602080601f8311600181146115c557600084156115ad5750858301515b600019600386901b1c1916600185901b17855561155a565b600085815260208120601f198616915b828110156115f4578886015182559484019460019091019084016115d5565b50858210156116125787850151600019600388901b60f8161c191681555b5050505050600190811b01905550565b808202811582820484141761037057610370611418565b634e487b7160e01b600052603260045260246000fd5b60008161165e5761165e611418565b50600019019056fea2646970667358221220fda0a9dc0f3f0119e08a3740a468f3cf7aacb888871ee54466634fb6e70833c764736f6c63430008110033",
  "linkReferences": {},
  "deployedLinkReferences": {}
}