{
  "_format": "hh-sol-artifact-1",
  "contractName": "WrapperToken",
  "sourceName": "contracts/WrapperToken.sol",
  "abi": [
    {
      "inputs": [
        {
          "internalType": "string",
          "name": "tokenName",
          "type": "string"
        },
        {
          "internalType": "string",
          "name": "tokenSymbol",
          "type": "string"
        },
        {
          "internalType": "address",
          "name": "_underlying",
          "type": "address"
        }
      ],
      "stateMutability": "nonpayable",
      "type": "constructor"
    },
    {
      "anonymous": false,
      "inputs": [
        {
          "indexed": true,
          "internalType": "address",
          "name": "owner",
          "type": "address"
        },
        {
          "indexed": true,
          "internalType": "address",
          "name": "spender",
          "type": "address"
        },
        {
          "indexed": false,
          "internalType": "uint256",
          "name": "value",
          "type": "uint256"
        }
      ],
      "name": "Approval",
      "type": "event"
    },
    {
      "anonymous": false,
      "inputs": [
        {
          "indexed": false,
          "internalType": "address",
          "name": "spender",
          "type": "address"
        },
        {
          "indexed": false,
          "internalType": "uint256",
          "name": "amount",
          "type": "uint256"
        }
      ],
      "name": "Burn",
      "type": "event"
    },
    {
      "anonymous": false,
      "inputs": [
        {
          "indexed": false,
          "internalType": "address",
          "name": "buyer",
          "type": "address"
        },
        {
          "indexed": false,
          "internalType": "uint256",
          "name": "amount",
          "type": "uint256"
        }
      ],
      "name": "Mint",
      "type": "event"
    },
    {
      "anonymous": false,
      "inputs": [
        {
          "indexed": false,
          "internalType": "address",
          "name": "receiver",
          "type": "address"
        },
        {
          "indexed": false,
          "internalType": "uint256",
          "name": "amount",
          "type": "uint256"
        }
      ],
      "name": "Recover",
      "type": "event"
    },
    {
      "anonymous": false,
      "inputs": [
        {
          "indexed": true,
          "internalType": "address",
          "name": "from",
          "type": "address"
        },
        {
          "indexed": true,
          "internalType": "address",
          "name": "to",
          "type": "address"
        },
        {
          "indexed": false,
          "internalType": "uint256",
          "name": "value",
          "type": "uint256"
        }
      ],
      "name": "Transfer",
      "type": "event"
    },
    {
      "inputs": [
        {
          "internalType": "address",
          "name": "owner",
          "type": "address"
        },
        {
          "internalType": "address",
          "name": "spender",
          "type": "address"
        }
      ],
      "name": "allowance",
      "outputs": [
        {
          "internalType": "uint256",
          "name": "",
          "type": "uint256"
        }
      ],
      "stateMutability": "view",
      "type": "function"
    },
    {
      "inputs": [
        {
          "internalType": "address",
          "name": "spender",
          "type": "address"
        },
        {
          "internalType": "uint256",
          "name": "amount",
          "type": "uint256"
        }
      ],
      "name": "approve",
      "outputs": [
        {
          "internalType": "bool",
          "name": "",
          "type": "bool"
        }
      ],
      "stateMutability": "nonpayable",
      "type": "function"
    },
    {
      "inputs": [
        {
          "internalType": "address",
          "name": "account",
          "type": "address"
        }
      ],
      "name": "balanceOf",
      "outputs": [
        {
          "internalType": "uint256",
          "name": "",
          "type": "uint256"
        }
      ],
      "stateMutability": "view",
      "type": "function"
    },
    {
      "inputs": [],
      "name": "decimals",
      "outputs": [
        {
          "internalType": "uint8",
          "name": "",
          "type": "uint8"
        }
      ],
      "stateMutability": "view",
      "type": "function"
    },
    {
      "inputs": [
        {
          "internalType": "address",
          "name": "spender",
          "type": "address"
        },
        {
          "internalType": "uint256",
          "name": "subtractedValue",
          "type": "uint256"
        }
      ],
      "name": "decreaseAllowance",
      "outputs": [
        {
          "internalType": "bool",
          "name": "",
          "type": "bool"
        }
      ],
      "stateMutability": "nonpayable",
      "type": "function"
    },
    {
      "inputs": [
        {
          "internalType": "address",
          "name": "account",
          "type": "address"
        },
        {
          "internalType": "uint256",
          "name": "amount",
          "type": "uint256"
        }
      ],
      "name": "depositFor",
      "outputs": [
        {
          "internalType": "bool",
          "name": "",
          "type": "bool"
        }
      ],
      "stateMutability": "nonpayable",
      "type": "function"
    },
    {
      "inputs": [
        {
          "internalType": "address",
          "name": "spender",
          "type": "address"
        },
        {
          "internalType": "uint256",
          "name": "addedValue",
          "type": "uint256"
        }
      ],
      "name": "increaseAllowance",
      "outputs": [
        {
          "internalType": "bool",
          "name": "",
          "type": "bool"
        }
      ],
      "stateMutability": "nonpayable",
      "type": "function"
    },
    {
      "inputs": [],
      "name": "name",
      "outputs": [
        {
          "internalType": "string",
          "name": "",
          "type": "string"
        }
      ],
      "stateMutability": "view",
      "type": "function"
    },
    {
      "inputs": [
        {
          "internalType": "address",
          "name": "account",
          "type": "address"
        }
      ],
      "name": "recover",
      "outputs": [
        {
          "internalType": "uint256",
          "name": "",
          "type": "uint256"
        }
      ],
      "stateMutability": "nonpayable",
      "type": "function"
    },
    {
      "inputs": [],
      "name": "symbol",
      "outputs": [
        {
          "internalType": "string",
          "name": "",
          "type": "string"
        }
      ],
      "stateMutability": "view",
      "type": "function"
    },
    {
      "inputs": [],
      "name": "totalSupply",
      "outputs": [
        {
          "internalType": "uint256",
          "name": "",
          "type": "uint256"
        }
      ],
      "stateMutability": "view",
      "type": "function"
    },
    {
      "inputs": [
        {
          "internalType": "address",
          "name": "to",
          "type": "address"
        },
        {
          "internalType": "uint256",
          "name": "amount",
          "type": "uint256"
        }
      ],
      "name": "transfer",
      "outputs": [
        {
          "internalType": "bool",
          "name": "",
          "type": "bool"
        }
      ],
      "stateMutability": "nonpayable",
      "type": "function"
    },
    {
      "inputs": [
        {
          "internalType": "address",
          "name": "from",
          "type": "address"
        },
        {
          "internalType": "address",
          "name": "to",
          "type": "address"
        },
        {
          "internalType": "uint256",
          "name": "amount",
          "type": "uint256"
        }
      ],
      "name": "transferFrom",
      "outputs": [
        {
          "internalType": "bool",
          "name": "",
          "type": "bool"
        }
      ],
      "stateMutability": "nonpayable",
      "type": "function"
    },
    {
      "inputs": [],
      "name": "underlying",
      "outputs": [
        {
          "internalType": "contract ERC20",
          "name": "",
          "type": "address"
        }
      ],
      "stateMutability": "view",
      "type": "function"
    },
    {
      "inputs": [
        {
          "internalType": "address",
          "name": "account",
          "type": "address"
        },
        {
          "internalType": "uint256",
          "name": "amount",
          "type": "uint256"
        }
      ],
      "name": "withdrawTo",
      "outputs": [
        {
          "internalType": "bool",
          "name": "",
          "type": "bool"
        }
      ],
      "stateMutability": "nonpayable",
      "type": "function"
    }
  ],
  "bytecode": "0x60a06040523480156200001157600080fd5b506040516200136638038062001366833981016040819052620000349162000195565b82826003620000448382620002b1565b506004620000538282620002b1565b5050506001600160a01b038116620000bb5760405162461bcd60e51b815260206004820152602160248201527f556e6465726c79696e672061737365742061646472657373206d697373696e676044820152601760f91b606482015260840160405180910390fd5b6001600160a01b0316608052506200037d9050565b634e487b7160e01b600052604160045260246000fd5b600082601f830112620000f857600080fd5b81516001600160401b0380821115620001155762000115620000d0565b604051601f8301601f19908116603f01168101908282118183101715620001405762000140620000d0565b816040528381526020925086838588010111156200015d57600080fd5b600091505b8382101562000181578582018301518183018401529082019062000162565b600093810190920192909252949350505050565b600080600060608486031215620001ab57600080fd5b83516001600160401b0380821115620001c357600080fd5b620001d187838801620000e6565b94506020860151915080821115620001e857600080fd5b50620001f786828701620000e6565b604086015190935090506001600160a01b03811681146200021757600080fd5b809150509250925092565b600181811c908216806200023757607f821691505b6020821081036200025857634e487b7160e01b600052602260045260246000fd5b50919050565b601f821115620002ac57600081815260208120601f850160051c81016020861015620002875750805b601f850160051c820191505b81811015620002a85782815560010162000293565b5050505b505050565b81516001600160401b03811115620002cd57620002cd620000d0565b620002e581620002de845462000222565b846200025e565b602080601f8311600181146200031d5760008415620003045750858301515b600019600386901b1c1916600185901b178555620002a8565b600085815260208120601f198616915b828110156200034e578886015182559484019460019091019084016200032d565b50858210156200036d5787850151600019600388901b60f8161c191681555b5050505050600190811b01905550565b608051610fb8620003ae600039600081816101c401528181610366015281816104db015261064e0152610fb86000f3fe608060405234801561001057600080fd5b50600436106100f55760003560e01c8063313ce5671161009757806395d89b411161006657806395d89b4114610227578063a457c2d71461022f578063a9059cbb14610242578063dd62ed3e1461025557600080fd5b8063313ce5671461019d57806339509351146101ac5780636f307dc3146101bf57806370a08231146101fe57600080fd5b806318160ddd116100d357806318160ddd1461015c578063205c28781461016457806323b872dd146101775780632f4f21e21461018a57600080fd5b806306fdde03146100fa578063095ea7b3146101185780630cd865ec1461013b575b600080fd5b610102610268565b60405161010f9190610d7b565b60405180910390f35b61012b610126366004610de5565b6102fa565b604051901515815260200161010f565b61014e610149366004610e0f565b610314565b60405190815260200161010f565b60025461014e565b61012b610172366004610de5565b610431565b61012b610185366004610e31565b61058e565b61012b610198366004610de5565b6105b2565b6040516012815260200161010f565b61012b6101ba366004610de5565b610704565b6101e67f000000000000000000000000000000000000000000000000000000000000000081565b6040516001600160a01b03909116815260200161010f565b61014e61020c366004610e0f565b6001600160a01b031660009081526020819052604090205490565b610102610726565b61012b61023d366004610de5565b610735565b61012b610250366004610de5565b6107b0565b61014e610263366004610e6d565b6107be565b60606003805461027790610ea0565b80601f01602080910402602001604051908101604052809291908181526020018280546102a390610ea0565b80156102f05780601f106102c5576101008083540402835291602001916102f0565b820191906000526020600020905b8154815290600101906020018083116102d357829003601f168201915b5050505050905090565b6000336103088185856107e9565b60019150505b92915050565b6000816001600160a01b0381166103465760405162461bcd60e51b815260040161033d90610ed4565b60405180910390fd5b600061035160025490565b6040516370a0823160e01b81523060048201527f00000000000000000000000000000000000000000000000000000000000000006001600160a01b0316906370a0823190602401602060405180830381865afa1580156103b5573d6000803e3d6000fd5b505050506040513d601f19601f820116820180604052508101906103d99190610f0b565b6103e39190610f3a565b90506103ef848261090e565b60408051338152602081018390527f817c5912299b2d8eea4d9429e557c7b42c96a31499b4229932d1f070f068e37a910160405180910390a191505b50919050565b6000826001600160a01b03811661045a5760405162461bcd60e51b815260040161033d90610ed4565b82600081116104ab5760405162461bcd60e51b815260206004820152601c60248201527f5472616e73616374696f6e2077697468207a65726f2076616c75652100000000604482015260640161033d565b6104b533856109ed565b60405163a9059cbb60e01b81526001600160a01b038681166004830152602482018690527f0000000000000000000000000000000000000000000000000000000000000000169063a9059cbb906044016020604051808303816000875af1158015610524573d6000803e3d6000fd5b505050506040513d601f19601f820116820180604052508101906105489190610f4d565b5060408051338152602081018690527fcc16f5dbb4873280815c1ee09dbd06736cffcc184412cf7a71a0fdb75d397ca591015b60405180910390a1506001949350505050565b60003361059c858285610b33565b6105a7858585610bad565b506001949350505050565b6000826001600160a01b0381166105db5760405162461bcd60e51b815260040161033d90610ed4565b826000811161062c5760405162461bcd60e51b815260206004820152601c60248201527f5472616e73616374696f6e2077697468207a65726f2076616c75652100000000604482015260640161033d565b6040516323b872dd60e01b8152336004820152306024820152604481018590527f00000000000000000000000000000000000000000000000000000000000000006001600160a01b0316906323b872dd906064016020604051808303816000875af115801561069f573d6000803e3d6000fd5b505050506040513d601f19601f820116820180604052508101906106c39190610f4d565b506106ce858561090e565b60408051338152602081018690527f0f6798a560793a54c3bcfe86a93cde1e73087d944c0ea20544137d4121396885910161057b565b60003361030881858561071783836107be565b6107219190610f6f565b6107e9565b60606004805461027790610ea0565b6000338161074382866107be565b9050838110156107a35760405162461bcd60e51b815260206004820152602560248201527f45524332303a2064656372656173656420616c6c6f77616e63652062656c6f77604482015264207a65726f60d81b606482015260840161033d565b6105a782868684036107e9565b600033610308818585610bad565b6001600160a01b03918216600090815260016020908152604080832093909416825291909152205490565b6001600160a01b03831661084b5760405162461bcd60e51b8152602060048201526024808201527f45524332303a20617070726f76652066726f6d20746865207a65726f206164646044820152637265737360e01b606482015260840161033d565b6001600160a01b0382166108ac5760405162461bcd60e51b815260206004820152602260248201527f45524332303a20617070726f766520746f20746865207a65726f206164647265604482015261737360f01b606482015260840161033d565b6001600160a01b0383811660008181526001602090815260408083209487168084529482529182902085905590518481527f8c5be1e5ebec7d5bd14f71427d1e84f3dd0314c0f7b2291e5b200ac8c7c3b92591015b60405180910390a3505050565b6001600160a01b0382166109645760405162461bcd60e51b815260206004820152601f60248201527f45524332303a206d696e7420746f20746865207a65726f206164647265737300604482015260640161033d565b80600260008282546109769190610f6f565b90915550506001600160a01b038216600090815260208190526040812080548392906109a3908490610f6f565b90915550506040518181526001600160a01b038316906000907fddf252ad1be2c89b69c2b068fc378daa952ba7f163c4a11628f55a4df523b3ef9060200160405180910390a35050565b6001600160a01b038216610a4d5760405162461bcd60e51b815260206004820152602160248201527f45524332303a206275726e2066726f6d20746865207a65726f206164647265736044820152607360f81b606482015260840161033d565b6001600160a01b03821660009081526020819052604090205481811015610ac15760405162461bcd60e51b815260206004820152602260248201527f45524332303a206275726e20616d6f756e7420657863656564732062616c616e604482015261636560f01b606482015260840161033d565b6001600160a01b0383166000908152602081905260408120838303905560028054849290610af0908490610f3a565b90915550506040518281526000906001600160a01b038516907fddf252ad1be2c89b69c2b068fc378daa952ba7f163c4a11628f55a4df523b3ef90602001610901565b6000610b3f84846107be565b90506000198114610ba75781811015610b9a5760405162461bcd60e51b815260206004820152601d60248201527f45524332303a20696e73756666696369656e7420616c6c6f77616e6365000000604482015260640161033d565b610ba784848484036107e9565b50505050565b6001600160a01b038316610c115760405162461bcd60e51b815260206004820152602560248201527f45524332303a207472616e736665722066726f6d20746865207a65726f206164604482015264647265737360d81b606482015260840161033d565b6001600160a01b038216610c735760405162461bcd60e51b815260206004820152602360248201527f45524332303a207472616e7366657220746f20746865207a65726f206164647260448201526265737360e81b606482015260840161033d565b6001600160a01b03831660009081526020819052604090205481811015610ceb5760405162461bcd60e51b815260206004820152602660248201527f45524332303a207472616e7366657220616d6f756e7420657863656564732062604482015265616c616e636560d01b606482015260840161033d565b6001600160a01b03808516600090815260208190526040808220858503905591851681529081208054849290610d22908490610f6f565b92505081905550826001600160a01b0316846001600160a01b03167fddf252ad1be2c89b69c2b068fc378daa952ba7f163c4a11628f55a4df523b3ef84604051610d6e91815260200190565b60405180910390a3610ba7565b600060208083528351808285015260005b81811015610da857858101830151858201604001528201610d8c565b506000604082860101526040601f19601f8301168501019250505092915050565b80356001600160a01b0381168114610de057600080fd5b919050565b60008060408385031215610df857600080fd5b610e0183610dc9565b946020939093013593505050565b600060208284031215610e2157600080fd5b610e2a82610dc9565b9392505050565b600080600060608486031215610e4657600080fd5b610e4f84610dc9565b9250610e5d60208501610dc9565b9150604084013590509250925092565b60008060408385031215610e8057600080fd5b610e8983610dc9565b9150610e9760208401610dc9565b90509250929050565b600181811c90821680610eb457607f821691505b60208210810361042b57634e487b7160e01b600052602260045260246000fd5b6020808252601a908201527f5472616e73616374696f6e20746f206164647265737328302921000000000000604082015260600190565b600060208284031215610f1d57600080fd5b5051919050565b634e487b7160e01b600052601160045260246000fd5b8181038181111561030e5761030e610f24565b600060208284031215610f5f57600080fd5b81518015158114610e2a57600080fd5b8082018082111561030e5761030e610f2456fea26469706673582212209afcdffb8f791210183a353bfb73ab54ace7ee5b559ee52d3ff5d970c0e1529a64736f6c63430008110033",
  "linkReferences": {},
  "deployedLinkReferences": {}
}