{
  "_format": "hh-sol-artifact-1",
  "contractName": "DutchAuction",
  "sourceName": "contracts/UpgradeableAuctions/DutchAuction.sol",
  "abi": [
    {
      "anonymous": false,
      "inputs": [
        {
          "indexed": false,
          "internalType": "uint256",
          "name": "end",
          "type": "uint256"
        },
        {
          "indexed": false,
          "internalType": "uint256",
          "name": "finalPrice",
          "type": "uint256"
        }
      ],
      "name": "AuctionFinished",
      "type": "event"
    },
    {
      "anonymous": false,
      "inputs": [
        {
          "indexed": false,
          "internalType": "uint256",
          "name": "pauseDuration",
          "type": "uint256"
        }
      ],
      "name": "AuctionPaused",
      "type": "event"
    },
    {
      "anonymous": false,
      "inputs": [
        {
          "indexed": false,
          "internalType": "uint256",
          "name": "start",
          "type": "uint256"
        },
        {
          "indexed": false,
          "internalType": "uint256",
          "name": "end",
          "type": "uint256"
        }
      ],
      "name": "AuctionStarted",
      "type": "event"
    },
    {
      "anonymous": false,
      "inputs": [
        {
          "indexed": true,
          "internalType": "address",
          "name": "sender",
          "type": "address"
        },
        {
          "indexed": false,
          "internalType": "uint256",
          "name": "amount",
          "type": "uint256"
        }
      ],
      "name": "BidSubmission",
      "type": "event"
    },
    {
      "anonymous": false,
      "inputs": [
        {
          "indexed": false,
          "internalType": "uint8",
          "name": "version",
          "type": "uint8"
        }
      ],
      "name": "Initialized",
      "type": "event"
    },
    {
      "anonymous": false,
      "inputs": [
        {
          "indexed": true,
          "internalType": "bytes32",
          "name": "role",
          "type": "bytes32"
        },
        {
          "indexed": true,
          "internalType": "bytes32",
          "name": "previousAdminRole",
          "type": "bytes32"
        },
        {
          "indexed": true,
          "internalType": "bytes32",
          "name": "newAdminRole",
          "type": "bytes32"
        }
      ],
      "name": "RoleAdminChanged",
      "type": "event"
    },
    {
      "anonymous": false,
      "inputs": [
        {
          "indexed": true,
          "internalType": "bytes32",
          "name": "role",
          "type": "bytes32"
        },
        {
          "indexed": true,
          "internalType": "address",
          "name": "account",
          "type": "address"
        },
        {
          "indexed": true,
          "internalType": "address",
          "name": "sender",
          "type": "address"
        }
      ],
      "name": "RoleGranted",
      "type": "event"
    },
    {
      "anonymous": false,
      "inputs": [
        {
          "indexed": true,
          "internalType": "bytes32",
          "name": "role",
          "type": "bytes32"
        },
        {
          "indexed": true,
          "internalType": "address",
          "name": "account",
          "type": "address"
        },
        {
          "indexed": true,
          "internalType": "address",
          "name": "sender",
          "type": "address"
        }
      ],
      "name": "RoleRevoked",
      "type": "event"
    },
    {
      "anonymous": false,
      "inputs": [
        {
          "indexed": true,
          "internalType": "address",
          "name": "buyer",
          "type": "address"
        },
        {
          "indexed": false,
          "internalType": "uint256",
          "name": "usedBidCoinAmount",
          "type": "uint256"
        },
        {
          "indexed": false,
          "internalType": "uint256",
          "name": "boughtTokenAmount",
          "type": "uint256"
        }
      ],
      "name": "TokenBought",
      "type": "event"
    },
    {
      "anonymous": false,
      "inputs": [
        {
          "indexed": false,
          "internalType": "string",
          "name": "variable",
          "type": "string"
        },
        {
          "indexed": false,
          "internalType": "uint256",
          "name": "value",
          "type": "uint256"
        }
      ],
      "name": "VariableChange",
      "type": "event"
    },
    {
      "inputs": [],
      "name": "DEFAULT_ADMIN_ROLE",
      "outputs": [
        {
          "internalType": "bytes32",
          "name": "",
          "type": "bytes32"
        }
      ],
      "stateMutability": "view",
      "type": "function"
    },
    {
      "inputs": [],
      "name": "PROPOSER_ADMIN_ROLE",
      "outputs": [
        {
          "internalType": "bytes32",
          "name": "",
          "type": "bytes32"
        }
      ],
      "stateMutability": "view",
      "type": "function"
    },
    {
      "inputs": [],
      "name": "PROPOSER_ROLE",
      "outputs": [
        {
          "internalType": "bytes32",
          "name": "",
          "type": "bytes32"
        }
      ],
      "stateMutability": "view",
      "type": "function"
    },
    {
      "inputs": [
        {
          "internalType": "uint256",
          "name": "bidCoinBits",
          "type": "uint256"
        }
      ],
      "name": "bid",
      "outputs": [],
      "stateMutability": "nonpayable",
      "type": "function"
    },
    {
      "inputs": [],
      "name": "bidCoin",
      "outputs": [
        {
          "internalType": "contract WrapperToken",
          "name": "",
          "type": "address"
        }
      ],
      "stateMutability": "view",
      "type": "function"
    },
    {
      "inputs": [],
      "name": "currentRate",
      "outputs": [
        {
          "internalType": "uint256",
          "name": "",
          "type": "uint256"
        }
      ],
      "stateMutability": "view",
      "type": "function"
    },
    {
      "inputs": [],
      "name": "finalRate",
      "outputs": [
        {
          "internalType": "uint256",
          "name": "",
          "type": "uint256"
        }
      ],
      "stateMutability": "view",
      "type": "function"
    },
    {
      "inputs": [],
      "name": "forcedManualFinish",
      "outputs": [],
      "stateMutability": "nonpayable",
      "type": "function"
    },
    {
      "inputs": [],
      "name": "getCurrentRate",
      "outputs": [
        {
          "internalType": "uint256",
          "name": "current",
          "type": "uint256"
        }
      ],
      "stateMutability": "view",
      "type": "function"
    },
    {
      "inputs": [
        {
          "internalType": "bytes32",
          "name": "role",
          "type": "bytes32"
        }
      ],
      "name": "getRoleAdmin",
      "outputs": [
        {
          "internalType": "bytes32",
          "name": "",
          "type": "bytes32"
        }
      ],
      "stateMutability": "view",
      "type": "function"
    },
    {
      "inputs": [],
      "name": "getStatus",
      "outputs": [
        {
          "internalType": "enum Auction.AuctionStatus",
          "name": "",
          "type": "uint8"
        }
      ],
      "stateMutability": "view",
      "type": "function"
    },
    {
      "inputs": [
        {
          "internalType": "bytes32",
          "name": "role",
          "type": "bytes32"
        },
        {
          "internalType": "address",
          "name": "account",
          "type": "address"
        }
      ],
      "name": "grantRole",
      "outputs": [],
      "stateMutability": "nonpayable",
      "type": "function"
    },
    {
      "inputs": [
        {
          "internalType": "bytes32",
          "name": "role",
          "type": "bytes32"
        },
        {
          "internalType": "address",
          "name": "account",
          "type": "address"
        }
      ],
      "name": "hasRole",
      "outputs": [
        {
          "internalType": "bool",
          "name": "",
          "type": "bool"
        }
      ],
      "stateMutability": "view",
      "type": "function"
    },
    {
      "inputs": [
        {
          "components": [
            {
              "internalType": "address",
              "name": "token",
              "type": "address"
            },
            {
              "internalType": "address",
              "name": "bidCoin",
              "type": "address"
            },
            {
              "internalType": "uint256",
              "name": "numberOfTokensToBeDistributed",
              "type": "uint256"
            },
            {
              "internalType": "uint256",
              "name": "rate",
              "type": "uint256"
            },
            {
              "internalType": "uint256",
              "name": "finalRate",
              "type": "uint256"
            },
            {
              "internalType": "uint256",
              "name": "limit",
              "type": "uint256"
            }
          ],
          "internalType": "struct Auction.auctionParameters",
          "name": "params",
          "type": "tuple"
        }
      ],
      "name": "initialize",
      "outputs": [],
      "stateMutability": "nonpayable",
      "type": "function"
    },
    {
      "inputs": [],
      "name": "latestEndTime",
      "outputs": [
        {
          "internalType": "uint256",
          "name": "",
          "type": "uint256"
        }
      ],
      "stateMutability": "view",
      "type": "function"
    },
    {
      "inputs": [],
      "name": "manualFinish",
      "outputs": [],
      "stateMutability": "nonpayable",
      "type": "function"
    },
    {
      "inputs": [
        {
          "internalType": "bytes[]",
          "name": "data",
          "type": "bytes[]"
        }
      ],
      "name": "multicall",
      "outputs": [
        {
          "internalType": "bytes[]",
          "name": "results",
          "type": "bytes[]"
        }
      ],
      "stateMutability": "nonpayable",
      "type": "function"
    },
    {
      "inputs": [],
      "name": "numberOfTokensToBeDistributed",
      "outputs": [
        {
          "internalType": "uint256",
          "name": "",
          "type": "uint256"
        }
      ],
      "stateMutability": "view",
      "type": "function"
    },
    {
      "inputs": [
        {
          "internalType": "uint256",
          "name": "pauseTimeInHours",
          "type": "uint256"
        }
      ],
      "name": "pauseAuction",
      "outputs": [],
      "stateMutability": "nonpayable",
      "type": "function"
    },
    {
      "inputs": [],
      "name": "projectToken",
      "outputs": [
        {
          "internalType": "contract ERC20MintableBurnableUpgradeable",
          "name": "",
          "type": "address"
        }
      ],
      "stateMutability": "view",
      "type": "function"
    },
    {
      "inputs": [],
      "name": "projectWallet",
      "outputs": [
        {
          "internalType": "address",
          "name": "",
          "type": "address"
        }
      ],
      "stateMutability": "view",
      "type": "function"
    },
    {
      "inputs": [],
      "name": "rate",
      "outputs": [
        {
          "internalType": "uint256",
          "name": "",
          "type": "uint256"
        }
      ],
      "stateMutability": "view",
      "type": "function"
    },
    {
      "inputs": [
        {
          "internalType": "bytes32",
          "name": "role",
          "type": "bytes32"
        },
        {
          "internalType": "address",
          "name": "account",
          "type": "address"
        }
      ],
      "name": "renounceRole",
      "outputs": [],
      "stateMutability": "nonpayable",
      "type": "function"
    },
    {
      "inputs": [
        {
          "internalType": "bytes32",
          "name": "role",
          "type": "bytes32"
        },
        {
          "internalType": "address",
          "name": "account",
          "type": "address"
        }
      ],
      "name": "revokeRole",
      "outputs": [],
      "stateMutability": "nonpayable",
      "type": "function"
    },
    {
      "inputs": [
        {
          "internalType": "address",
          "name": "wallet",
          "type": "address"
        }
      ],
      "name": "setTeamWallet",
      "outputs": [],
      "stateMutability": "nonpayable",
      "type": "function"
    },
    {
      "inputs": [],
      "name": "soldProjectTokens",
      "outputs": [
        {
          "internalType": "uint256",
          "name": "",
          "type": "uint256"
        }
      ],
      "stateMutability": "view",
      "type": "function"
    },
    {
      "inputs": [
        {
          "internalType": "uint256",
          "name": "maximumAuctionTimeInHours",
          "type": "uint256"
        }
      ],
      "name": "startAuction",
      "outputs": [],
      "stateMutability": "nonpayable",
      "type": "function"
    },
    {
      "inputs": [],
      "name": "startTime",
      "outputs": [
        {
          "internalType": "uint256",
          "name": "",
          "type": "uint256"
        }
      ],
      "stateMutability": "view",
      "type": "function"
    },
    {
      "inputs": [],
      "name": "status",
      "outputs": [
        {
          "internalType": "enum Auction.AuctionStatus",
          "name": "",
          "type": "uint8"
        }
      ],
      "stateMutability": "view",
      "type": "function"
    },
    {
      "inputs": [
        {
          "internalType": "bytes4",
          "name": "interfaceId",
          "type": "bytes4"
        }
      ],
      "name": "supportsInterface",
      "outputs": [
        {
          "internalType": "bool",
          "name": "",
          "type": "bool"
        }
      ],
      "stateMutability": "view",
      "type": "function"
    },
    {
      "inputs": [],
      "name": "totalDepositedSucoins",
      "outputs": [
        {
          "internalType": "uint256",
          "name": "",
          "type": "uint256"
        }
      ],
      "stateMutability": "view",
      "type": "function"
    }
  ],
  "bytecode": "0x60806040523480156200001157600080fd5b50600054610100900460ff1615808015620000335750600054600160ff909116105b8062000063575062000050306200013d60201b62000cb81760201c565b15801562000063575060005460ff166001145b620000cb5760405162461bcd60e51b815260206004820152602e60248201527f496e697469616c697a61626c653a20636f6e747261637420697320616c72656160448201526d191e481a5b9a5d1a585b1a5e995960921b606482015260840160405180910390fd5b6000805460ff191660011790558015620000ef576000805461ff0019166101001790555b801562000136576000805461ff0019169055604051600181527f7f26b83ff96e1f2b6a682f133852f6798a09c465da95921460cefb38474024989060200160405180910390a15b506200014c565b6001600160a01b03163b151590565b612529806200015c6000396000f3fe608060405234801561001057600080fd5b50600436106101e55760003560e01c80634e69d5601161010f578063a217fddf116100a2578063beb08ab911610071578063beb08ab9146103de578063d547741f146103f6578063f7fb07b014610409578063f9f8bdb71461041157600080fd5b8063a217fddf1461039a578063a51993db146103a2578063ac9650d8146103b5578063b296558d146103d557600080fd5b806378e97925116100de57806378e97925146103605780638b3e56e1146103695780638f61f4f51461037257806391d148541461038757600080fd5b80634e69d56014610333578063610b4f361461033b57806363c5f7c11461034e57806375caa9ef1461035757600080fd5b806321106109116101875780632f2ff15d116101565780632f2ff15d146102cf57806336568abe146102e2578063454a2ab3146102f55780634b60ce771461030857600080fd5b80632110610914610292578063228e248e1461029b578063248a9ca3146102a35780632c4e722e146102c657600080fd5b80631525ff7d116101c35780631525ff7d1461022f5780631a87a934146102425780631d6833aa14610255578063200d2ed21461027857600080fd5b806301ffc9a7146101ea578063065de74c146102125780630dda507e14610227575b600080fd5b6101fd6101f8366004611f0f565b61041a565b60405190151581526020015b60405180910390f35b610225610220366004611f39565b610451565b005b610225610463565b61022561023d366004611f69565b610540565b610225610250366004611f84565b610581565b61026a6000805160206124d483398151915281565b604051908152602001610209565b609b546102859060ff1681565b6040516102099190611fb2565b61026a60a25481565b6102256106a7565b61026a6102b1366004611f39565b60009081526065602052604090206001015490565b61026a60a15481565b6102256102dd366004611fda565b610723565b6102256102f0366004611fda565b61074d565b610225610303366004611f39565b6107c7565b609d5461031b906001600160a01b031681565b6040516001600160a01b039091168152602001610209565b610285610a3c565b610225610349366004611f39565b610aa7565b61026a609c5481565b61026a60995481565b61026a60985481565b61026a609f5481565b61026a6000805160206124b483398151915281565b6101fd610395366004611fda565b610ab8565b61026a600081565b60975461031b906001600160a01b031681565b6103c86103c3366004612006565b610ae3565b60405161020991906120cb565b61026a609e5481565b609b5461031b9061010090046001600160a01b031681565b610225610404366004611fda565b610bd8565b61026a610bfd565b61026a60a05481565b60006001600160e01b03198216637965db0b60e01b148061044b57506301ffc9a760e01b6001600160e01b03198316145b92915050565b61045a81610cc7565b5060995460a355565b6002609b5460ff16600381111561047c5761047c611f9c565b14801561048b5750609a544210155b1561049e57609b805460ff191660011790555b6001609b5460ff1660038111156104b7576104b7611f9c565b1480156104c657506099544210155b156104d3576104d3610d4f565b6003609b5460ff1660038111156104ec576104ec611f9c565b1461053e5760405162461bcd60e51b815260206004820152601c60248201527f41756374696f6e20686173206e6f742066696e6973686564207965740000000060448201526064015b60405180910390fd5b565b6000805160206124d483398151915261055881610e3b565b50609b80546001600160a01b0390921661010002610100600160a81b0319909216919091179055565b600054610100900460ff16158080156105a15750600054600160ff909116105b806105bb5750303b1580156105bb575060005460ff166001145b61061e5760405162461bcd60e51b815260206004820152602e60248201527f496e697469616c697a61626c653a20636f6e747261637420697320616c72656160448201526d191e481a5b9a5d1a585b1a5e995960921b6064820152608401610535565b6000805460ff191660011790558015610641576000805461ff0019166101001790555b61064a82610e45565b61065382610e7e565b61065c82610eb3565b80156106a3576000805461ff0019169055604051600181527f7f26b83ff96e1f2b6a682f133852f6798a09c465da95921460cefb3847402498906020015b60405180910390a15b5050565b60006106b281610e3b565b6003609b5460ff1660038111156106cb576106cb611f9c565b036107185760405162461bcd60e51b815260206004820152601a60248201527f546869732041756374696f6e20616c726561647920656e6465640000000000006044820152606401610535565b610720610d4f565b50565b60008281526065602052604090206001015461073e81610e3b565b6107488383610f96565b505050565b6001600160a01b03811633146107bd5760405162461bcd60e51b815260206004820152602f60248201527f416363657373436f6e74726f6c3a2063616e206f6e6c792072656e6f756e636560448201526e103937b632b9903337b91039b2b63360891b6064820152608401610535565b6106a3828261101c565b6002609b5460ff1660038111156107e0576107e0611f9c565b1480156107ef5750609a544210155b1561080257609b805460ff191660011790555b6001609b5460ff16600381111561081b5761081b611f9c565b14801561082a57506099544210155b1561083757610720610d4f565b6001609b5460ff16600381111561085057610850611f9c565b146108965760405162461bcd60e51b815260206004820152601660248201527541756374696f6e206973206e6f742072756e6e696e6760501b6044820152606401610535565b609b5461010090046001600160a01b03166108f35760405162461bcd60e51b815260206004820152601960248201527f50726f6a6563742077616c6c6574206973206e6f7420736574000000000000006044820152606401610535565b609b5461010090046001600160a01b031633036109525760405162461bcd60e51b815260206004820152601960248201527f50726f6a6563742077616c6c65742063616e6e6f7420626964000000000000006044820152606401610535565b61096a6000805160206124b483398151915233610ab8565b156109ae5760405162461bcd60e51b8152602060048201526014602482015273141c9bdc1bdcd95c9cc818d85b9b9bdd08189a5960621b6044820152606401610535565b600081116109fe5760405162461bcd60e51b815260206004820152601a60248201527f596f75206e65656420746f2062696420736f6d6520636f696e730000000000006044820152606401610535565b60405181815233907f9c89e828e6cee6374b68147c9e753e41746aad98ba255a527a4fc0ac1868bff99060200160405180910390a261072081611083565b609b5460009060ff166002816003811115610a5957610a59611f9c565b148015610a685750609a544210155b15610a71575060015b6001609b5460ff166003811115610a8a57610a8a611f9c565b148015610a9957506099544210155b15610aa2575060035b919050565b610aaf61122f565b6107208161129d565b60009182526065602090815260408084206001600160a01b0393909316845291905290205460ff1690565b60608167ffffffffffffffff811115610afe57610afe61212d565b604051908082528060200260200182016040528015610b3157816020015b6060815260200190600190039081610b1c5790505b50905060005b82811015610bd157610ba130858584818110610b5557610b55612143565b9050602002810190610b679190612159565b8080601f01602080910402602001604051908101604052809392919081815260200183838082843760009201919091525061143a92505050565b828281518110610bb357610bb3612143565b60200260200101819052508080610bc9906121bd565b915050610b37565b5092915050565b600082815260656020526040902060010154610bf381610e3b565b610748838361101c565b60008060985460a354610c1091906121d6565b9050609854600003610c2457505060a15490565b6099544210610c3557505060a25490565b6003609b5460ff166003811115610c4e57610c4e611f9c565b1480610c5b5750609a5442105b15610c6857505060a05490565b8042609954610c7791906121d6565b610c8190836121d6565b60a25460a154610c9191906121d6565b610c9b91906121e9565b610ca59190612200565b60a154610cb291906121d6565b91505090565b6001600160a01b03163b151590565b6000805160206124b4833981519152610cdf81610e3b565b610ce882611466565b609b805460ff1916600190811790915542609855610d079083906121e9565b610d119042612222565b60998190556098546040517ff8910119ddbef5440c54532457dfe8250a10ed39e583292818f44724b9e1344c9261069a928252602082015260400190565b610d61609b805460ff19166003179055565b6000609e54609f54610d7391906121d6565b90508015610dfb57609d54609b5460405163a9059cbb60e01b81526001600160a01b03610100909204821660048201526024810184905291169063a9059cbb906044016020604051808303816000875af1158015610dd5573d6000803e3d6000fd5b505050506040513d601f19601f82011682018060405250810190610df99190612235565b505b60a0546040805142815260208101929092527fa26f614dfadbd6fab0e2c34abdab71ad292b06a4b47d63fda8dc3ccb85cb5209910160405180910390a150565b610720813361152d565b600054610100900460ff16610e6c5760405162461bcd60e51b815260040161053590612257565b610e7581611591565b610720816115c9565b600054610100900460ff16610ea55760405162461bcd60e51b815260040161053590612257565b6060013560a181905560a055565b600054610100900460ff16610eda5760405162461bcd60e51b815260040161053590612257565b608081013560a2819055610f305760405162461bcd60e51b815260206004820181905260248201527f46696e616c2052617465206d75737420626520686967686572207468616e20306044820152606401610535565b60a15460a254106107205760405162461bcd60e51b815260206004820152602a60248201527f46696e616c2052617465206d757374206265206c6f776572207468616e20496e604482015269697469616c207261746560b01b6064820152608401610535565b610fa08282610ab8565b6106a35760008281526065602090815260408083206001600160a01b03851684529091529020805460ff19166001179055610fd83390565b6001600160a01b0316816001600160a01b0316837f2f8788117e7eff1d82e926ec794901d17c78024a50270940304540a733656f0d60405160405180910390a45050565b6110268282610ab8565b156106a35760008281526065602090815260408083206001600160a01b0385168085529252808320805460ff1916905551339285917ff6391f5c32d9c69d2a47ea670b442974b53935d1edc7fd64eb21e047a839171b9190a45050565b61108b61122f565b6000609e54609f5461109d91906121d6565b9050600081116110ef5760405162461bcd60e51b815260206004820152601d60248201527f4e6f20636f696e73206c65667420666f72207468652061756374696f6e0000006044820152606401610535565b6110fb8260a0546116a0565b91506000609d60009054906101000a90046001600160a01b03166001600160a01b031663313ce5676040518163ffffffff1660e01b8152600401602060405180830381865afa158015611152573d6000803e3d6000fd5b505050506040513d601f19601f8201168201806040525081019061117691906122a2565b61118190600a6123a9565b8260a05461118f91906121e9565b6111999190612200565b90506111a58282612200565b83101561120e5760405162461bcd60e51b815260206004820152603160248201527f426964636f696e20616d6f756e74206c6f776572207468616e2072657175697260448201527032b2103a3790313abc9030903a37b5b2b760791b6064820152608401610535565b8083106112265761121e8161170a565b610748610d4f565b6107488361170a565b6000611239610bfd565b905060a05481146107205760408051818152600b818301526a63757272656e745261746560a81b60608201526020810183905290517fb325f51492db6a3e2d42f7d2c7721750691a0cf7e6c3e4bd2b940b35282573809181900360800190a160a055565b6002609b5460ff1660038111156112b6576112b6611f9c565b1480156112c55750609a544210155b156112d857609b805460ff191660011790555b6001609b5460ff1660038111156112f1576112f1611f9c565b14801561130057506099544210155b1561130d57610720610d4f565b600061131881610e3b565b6001609b5460ff16600381111561133157611331611f9c565b146113775760405162461bcd60e51b815260206004820152601660248201527541756374696f6e206973206e6f742072756e6e696e6760501b6044820152606401610535565b600082116113c75760405162461bcd60e51b815260206004820152601960248201527f50617573652054696d65206d757374206265206c6f6e676572000000000000006044820152606401610535565b6113d28260016121e9565b6113dc9042612222565b609a81905560995442916113f09190612222565b6113fa91906121d6565b609955609b805460ff191660021790556040518281527fbfbe0eeb9851e98d21f973d30f11b8dacd485bc42ea47fe58b3335603741543f9060200161069a565b606061145f838360405180606001604052806027815260200161248d602791396118ee565b9392505050565b6000609b5460ff16600381111561147f5761147f611f9c565b146114dd5760405162461bcd60e51b815260206004820152602860248201527f41756374696f6e20616c72656164792073746172746564206f7220616c726561604482015267191e48195b99195960c21b6064820152608401610535565b600081116107205760405162461bcd60e51b815260206004820152601b60248201527f41756374696f6e2054696d65206d757374206265206c6f6e67657200000000006044820152606401610535565b6115378282610ab8565b6106a35761154f816001600160a01b031660146119cb565b61155a8360206119cb565b60405160200161156b9291906123b8565b60408051601f198184030181529082905262461bcd60e51b82526105359160040161242d565b600054610100900460ff166115b85760405162461bcd60e51b815260040161053590612257565b6115c0611b67565b61072081611b8e565b600054610100900460ff166115f05760405162461bcd60e51b815260040161053590612257565b600081604001351161166a5760405162461bcd60e51b815260206004820152603c60248201527f41756374696f6e2063616e6e6f742068617070656e206265636175736520746860448201527f65726520617265206e6f20746f6b656e7320746f2061756374696f6e000000006064820152608401610535565b6116776020820182611f69565b609d80546001600160a01b0319166001600160a01b039290921691909117905560400135609f55565b6000806116ec83846116c787609760009054906101000a90046001600160a01b0316611c3b565b6116d19190612200565b6116db91906121e9565b6097546001600160a01b0316611cb4565b6116f690856121d6565b905061170281856121d6565b949350505050565b609754604051636eb1769f60e11b81523360048201523060248201526000916001600160a01b03169063dd62ed3e90604401602060405180830381865afa158015611759573d6000803e3d6000fd5b505050506040513d601f19601f8201168201806040525081019061177d9190612440565b9050818110156117de5760405162461bcd60e51b815260206004820152602660248201527f417070726f7665642062696420636f696e20616d6f756e74206973206e6f74206044820152650cadcdeeaced60d31b6064820152608401610535565b609754609b546040516323b872dd60e01b81523360048201526001600160a01b0361010090920482166024820152604481018590529116906323b872dd906064016020604051808303816000875af115801561183e573d6000803e3d6000fd5b505050506040513d601f19601f820116820180604052508101906118629190612235565b5081609c60008282546118759190612222565b9091555050609c546040517fb325f51492db6a3e2d42f7d2c7721750691a0cf7e6c3e4bd2b940b3528257380916118dd91604080825260159082015274746f74616c4465706f73697465645375636f696e7360581b6060820152602081019190915260800190565b60405180910390a16106a382611d2d565b60606001600160a01b0384163b6119565760405162461bcd60e51b815260206004820152602660248201527f416464726573733a2064656c65676174652063616c6c20746f206e6f6e2d636f6044820152651b9d1c9858dd60d21b6064820152608401610535565b600080856001600160a01b0316856040516119719190612459565b600060405180830381855af49150503d80600081146119ac576040519150601f19603f3d011682016040523d82523d6000602084013e6119b1565b606091505b50915091506119c1828286611e8b565b9695505050505050565b606060006119da8360026121e9565b6119e5906002612222565b67ffffffffffffffff8111156119fd576119fd61212d565b6040519080825280601f01601f191660200182016040528015611a27576020820181803683370190505b509050600360fc1b81600081518110611a4257611a42612143565b60200101906001600160f81b031916908160001a905350600f60fb1b81600181518110611a7157611a71612143565b60200101906001600160f81b031916908160001a9053506000611a958460026121e9565b611aa0906001612222565b90505b6001811115611b18576f181899199a1a9b1b9c1cb0b131b232b360811b85600f1660108110611ad457611ad4612143565b1a60f81b828281518110611aea57611aea612143565b60200101906001600160f81b031916908160001a90535060049490941c93611b1181612475565b9050611aa3565b50831561145f5760405162461bcd60e51b815260206004820181905260248201527f537472696e67733a20686578206c656e67746820696e73756666696369656e746044820152606401610535565b600054610100900460ff1661053e5760405162461bcd60e51b815260040161053590612257565b600054610100900460ff16611bb55760405162461bcd60e51b815260040161053590612257565b611bc0600033610f96565b611be66000805160206124b48339815191526000805160206124d4833981519152611ec4565b611bfe6000805160206124d483398151915233610f96565b609b805460ff19169055611c186040820160208301611f69565b609780546001600160a01b0319166001600160a01b039290921691909117905550565b6000816001600160a01b031663313ce5676040518163ffffffff1660e01b8152600401602060405180830381865afa158015611c7b573d6000803e3d6000fd5b505050506040513d601f19601f82011682018060405250810190611c9f91906122a2565b611caa90600a6123a9565b61145f90846121e9565b6000816001600160a01b031663313ce5676040518163ffffffff1660e01b8152600401602060405180830381865afa158015611cf4573d6000803e3d6000fd5b505050506040513d601f19601f82011682018060405250810190611d1891906122a2565b611d2390600a6123a9565b61145f9084612200565b60a054609d546040805163313ce56760e01b81529051600093926001600160a01b03169163313ce5679160048083019260209291908290030181865afa158015611d7b573d6000803e3d6000fd5b505050506040513d601f19601f82011682018060405250810190611d9f91906122a2565b611daa90600a6123a9565b611db490846121e9565b611dbe9190612200565b609d5460405163a9059cbb60e01b8152336004820152602481018390529192506001600160a01b03169063a9059cbb906044016020604051808303816000875af1158015611e10573d6000803e3d6000fd5b505050506040513d601f19601f82011682018060405250810190611e349190612235565b5080609e6000828254611e479190612222565b9091555050604080518381526020810183905233917f28cab0d660ed8aedd61a8c9db00b97f6a2d67e07d87795994f440b18bc5f1aa3910160405180910390a25050565b60608315611e9a57508161145f565b825115611eaa5782518084602001fd5b8160405162461bcd60e51b8152600401610535919061242d565b600082815260656020526040808220600101805490849055905190918391839186917fbd79b86ffe0ab8e8776151514217cd7cacd52c909f66475c3af44e129f0b00ff9190a4505050565b600060208284031215611f2157600080fd5b81356001600160e01b03198116811461145f57600080fd5b600060208284031215611f4b57600080fd5b5035919050565b80356001600160a01b0381168114610aa257600080fd5b600060208284031215611f7b57600080fd5b61145f82611f52565b600060c08284031215611f9657600080fd5b50919050565b634e487b7160e01b600052602160045260246000fd5b6020810160048310611fd457634e487b7160e01b600052602160045260246000fd5b91905290565b60008060408385031215611fed57600080fd5b82359150611ffd60208401611f52565b90509250929050565b6000806020838503121561201957600080fd5b823567ffffffffffffffff8082111561203157600080fd5b818501915085601f83011261204557600080fd5b81358181111561205457600080fd5b8660208260051b850101111561206957600080fd5b60209290920196919550909350505050565b60005b8381101561209657818101518382015260200161207e565b50506000910152565b600081518084526120b781602086016020860161207b565b601f01601f19169290920160200192915050565b6000602080830181845280855180835260408601915060408160051b870101925083870160005b8281101561212057603f1988860301845261210e85835161209f565b945092850192908501906001016120f2565b5092979650505050505050565b634e487b7160e01b600052604160045260246000fd5b634e487b7160e01b600052603260045260246000fd5b6000808335601e1984360301811261217057600080fd5b83018035915067ffffffffffffffff82111561218b57600080fd5b6020019150368190038213156121a057600080fd5b9250929050565b634e487b7160e01b600052601160045260246000fd5b6000600182016121cf576121cf6121a7565b5060010190565b8181038181111561044b5761044b6121a7565b808202811582820484141761044b5761044b6121a7565b60008261221d57634e487b7160e01b600052601260045260246000fd5b500490565b8082018082111561044b5761044b6121a7565b60006020828403121561224757600080fd5b8151801515811461145f57600080fd5b6020808252602b908201527f496e697469616c697a61626c653a20636f6e7472616374206973206e6f74206960408201526a6e697469616c697a696e6760a81b606082015260800190565b6000602082840312156122b457600080fd5b815160ff8116811461145f57600080fd5b600181815b808511156123005781600019048211156122e6576122e66121a7565b808516156122f357918102915b93841c93908002906122ca565b509250929050565b6000826123175750600161044b565b816123245750600061044b565b816001811461233a576002811461234457612360565b600191505061044b565b60ff841115612355576123556121a7565b50506001821b61044b565b5060208310610133831016604e8410600b8410161715612383575081810a61044b565b61238d83836122c5565b80600019048211156123a1576123a16121a7565b029392505050565b600061145f60ff841683612308565b7f416363657373436f6e74726f6c3a206163636f756e74200000000000000000008152600083516123f081601785016020880161207b565b7001034b99036b4b9b9b4b733903937b6329607d1b601791840191820152835161242181602884016020880161207b565b01602801949350505050565b60208152600061145f602083018461209f565b60006020828403121561245257600080fd5b5051919050565b6000825161246b81846020870161207b565b9190910192915050565b600081612484576124846121a7565b50600019019056fe416464726573733a206c6f772d6c6576656c2064656c65676174652063616c6c206661696c6564b09aa5aeb3702cfd50b6b62bc4532604938f21248a27a1d5ca736082b6819cc19989001599306562c281f170efd64bd922b630d9e66fafc71949876c6ceb48c6a26469706673582212206ecf50f88acdd5a705843b4957bd51362bfeec22851dde677e2ac0c6379103fa64736f6c63430008110033",
  "linkReferences": {},
  "deployedLinkReferences": {}
}