{
  "_format": "hh-sol-artifact-1",
  "contractName": "FCFSAuction",
  "sourceName": "contracts/UpgradeableAuctions/FCFSAuction.sol",
  "abi": [
    {
      "anonymous": false,
      "inputs": [
        {
          "indexed": false,
          "internalType": "uint256",
          "name": "end",
          "type": "uint256"
        },
        {
          "indexed": false,
          "internalType": "uint256",
          "name": "finalPrice",
          "type": "uint256"
        }
      ],
      "name": "AuctionFinished",
      "type": "event"
    },
    {
      "anonymous": false,
      "inputs": [
        {
          "indexed": false,
          "internalType": "uint256",
          "name": "pauseDuration",
          "type": "uint256"
        }
      ],
      "name": "AuctionPaused",
      "type": "event"
    },
    {
      "anonymous": false,
      "inputs": [
        {
          "indexed": false,
          "internalType": "uint256",
          "name": "start",
          "type": "uint256"
        },
        {
          "indexed": false,
          "internalType": "uint256",
          "name": "end",
          "type": "uint256"
        }
      ],
      "name": "AuctionStarted",
      "type": "event"
    },
    {
      "anonymous": false,
      "inputs": [
        {
          "indexed": true,
          "internalType": "address",
          "name": "sender",
          "type": "address"
        },
        {
          "indexed": false,
          "internalType": "uint256",
          "name": "amount",
          "type": "uint256"
        }
      ],
      "name": "BidSubmission",
      "type": "event"
    },
    {
      "anonymous": false,
      "inputs": [
        {
          "indexed": false,
          "internalType": "uint8",
          "name": "version",
          "type": "uint8"
        }
      ],
      "name": "Initialized",
      "type": "event"
    },
    {
      "anonymous": false,
      "inputs": [
        {
          "indexed": true,
          "internalType": "bytes32",
          "name": "role",
          "type": "bytes32"
        },
        {
          "indexed": true,
          "internalType": "bytes32",
          "name": "previousAdminRole",
          "type": "bytes32"
        },
        {
          "indexed": true,
          "internalType": "bytes32",
          "name": "newAdminRole",
          "type": "bytes32"
        }
      ],
      "name": "RoleAdminChanged",
      "type": "event"
    },
    {
      "anonymous": false,
      "inputs": [
        {
          "indexed": true,
          "internalType": "bytes32",
          "name": "role",
          "type": "bytes32"
        },
        {
          "indexed": true,
          "internalType": "address",
          "name": "account",
          "type": "address"
        },
        {
          "indexed": true,
          "internalType": "address",
          "name": "sender",
          "type": "address"
        }
      ],
      "name": "RoleGranted",
      "type": "event"
    },
    {
      "anonymous": false,
      "inputs": [
        {
          "indexed": true,
          "internalType": "bytes32",
          "name": "role",
          "type": "bytes32"
        },
        {
          "indexed": true,
          "internalType": "address",
          "name": "account",
          "type": "address"
        },
        {
          "indexed": true,
          "internalType": "address",
          "name": "sender",
          "type": "address"
        }
      ],
      "name": "RoleRevoked",
      "type": "event"
    },
    {
      "anonymous": false,
      "inputs": [
        {
          "indexed": true,
          "internalType": "address",
          "name": "buyer",
          "type": "address"
        },
        {
          "indexed": false,
          "internalType": "uint256",
          "name": "usedBidCoinAmount",
          "type": "uint256"
        },
        {
          "indexed": false,
          "internalType": "uint256",
          "name": "boughtTokenAmount",
          "type": "uint256"
        }
      ],
      "name": "TokenBought",
      "type": "event"
    },
    {
      "anonymous": false,
      "inputs": [
        {
          "indexed": false,
          "internalType": "string",
          "name": "variable",
          "type": "string"
        },
        {
          "indexed": false,
          "internalType": "uint256",
          "name": "value",
          "type": "uint256"
        }
      ],
      "name": "VariableChange",
      "type": "event"
    },
    {
      "inputs": [],
      "name": "DEFAULT_ADMIN_ROLE",
      "outputs": [
        {
          "internalType": "bytes32",
          "name": "",
          "type": "bytes32"
        }
      ],
      "stateMutability": "view",
      "type": "function"
    },
    {
      "inputs": [],
      "name": "PROPOSER_ADMIN_ROLE",
      "outputs": [
        {
          "internalType": "bytes32",
          "name": "",
          "type": "bytes32"
        }
      ],
      "stateMutability": "view",
      "type": "function"
    },
    {
      "inputs": [],
      "name": "PROPOSER_ROLE",
      "outputs": [
        {
          "internalType": "bytes32",
          "name": "",
          "type": "bytes32"
        }
      ],
      "stateMutability": "view",
      "type": "function"
    },
    {
      "inputs": [
        {
          "internalType": "uint256",
          "name": "bidCoinBits",
          "type": "uint256"
        }
      ],
      "name": "bid",
      "outputs": [],
      "stateMutability": "nonpayable",
      "type": "function"
    },
    {
      "inputs": [],
      "name": "bidCoin",
      "outputs": [
        {
          "internalType": "contract WrapperToken",
          "name": "",
          "type": "address"
        }
      ],
      "stateMutability": "view",
      "type": "function"
    },
    {
      "inputs": [],
      "name": "currentRate",
      "outputs": [
        {
          "internalType": "uint256",
          "name": "",
          "type": "uint256"
        }
      ],
      "stateMutability": "view",
      "type": "function"
    },
    {
      "inputs": [],
      "name": "forcedManualFinish",
      "outputs": [],
      "stateMutability": "nonpayable",
      "type": "function"
    },
    {
      "inputs": [],
      "name": "getCurrentRate",
      "outputs": [
        {
          "internalType": "uint256",
          "name": "current",
          "type": "uint256"
        }
      ],
      "stateMutability": "view",
      "type": "function"
    },
    {
      "inputs": [
        {
          "internalType": "bytes32",
          "name": "role",
          "type": "bytes32"
        }
      ],
      "name": "getRoleAdmin",
      "outputs": [
        {
          "internalType": "bytes32",
          "name": "",
          "type": "bytes32"
        }
      ],
      "stateMutability": "view",
      "type": "function"
    },
    {
      "inputs": [],
      "name": "getStatus",
      "outputs": [
        {
          "internalType": "enum Auction.AuctionStatus",
          "name": "",
          "type": "uint8"
        }
      ],
      "stateMutability": "view",
      "type": "function"
    },
    {
      "inputs": [
        {
          "internalType": "bytes32",
          "name": "role",
          "type": "bytes32"
        },
        {
          "internalType": "address",
          "name": "account",
          "type": "address"
        }
      ],
      "name": "grantRole",
      "outputs": [],
      "stateMutability": "nonpayable",
      "type": "function"
    },
    {
      "inputs": [
        {
          "internalType": "bytes32",
          "name": "role",
          "type": "bytes32"
        },
        {
          "internalType": "address",
          "name": "account",
          "type": "address"
        }
      ],
      "name": "hasRole",
      "outputs": [
        {
          "internalType": "bool",
          "name": "",
          "type": "bool"
        }
      ],
      "stateMutability": "view",
      "type": "function"
    },
    {
      "inputs": [
        {
          "components": [
            {
              "internalType": "address",
              "name": "token",
              "type": "address"
            },
            {
              "internalType": "address",
              "name": "bidCoin",
              "type": "address"
            },
            {
              "internalType": "uint256",
              "name": "numberOfTokensToBeDistributed",
              "type": "uint256"
            },
            {
              "internalType": "uint256",
              "name": "rate",
              "type": "uint256"
            },
            {
              "internalType": "uint256",
              "name": "finalRate",
              "type": "uint256"
            },
            {
              "internalType": "uint256",
              "name": "limit",
              "type": "uint256"
            }
          ],
          "internalType": "struct Auction.auctionParameters",
          "name": "params",
          "type": "tuple"
        }
      ],
      "name": "initialize",
      "outputs": [],
      "stateMutability": "nonpayable",
      "type": "function"
    },
    {
      "inputs": [],
      "name": "latestEndTime",
      "outputs": [
        {
          "internalType": "uint256",
          "name": "",
          "type": "uint256"
        }
      ],
      "stateMutability": "view",
      "type": "function"
    },
    {
      "inputs": [],
      "name": "manualFinish",
      "outputs": [],
      "stateMutability": "nonpayable",
      "type": "function"
    },
    {
      "inputs": [
        {
          "internalType": "bytes[]",
          "name": "data",
          "type": "bytes[]"
        }
      ],
      "name": "multicall",
      "outputs": [
        {
          "internalType": "bytes[]",
          "name": "results",
          "type": "bytes[]"
        }
      ],
      "stateMutability": "nonpayable",
      "type": "function"
    },
    {
      "inputs": [],
      "name": "numberOfTokensToBeDistributed",
      "outputs": [
        {
          "internalType": "uint256",
          "name": "",
          "type": "uint256"
        }
      ],
      "stateMutability": "view",
      "type": "function"
    },
    {
      "inputs": [
        {
          "internalType": "uint256",
          "name": "pauseTimeInHours",
          "type": "uint256"
        }
      ],
      "name": "pauseAuction",
      "outputs": [],
      "stateMutability": "nonpayable",
      "type": "function"
    },
    {
      "inputs": [],
      "name": "projectToken",
      "outputs": [
        {
          "internalType": "contract ERC20MintableBurnableUpgradeable",
          "name": "",
          "type": "address"
        }
      ],
      "stateMutability": "view",
      "type": "function"
    },
    {
      "inputs": [],
      "name": "projectWallet",
      "outputs": [
        {
          "internalType": "address",
          "name": "",
          "type": "address"
        }
      ],
      "stateMutability": "view",
      "type": "function"
    },
    {
      "inputs": [],
      "name": "rate",
      "outputs": [
        {
          "internalType": "uint256",
          "name": "",
          "type": "uint256"
        }
      ],
      "stateMutability": "view",
      "type": "function"
    },
    {
      "inputs": [
        {
          "internalType": "bytes32",
          "name": "role",
          "type": "bytes32"
        },
        {
          "internalType": "address",
          "name": "account",
          "type": "address"
        }
      ],
      "name": "renounceRole",
      "outputs": [],
      "stateMutability": "nonpayable",
      "type": "function"
    },
    {
      "inputs": [
        {
          "internalType": "bytes32",
          "name": "role",
          "type": "bytes32"
        },
        {
          "internalType": "address",
          "name": "account",
          "type": "address"
        }
      ],
      "name": "revokeRole",
      "outputs": [],
      "stateMutability": "nonpayable",
      "type": "function"
    },
    {
      "inputs": [
        {
          "internalType": "address",
          "name": "wallet",
          "type": "address"
        }
      ],
      "name": "setTeamWallet",
      "outputs": [],
      "stateMutability": "nonpayable",
      "type": "function"
    },
    {
      "inputs": [],
      "name": "soldProjectTokens",
      "outputs": [
        {
          "internalType": "uint256",
          "name": "",
          "type": "uint256"
        }
      ],
      "stateMutability": "view",
      "type": "function"
    },
    {
      "inputs": [
        {
          "internalType": "uint256",
          "name": "maximumAuctionTimeInHours",
          "type": "uint256"
        }
      ],
      "name": "startAuction",
      "outputs": [],
      "stateMutability": "nonpayable",
      "type": "function"
    },
    {
      "inputs": [],
      "name": "startTime",
      "outputs": [
        {
          "internalType": "uint256",
          "name": "",
          "type": "uint256"
        }
      ],
      "stateMutability": "view",
      "type": "function"
    },
    {
      "inputs": [],
      "name": "status",
      "outputs": [
        {
          "internalType": "enum Auction.AuctionStatus",
          "name": "",
          "type": "uint8"
        }
      ],
      "stateMutability": "view",
      "type": "function"
    },
    {
      "inputs": [
        {
          "internalType": "bytes4",
          "name": "interfaceId",
          "type": "bytes4"
        }
      ],
      "name": "supportsInterface",
      "outputs": [
        {
          "internalType": "bool",
          "name": "",
          "type": "bool"
        }
      ],
      "stateMutability": "view",
      "type": "function"
    },
    {
      "inputs": [],
      "name": "totalDepositedSucoins",
      "outputs": [
        {
          "internalType": "uint256",
          "name": "",
          "type": "uint256"
        }
      ],
      "stateMutability": "view",
      "type": "function"
    }
  ],
  "bytecode": "0x60806040523480156200001157600080fd5b50600054610100900460ff1615808015620000335750600054600160ff909116105b8062000063575062000050306200013d60201b62000de91760201c565b15801562000063575060005460ff166001145b620000cb5760405162461bcd60e51b815260206004820152602e60248201527f496e697469616c697a61626c653a20636f6e747261637420697320616c72656160448201526d191e481a5b9a5d1a585b1a5e995960921b606482015260840160405180910390fd5b6000805460ff191660011790558015620000ef576000805461ff0019166101001790555b801562000136576000805461ff0019169055604051600181527f7f26b83ff96e1f2b6a682f133852f6798a09c465da95921460cefb38474024989060200160405180910390a15b506200014c565b6001600160a01b03163b151590565b612353806200015c6000396000f3fe608060405234801561001057600080fd5b50600436106101da5760003560e01c8063610b4f3611610104578063a217fddf116100a2578063beb08ab911610071578063beb08ab9146103ca578063d547741f146103e2578063f7fb07b0146103f5578063f9f8bdb7146103fd57600080fd5b8063a217fddf14610386578063a51993db1461038e578063ac9650d8146103a1578063b296558d146103c157600080fd5b806378e97925116100de57806378e979251461034c5780638b3e56e1146103555780638f61f4f51461035e57806391d148541461037357600080fd5b8063610b4f361461032757806363c5f7c11461033a57806375caa9ef1461034357600080fd5b8063228e248e1161017c57806336568abe1161014b57806336568abe146102ce578063454a2ab3146102e15780634b60ce77146102f45780634e69d5601461031f57600080fd5b8063228e248e14610287578063248a9ca31461028f5780632c4e722e146102b25780632f2ff15d146102bb57600080fd5b80631525ff7d116101b85780631525ff7d146102245780631a87a934146102375780631d6833aa1461024a578063200d2ed21461026d57600080fd5b806301ffc9a7146101df578063065de74c146102075780630dda507e1461021c575b600080fd5b6101f26101ed366004611d39565b610406565b60405190151581526020015b60405180910390f35b61021a610215366004611d63565b61043d565b005b61021a6104d1565b61021a610232366004611d93565b6105ae565b61021a610245366004611dae565b6105ef565b61025f6000805160206122fe83398151915281565b6040519081526020016101fe565b609b5461027a9060ff1681565b6040516101fe9190611ddc565b61021a610707565b61025f61029d366004611d63565b60009081526065602052604090206001015490565b61025f60a15481565b61021a6102c9366004611e04565b610783565b61021a6102dc366004611e04565b6107ad565b61021a6102ef366004611d63565b610827565b609d54610307906001600160a01b031681565b6040516001600160a01b0390911681526020016101fe565b61027a610a9c565b61021a610335366004611d63565b610b07565b61025f609c5481565b61025f60995481565b61025f60985481565b61025f609f5481565b61025f6000805160206122de83398151915281565b6101f2610381366004611e04565b610ca4565b61025f600081565b609754610307906001600160a01b031681565b6103b46103af366004611e30565b610ccf565b6040516101fe9190611ef5565b61025f609e5481565b609b546103079061010090046001600160a01b031681565b61021a6103f0366004611e04565b610dc4565b60a05461025f565b61025f60a05481565b60006001600160e01b03198216637965db0b60e01b148061043757506301ffc9a760e01b6001600160e01b03198316145b92915050565b6000805160206122de83398151915261045581610df8565b61045e82610e02565b609b805460ff191660019081179091554260985561047d908390611f6d565b6104879042611f84565b60998190556098546040517ff8910119ddbef5440c54532457dfe8250a10ed39e583292818f44724b9e1344c926104c5928252602082015260400190565b60405180910390a15050565b6002609b5460ff1660038111156104ea576104ea611dc6565b1480156104f95750609a544210155b1561050c57609b805460ff191660011790555b6001609b5460ff16600381111561052557610525611dc6565b14801561053457506099544210155b1561054157610541610ec9565b6003609b5460ff16600381111561055a5761055a611dc6565b146105ac5760405162461bcd60e51b815260206004820152601c60248201527f41756374696f6e20686173206e6f742066696e6973686564207965740000000060448201526064015b60405180910390fd5b565b6000805160206122fe8339815191526105c681610df8565b50609b80546001600160a01b0390921661010002610100600160a81b0319909216919091179055565b600054610100900460ff161580801561060f5750600054600160ff909116105b806106295750303b158015610629575060005460ff166001145b61068c5760405162461bcd60e51b815260206004820152602e60248201527f496e697469616c697a61626c653a20636f6e747261637420697320616c72656160448201526d191e481a5b9a5d1a585b1a5e995960921b60648201526084016105a3565b6000805460ff1916600117905580156106af576000805461ff0019166101001790555b6106b882610fb5565b6106c182610fee565b8015610703576000805461ff0019169055604051600181527f7f26b83ff96e1f2b6a682f133852f6798a09c465da95921460cefb3847402498906020016104c5565b5050565b600061071281610df8565b6003609b5460ff16600381111561072b5761072b611dc6565b036107785760405162461bcd60e51b815260206004820152601a60248201527f546869732041756374696f6e20616c726561647920656e64656400000000000060448201526064016105a3565b610780610ec9565b50565b60008281526065602052604090206001015461079e81610df8565b6107a88383611023565b505050565b6001600160a01b038116331461081d5760405162461bcd60e51b815260206004820152602f60248201527f416363657373436f6e74726f6c3a2063616e206f6e6c792072656e6f756e636560448201526e103937b632b9903337b91039b2b63360891b60648201526084016105a3565b61070382826110a9565b6002609b5460ff16600381111561084057610840611dc6565b14801561084f5750609a544210155b1561086257609b805460ff191660011790555b6001609b5460ff16600381111561087b5761087b611dc6565b14801561088a57506099544210155b1561089757610780610ec9565b6001609b5460ff1660038111156108b0576108b0611dc6565b146108f65760405162461bcd60e51b815260206004820152601660248201527541756374696f6e206973206e6f742072756e6e696e6760501b60448201526064016105a3565b609b5461010090046001600160a01b03166109535760405162461bcd60e51b815260206004820152601960248201527f50726f6a6563742077616c6c6574206973206e6f74207365740000000000000060448201526064016105a3565b609b5461010090046001600160a01b031633036109b25760405162461bcd60e51b815260206004820152601960248201527f50726f6a6563742077616c6c65742063616e6e6f74206269640000000000000060448201526064016105a3565b6109ca6000805160206122de83398151915233610ca4565b15610a0e5760405162461bcd60e51b8152602060048201526014602482015273141c9bdc1bdcd95c9cc818d85b9b9bdd08189a5960621b60448201526064016105a3565b60008111610a5e5760405162461bcd60e51b815260206004820152601a60248201527f596f75206e65656420746f2062696420736f6d6520636f696e7300000000000060448201526064016105a3565b60405181815233907f9c89e828e6cee6374b68147c9e753e41746aad98ba255a527a4fc0ac1868bff99060200160405180910390a261078081611110565b609b5460009060ff166002816003811115610ab957610ab9611dc6565b148015610ac85750609a544210155b15610ad1575060015b6001609b5460ff166003811115610aea57610aea611dc6565b148015610af957506099544210155b15610b02575060035b919050565b6002609b5460ff166003811115610b2057610b20611dc6565b148015610b2f5750609a544210155b15610b4257609b805460ff191660011790555b6001609b5460ff166003811115610b5b57610b5b611dc6565b148015610b6a57506099544210155b15610b7757610780610ec9565b6000610b8281610df8565b6001609b5460ff166003811115610b9b57610b9b611dc6565b14610be15760405162461bcd60e51b815260206004820152601660248201527541756374696f6e206973206e6f742072756e6e696e6760501b60448201526064016105a3565b60008211610c315760405162461bcd60e51b815260206004820152601960248201527f50617573652054696d65206d757374206265206c6f6e6765720000000000000060448201526064016105a3565b610c3c826001611f6d565b610c469042611f84565b609a8190556099544291610c5a9190611f84565b610c649190611f97565b609955609b805460ff191660021790556040518281527fbfbe0eeb9851e98d21f973d30f11b8dacd485bc42ea47fe58b3335603741543f906020016104c5565b60009182526065602090815260408084206001600160a01b0393909316845291905290205460ff1690565b60608167ffffffffffffffff811115610cea57610cea611faa565b604051908082528060200260200182016040528015610d1d57816020015b6060815260200190600190039081610d085790505b50905060005b82811015610dbd57610d8d30858584818110610d4157610d41611fc0565b9050602002810190610d539190611fd6565b8080601f0160208091040260200160405190810160405280939291908181526020018383808284376000920191909152506112bc92505050565b828281518110610d9f57610d9f611fc0565b60200260200101819052508080610db590612024565b915050610d23565b5092915050565b600082815260656020526040902060010154610ddf81610df8565b6107a883836110a9565b6001600160a01b03163b151590565b61078081336112e8565b6000609b5460ff166003811115610e1b57610e1b611dc6565b14610e795760405162461bcd60e51b815260206004820152602860248201527f41756374696f6e20616c72656164792073746172746564206f7220616c726561604482015267191e48195b99195960c21b60648201526084016105a3565b600081116107805760405162461bcd60e51b815260206004820152601b60248201527f41756374696f6e2054696d65206d757374206265206c6f6e676572000000000060448201526064016105a3565b610edb609b805460ff19166003179055565b6000609e54609f54610eed9190611f97565b90508015610f7557609d54609b5460405163a9059cbb60e01b81526001600160a01b03610100909204821660048201526024810184905291169063a9059cbb906044016020604051808303816000875af1158015610f4f573d6000803e3d6000fd5b505050506040513d601f19601f82011682018060405250810190610f73919061203d565b505b60a0546040805142815260208101929092527fa26f614dfadbd6fab0e2c34abdab71ad292b06a4b47d63fda8dc3ccb85cb5209910160405180910390a150565b600054610100900460ff16610fdc5760405162461bcd60e51b81526004016105a39061205f565b610fe58161134c565b61078081611384565b600054610100900460ff166110155760405162461bcd60e51b81526004016105a39061205f565b6060013560a181905560a055565b61102d8282610ca4565b6107035760008281526065602090815260408083206001600160a01b03851684529091529020805460ff191660011790556110653390565b6001600160a01b0316816001600160a01b0316837f2f8788117e7eff1d82e926ec794901d17c78024a50270940304540a733656f0d60405160405180910390a45050565b6110b38282610ca4565b156107035760008281526065602090815260408083206001600160a01b0385168085529252808320805460ff1916905551339285917ff6391f5c32d9c69d2a47ea670b442974b53935d1edc7fd64eb21e047a839171b9190a45050565b61111861145b565b6000609e54609f5461112a9190611f97565b90506000811161117c5760405162461bcd60e51b815260206004820152601d60248201527f4e6f20636f696e73206c65667420666f72207468652061756374696f6e00000060448201526064016105a3565b6111888260a0546114ca565b91506000609d60009054906101000a90046001600160a01b03166001600160a01b031663313ce5676040518163ffffffff1660e01b8152600401602060405180830381865afa1580156111df573d6000803e3d6000fd5b505050506040513d601f19601f8201168201806040525081019061120391906120aa565b61120e90600a6121b1565b8260a05461121c9190611f6d565b61122691906121c0565b905061123282826121c0565b83101561129b5760405162461bcd60e51b815260206004820152603160248201527f426964636f696e20616d6f756e74206c6f776572207468616e2072657175697260448201527032b2103a3790313abc9030903a37b5b2b760791b60648201526084016105a3565b8083106112b3576112ab81611534565b6107a8610ec9565b6107a883611534565b60606112e183836040518060600160405280602781526020016122b760279139611718565b9392505050565b6112f28282610ca4565b6107035761130a816001600160a01b031660146117f5565b6113158360206117f5565b6040516020016113269291906121e2565b60408051601f198184030181529082905262461bcd60e51b82526105a391600401612257565b600054610100900460ff166113735760405162461bcd60e51b81526004016105a39061205f565b61137b611991565b610780816119b8565b600054610100900460ff166113ab5760405162461bcd60e51b81526004016105a39061205f565b60008160400135116114255760405162461bcd60e51b815260206004820152603c60248201527f41756374696f6e2063616e6e6f742068617070656e206265636175736520746860448201527f65726520617265206e6f20746f6b656e7320746f2061756374696f6e0000000060648201526084016105a3565b6114326020820182611d93565b609d80546001600160a01b0319166001600160a01b039290921691909117905560400135609f55565b600061146660a05490565b905060a05481146107805760408051818152600b818301526a63757272656e745261746560a81b60608201526020810183905290517fb325f51492db6a3e2d42f7d2c7721750691a0cf7e6c3e4bd2b940b35282573809181900360800190a160a055565b60008061151683846114f187609760009054906101000a90046001600160a01b0316611a65565b6114fb91906121c0565b6115059190611f6d565b6097546001600160a01b0316611ade565b6115209085611f97565b905061152c8185611f97565b949350505050565b609754604051636eb1769f60e11b81523360048201523060248201526000916001600160a01b03169063dd62ed3e90604401602060405180830381865afa158015611583573d6000803e3d6000fd5b505050506040513d601f19601f820116820180604052508101906115a7919061226a565b9050818110156116085760405162461bcd60e51b815260206004820152602660248201527f417070726f7665642062696420636f696e20616d6f756e74206973206e6f74206044820152650cadcdeeaced60d31b60648201526084016105a3565b609754609b546040516323b872dd60e01b81523360048201526001600160a01b0361010090920482166024820152604481018590529116906323b872dd906064016020604051808303816000875af1158015611668573d6000803e3d6000fd5b505050506040513d601f19601f8201168201806040525081019061168c919061203d565b5081609c600082825461169f9190611f84565b9091555050609c546040517fb325f51492db6a3e2d42f7d2c7721750691a0cf7e6c3e4bd2b940b35282573809161170791604080825260159082015274746f74616c4465706f73697465645375636f696e7360581b6060820152602081019190915260800190565b60405180910390a161070382611b57565b60606001600160a01b0384163b6117805760405162461bcd60e51b815260206004820152602660248201527f416464726573733a2064656c65676174652063616c6c20746f206e6f6e2d636f6044820152651b9d1c9858dd60d21b60648201526084016105a3565b600080856001600160a01b03168560405161179b9190612283565b600060405180830381855af49150503d80600081146117d6576040519150601f19603f3d011682016040523d82523d6000602084013e6117db565b606091505b50915091506117eb828286611cb5565b9695505050505050565b60606000611804836002611f6d565b61180f906002611f84565b67ffffffffffffffff81111561182757611827611faa565b6040519080825280601f01601f191660200182016040528015611851576020820181803683370190505b509050600360fc1b8160008151811061186c5761186c611fc0565b60200101906001600160f81b031916908160001a905350600f60fb1b8160018151811061189b5761189b611fc0565b60200101906001600160f81b031916908160001a90535060006118bf846002611f6d565b6118ca906001611f84565b90505b6001811115611942576f181899199a1a9b1b9c1cb0b131b232b360811b85600f16601081106118fe576118fe611fc0565b1a60f81b82828151811061191457611914611fc0565b60200101906001600160f81b031916908160001a90535060049490941c9361193b8161229f565b90506118cd565b5083156112e15760405162461bcd60e51b815260206004820181905260248201527f537472696e67733a20686578206c656e67746820696e73756666696369656e7460448201526064016105a3565b600054610100900460ff166105ac5760405162461bcd60e51b81526004016105a39061205f565b600054610100900460ff166119df5760405162461bcd60e51b81526004016105a39061205f565b6119ea600033611023565b611a106000805160206122de8339815191526000805160206122fe833981519152611cee565b611a286000805160206122fe83398151915233611023565b609b805460ff19169055611a426040820160208301611d93565b609780546001600160a01b0319166001600160a01b039290921691909117905550565b6000816001600160a01b031663313ce5676040518163ffffffff1660e01b8152600401602060405180830381865afa158015611aa5573d6000803e3d6000fd5b505050506040513d601f19601f82011682018060405250810190611ac991906120aa565b611ad490600a6121b1565b6112e19084611f6d565b6000816001600160a01b031663313ce5676040518163ffffffff1660e01b8152600401602060405180830381865afa158015611b1e573d6000803e3d6000fd5b505050506040513d601f19601f82011682018060405250810190611b4291906120aa565b611b4d90600a6121b1565b6112e190846121c0565b60a054609d546040805163313ce56760e01b81529051600093926001600160a01b03169163313ce5679160048083019260209291908290030181865afa158015611ba5573d6000803e3d6000fd5b505050506040513d601f19601f82011682018060405250810190611bc991906120aa565b611bd490600a6121b1565b611bde9084611f6d565b611be891906121c0565b609d5460405163a9059cbb60e01b8152336004820152602481018390529192506001600160a01b03169063a9059cbb906044016020604051808303816000875af1158015611c3a573d6000803e3d6000fd5b505050506040513d601f19601f82011682018060405250810190611c5e919061203d565b5080609e6000828254611c719190611f84565b9091555050604080518381526020810183905233917f28cab0d660ed8aedd61a8c9db00b97f6a2d67e07d87795994f440b18bc5f1aa3910160405180910390a25050565b60608315611cc45750816112e1565b825115611cd45782518084602001fd5b8160405162461bcd60e51b81526004016105a39190612257565b600082815260656020526040808220600101805490849055905190918391839186917fbd79b86ffe0ab8e8776151514217cd7cacd52c909f66475c3af44e129f0b00ff9190a4505050565b600060208284031215611d4b57600080fd5b81356001600160e01b0319811681146112e157600080fd5b600060208284031215611d7557600080fd5b5035919050565b80356001600160a01b0381168114610b0257600080fd5b600060208284031215611da557600080fd5b6112e182611d7c565b600060c08284031215611dc057600080fd5b50919050565b634e487b7160e01b600052602160045260246000fd5b6020810160048310611dfe57634e487b7160e01b600052602160045260246000fd5b91905290565b60008060408385031215611e1757600080fd5b82359150611e2760208401611d7c565b90509250929050565b60008060208385031215611e4357600080fd5b823567ffffffffffffffff80821115611e5b57600080fd5b818501915085601f830112611e6f57600080fd5b813581811115611e7e57600080fd5b8660208260051b8501011115611e9357600080fd5b60209290920196919550909350505050565b60005b83811015611ec0578181015183820152602001611ea8565b50506000910152565b60008151808452611ee1816020860160208601611ea5565b601f01601f19169290920160200192915050565b6000602080830181845280855180835260408601915060408160051b870101925083870160005b82811015611f4a57603f19888603018452611f38858351611ec9565b94509285019290850190600101611f1c565b5092979650505050505050565b634e487b7160e01b600052601160045260246000fd5b808202811582820484141761043757610437611f57565b8082018082111561043757610437611f57565b8181038181111561043757610437611f57565b634e487b7160e01b600052604160045260246000fd5b634e487b7160e01b600052603260045260246000fd5b6000808335601e19843603018112611fed57600080fd5b83018035915067ffffffffffffffff82111561200857600080fd5b60200191503681900382131561201d57600080fd5b9250929050565b60006001820161203657612036611f57565b5060010190565b60006020828403121561204f57600080fd5b815180151581146112e157600080fd5b6020808252602b908201527f496e697469616c697a61626c653a20636f6e7472616374206973206e6f74206960408201526a6e697469616c697a696e6760a81b606082015260800190565b6000602082840312156120bc57600080fd5b815160ff811681146112e157600080fd5b600181815b808511156121085781600019048211156120ee576120ee611f57565b808516156120fb57918102915b93841c93908002906120d2565b509250929050565b60008261211f57506001610437565b8161212c57506000610437565b8160018114612142576002811461214c57612168565b6001915050610437565b60ff84111561215d5761215d611f57565b50506001821b610437565b5060208310610133831016604e8410600b841016171561218b575081810a610437565b61219583836120cd565b80600019048211156121a9576121a9611f57565b029392505050565b60006112e160ff841683612110565b6000826121dd57634e487b7160e01b600052601260045260246000fd5b500490565b7f416363657373436f6e74726f6c3a206163636f756e742000000000000000000081526000835161221a816017850160208801611ea5565b7001034b99036b4b9b9b4b733903937b6329607d1b601791840191820152835161224b816028840160208801611ea5565b01602801949350505050565b6020815260006112e16020830184611ec9565b60006020828403121561227c57600080fd5b5051919050565b60008251612295818460208701611ea5565b9190910192915050565b6000816122ae576122ae611f57565b50600019019056fe416464726573733a206c6f772d6c6576656c2064656c65676174652063616c6c206661696c6564b09aa5aeb3702cfd50b6b62bc4532604938f21248a27a1d5ca736082b6819cc19989001599306562c281f170efd64bd922b630d9e66fafc71949876c6ceb48c6a264697066735822122096213a65acca624fe5bba970e0a8d78d8dd87b3d9b0a53535a5308bca6d703cb64736f6c63430008110033",
  "linkReferences": {},
  "deployedLinkReferences": {}
}