{
  "_format": "hh-sol-artifact-1",
  "contractName": "BokkyPooBahsRedBlackTreeLibrary",
  "sourceName": "contracts/libraries/BokkyPooBahsRedBlackTreeLibrary.sol",
  "abi": [
    {
      "inputs": [],
      "name": "getEmpty",
      "outputs": [
        {
          "internalType": "uint256",
          "name": "",
          "type": "uint256"
        }
      ],
      "stateMutability": "pure",
      "type": "function"
    },
    {
      "inputs": [
        {
          "internalType": "uint256",
          "name": "key",
          "type": "uint256"
        }
      ],
      "name": "isEmpty",
      "outputs": [
        {
          "internalType": "bool",
          "name": "",
          "type": "bool"
        }
      ],
      "stateMutability": "pure",
      "type": "function"
    }
  ],
  "bytecode": "0x6110c961003a600b82828239805160001a60731461002d57634e487b7160e01b600052600060045260246000fd5b30600052607381538281f3fe73000000000000000000000000000000000000000030146080604052600436106100a85760003560e01c8063df07631611610070578063df07631614610132578063ee6ea9a71461016f578063ef0881fe14610182578063ef47c5e7146101a2578063f90cfeef146101b557600080fd5b806334bbc3ca146100ad57806344733ae1146100d35780639b469012146100da578063a87541a5146100fd578063d1612f0f14610110575b600080fd5b6100c06100bb366004611058565b6101c7565b6040519081526020015b60405180910390f35b60006100c0565b6100ed6100e8366004611058565b61026a565b60405190151581526020016100ca565b6100c061010b366004611058565b61029b565b81801561011c57600080fd5b5061013061012b366004611058565b610331565b005b610145610140366004611058565b61055d565b6040805195865260208601949094529284019190915260608301521515608082015260a0016100ca565b6100c061017d36600461107a565b6105ad565b81801561018e57600080fd5b5061013061019d366004611058565b6105ed565b6100c06101b036600461107a565b610706565b6100ed6101c336600461107a565b1590565b6000816101d357600080fd5b60008281526001808501602052604090912001541561021257600082815260018085016020526040909120015461020b908490610741565b9050610264565b5060008181526001830160205260409020545b80158015906102465750600081815260018085016020526040909120015482145b15610264576000818152600184016020526040902054909150610225565b92915050565b60008115801590610294575082548214806102945750600082815260018401602052604090205415155b9392505050565b6000816102a757600080fd5b6000828152600184016020526040902060020154156102df57600082815260018401602052604090206002015461020b90849061077e565b5060008181526001830160205260409020545b80158015906103135750600081815260018401602052604090206002015482145b156102645760008181526001840160205260409020549091506102f2565b8061033b57600080fd5b610345828261026a565b61034e57600080fd5b600081815260018084016020526040822001548190158061038057506000838152600185016020526040902060020154155b1561038c5750816103d4565b5060008281526001840160205260409020600201545b6000818152600180860160205260409091200154156103d45760009081526001808501602052604090912001546103a2565b600081815260018086016020526040909120015415610408576000818152600180860160205260409091200154915061041f565b600081815260018501602052604090206002015491505b6000818152600185016020526040808220548483529120819055801561048f57600081815260018087016020526040909120015482036104745760008181526001808701602052604090912001839055610493565b60008181526001860160205260409020600201839055610493565b8285555b600082815260018601602052604090206003015460ff161584831461051d576104bd8684876107b6565b60008581526001878101602052604080832080830154878552828520938401819055845281842087905560028082015490840181905584529083208690556003908101549286905201805460ff191660ff90921615159190911790559193915b801561052d5761052d868561082c565b5050600090815260019384016020526040812081815593840181905560028401555050600301805460ff19169055565b600080600080600061056f878761026a565b61057857600080fd5b505050600083815260019485016020526040902080549481015460028201546003909201549496909491935060ff9091169150565b805480156105e8575b6000818152600180840160205260409091200154156105e85760009081526001808301602052604090912001546105b6565b919050565b806105f757600080fd5b610601828261026a565b1561060b57600080fd5b81546000905b8015610654578091508083101561063b576000908152600180850160205260409091200154610611565b6000908152600184016020526040902060020154610611565b60408051608081018252838152600060208083018281528385018381526001606086018181528a86528b82019094529590932093518455519383019390935551600282015590516003909101805460ff1916911515919091179055816106bc578284556106f6565b818310156106df57600082815260018086016020526040909120018390556106f6565b600082815260018501602052604090206002018390555b6107008484610c45565b50505050565b805480156105e8575b6000818152600183016020526040902060020154156105e857600090815260018201602052604090206002015461070f565b60005b6000828152600184016020526040902060020154156107785760009182526001830160205260409091206002015490610744565b50919050565b60005b600082815260018085016020526040909120015415610778576000918252600180840160205260409092209091015490610781565b6000818152600184016020526040808220548483529120819055806107dd57828455610700565b600081815260018086016020526040909120015482036108125760008181526001808601602052604090912001839055610700565b600090815260019390930160205250604090912060020155565b60005b825482148015906108545750600082815260018401602052604090206003015460ff16155b15610c265760008281526001808501602052604080832054808452922001548303610a4f5760008181526001850160205260408082206002015480835291206003015490925060ff16156108f7576000828152600180860160205260408083206003908101805460ff199081169091558585529190932090920180549092161790556108e08482610ead565b600081815260018501602052604090206002015491505b60008281526001808601602052604080832090910154825290206003015460ff161580156109425750600082815260018501602052604080822060020154825290206003015460ff16155b1561096f57600082815260018581016020526040909120600301805460ff19169091179055915081610c20565b600082815260018501602052604080822060020154825290206003015460ff166109ec576000828152600180860160205260408083208083015484529083206003908101805460ff19908116909155938690520180549092161790556109d58483610f84565b600081815260018501602052604090206002015491505b600081815260018501602052604080822060039081018054868552838520808401805460ff909316151560ff199384161790558254821690925560029091015484529190922090910180549091169055610a468482610ead565b83549250610c20565b6000818152600180860160205260408083209091015480835291206003015490925060ff1615610ace576000828152600180860160205260408083206003908101805460ff19908116909155858552919093209092018054909216179055610ab78482610f84565b600081815260018086016020526040909120015491505b600082815260018501602052604080822060020154825290206003015460ff16158015610b19575060008281526001808601602052604080832090910154825290206003015460ff16155b15610b4657600082815260018581016020526040909120600301805460ff19169091179055915081610c20565b60008281526001808601602052604080832090910154825290206003015460ff16610bc557600082815260018086016020526040808320600281015484529083206003908101805460ff1990811690915593869052018054909216179055610bae8483610ead565b600081815260018086016020526040909120015491505b60008181526001808601602052604080832060039081018054878652838620808401805460ff909316151560ff19938416179055825482169092559301548452922090910180549091169055610c1b8482610f84565b835492505b5061082f565b506000908152600190910160205260409020600301805460ff19169055565b60005b82548214801590610c725750600082815260018401602052604080822054825290206003015460ff165b15610e8b5760008281526001808501602052604080832054808452818420548452922001548103610d935760008181526001850160205260408082205482528082206002015480835291206003015490925060ff1615610d1a576000818152600180860160205260408083206003808201805460ff19908116909155878652838620820180548216905582548652928520018054909216909217905590829052549250610e85565b60008181526001850160205260409020600201548303610d4157809250610d418484610ead565b50600082815260018085016020526040808320548084528184206003808201805460ff19908116909155825487529386200180549093169093179091559182905254610d8e908590610f84565b610e85565b6000818152600180860160205260408083205483528083209091015480835291206003015490925060ff1615610e11576000818152600180860160205260408083206003808201805460ff19908116909155878652838620820180548216905582548652928520018054909216909217905590829052549250610e85565b60008181526001808601602052604090912001548303610e3857809250610e388484610f84565b50600082815260018085016020526040808320548084528184206003808201805460ff19908116909155825487529386200180549093169093179091559182905254610e85908590610ead565b50610c48565b505080546000908152600190910160205260409020600301805460ff19169055565b600081815260018084016020526040808320600281018054915482865292852090930154938590529183905590918015610ef557600081815260018601602052604090208490555b6000838152600186016020526040902082905581610f1557828555610f61565b60008281526001808701602052604090912001548403610f4a5760008281526001808701602052604090912001839055610f61565b600082815260018601602052604090206002018390555b505060008181526001938401602052604080822090940183905591825291902055565b60008181526001808401602052604080832091820180549254838552918420600201549385905283905590918015610fca57600081815260018601602052604090208490555b6000838152600186016020526040902082905581610fea57828555611036565b6000828152600186016020526040902060020154840361101f5760008281526001860160205260409020600201839055611036565b600082815260018087016020526040909120018390555b5050600081815260019093016020526040808420600201839055918352912055565b6000806040838503121561106b57600080fd5b50508035926020909101359150565b60006020828403121561108c57600080fd5b503591905056fea264697066735822122098bea5ac051171ac9129741cb82e68098e9c93795916810bd2b0ca855e3aa80c64736f6c63430008110033",
  "linkReferences": {},
  "deployedLinkReferences": {}
}