{
  "_format": "hh-sol-artifact-1",
  "contractName": "ProjectRegister",
  "sourceName": "contracts/ProjectRegister.sol",
  "abi": [
    {
      "inputs": [
        {
          "internalType": "uint256",
          "name": "_threshold",
          "type": "uint256"
        }
      ],
      "stateMutability": "nonpayable",
      "type": "constructor"
    },
    {
      "anonymous": false,
      "inputs": [
        {
          "indexed": false,
          "internalType": "address",
          "name": "from",
          "type": "address"
        },
        {
          "indexed": false,
          "internalType": "address",
          "name": "to",
          "type": "address"
        }
      ],
      "name": "AdminChange",
      "type": "event"
    },
    {
      "anonymous": false,
      "inputs": [
        {
          "indexed": true,
          "internalType": "bytes32",
          "name": "projectHash",
          "type": "bytes32"
        },
        {
          "indexed": false,
          "internalType": "bool",
          "name": "isApproved",
          "type": "bool"
        }
      ],
      "name": "ProjectEvaluation",
      "type": "event"
    },
    {
      "anonymous": false,
      "inputs": [
        {
          "indexed": true,
          "internalType": "address",
          "name": "from",
          "type": "address"
        },
        {
          "indexed": false,
          "internalType": "bytes32",
          "name": "projectHash",
          "type": "bytes32"
        }
      ],
      "name": "Register",
      "type": "event"
    },
    {
      "anonymous": false,
      "inputs": [
        {
          "indexed": true,
          "internalType": "bytes32",
          "name": "role",
          "type": "bytes32"
        },
        {
          "indexed": true,
          "internalType": "bytes32",
          "name": "previousAdminRole",
          "type": "bytes32"
        },
        {
          "indexed": true,
          "internalType": "bytes32",
          "name": "newAdminRole",
          "type": "bytes32"
        }
      ],
      "name": "RoleAdminChanged",
      "type": "event"
    },
    {
      "anonymous": false,
      "inputs": [
        {
          "indexed": true,
          "internalType": "bytes32",
          "name": "role",
          "type": "bytes32"
        },
        {
          "indexed": true,
          "internalType": "address",
          "name": "account",
          "type": "address"
        },
        {
          "indexed": true,
          "internalType": "address",
          "name": "sender",
          "type": "address"
        }
      ],
      "name": "RoleGranted",
      "type": "event"
    },
    {
      "anonymous": false,
      "inputs": [
        {
          "indexed": true,
          "internalType": "bytes32",
          "name": "role",
          "type": "bytes32"
        },
        {
          "indexed": true,
          "internalType": "address",
          "name": "account",
          "type": "address"
        },
        {
          "indexed": true,
          "internalType": "address",
          "name": "sender",
          "type": "address"
        }
      ],
      "name": "RoleRevoked",
      "type": "event"
    },
    {
      "anonymous": false,
      "inputs": [
        {
          "indexed": true,
          "internalType": "bytes32",
          "name": "project",
          "type": "bytes32"
        },
        {
          "indexed": false,
          "internalType": "address",
          "name": "from",
          "type": "address"
        },
        {
          "indexed": false,
          "internalType": "bool",
          "name": "decision",
          "type": "bool"
        },
        {
          "indexed": false,
          "internalType": "uint256",
          "name": "weight",
          "type": "uint256"
        }
      ],
      "name": "Vote",
      "type": "event"
    },
    {
      "anonymous": false,
      "inputs": [
        {
          "indexed": false,
          "internalType": "address",
          "name": "from",
          "type": "address"
        },
        {
          "indexed": false,
          "internalType": "address",
          "name": "to",
          "type": "address"
        },
        {
          "indexed": false,
          "internalType": "bytes32",
          "name": "project",
          "type": "bytes32"
        },
        {
          "indexed": false,
          "internalType": "uint256",
          "name": "weight",
          "type": "uint256"
        }
      ],
      "name": "VoteDelegate",
      "type": "event"
    },
    {
      "anonymous": false,
      "inputs": [
        {
          "indexed": true,
          "internalType": "address",
          "name": "user",
          "type": "address"
        }
      ],
      "name": "WhitelistInsert",
      "type": "event"
    },
    {
      "anonymous": false,
      "inputs": [
        {
          "indexed": true,
          "internalType": "address",
          "name": "user",
          "type": "address"
        }
      ],
      "name": "WhitelistRemove",
      "type": "event"
    },
    {
      "inputs": [],
      "name": "ADMIN_ROLE",
      "outputs": [
        {
          "internalType": "bytes32",
          "name": "",
          "type": "bytes32"
        }
      ],
      "stateMutability": "view",
      "type": "function"
    },
    {
      "inputs": [],
      "name": "DEFAULT_ADMIN_ROLE",
      "outputs": [
        {
          "internalType": "bytes32",
          "name": "",
          "type": "bytes32"
        }
      ],
      "stateMutability": "view",
      "type": "function"
    },
    {
      "inputs": [
        {
          "internalType": "address",
          "name": "to",
          "type": "address"
        },
        {
          "internalType": "bytes32",
          "name": "fileHash",
          "type": "bytes32"
        }
      ],
      "name": "delegate",
      "outputs": [],
      "stateMutability": "nonpayable",
      "type": "function"
    },
    {
      "inputs": [
        {
          "internalType": "address",
          "name": "user",
          "type": "address"
        },
        {
          "internalType": "enum ProjectRegister.USER_STATUS",
          "name": "newStatus",
          "type": "uint8"
        }
      ],
      "name": "editUserStatus",
      "outputs": [],
      "stateMutability": "nonpayable",
      "type": "function"
    },
    {
      "inputs": [
        {
          "internalType": "bytes32",
          "name": "role",
          "type": "bytes32"
        }
      ],
      "name": "getRoleAdmin",
      "outputs": [
        {
          "internalType": "bytes32",
          "name": "",
          "type": "bytes32"
        }
      ],
      "stateMutability": "view",
      "type": "function"
    },
    {
      "inputs": [
        {
          "internalType": "bytes32",
          "name": "role",
          "type": "bytes32"
        },
        {
          "internalType": "address",
          "name": "account",
          "type": "address"
        }
      ],
      "name": "grantRole",
      "outputs": [],
      "stateMutability": "nonpayable",
      "type": "function"
    },
    {
      "inputs": [
        {
          "internalType": "bytes32",
          "name": "role",
          "type": "bytes32"
        },
        {
          "internalType": "address",
          "name": "account",
          "type": "address"
        }
      ],
      "name": "hasRole",
      "outputs": [
        {
          "internalType": "bool",
          "name": "",
          "type": "bool"
        }
      ],
      "stateMutability": "view",
      "type": "function"
    },
    {
      "inputs": [
        {
          "internalType": "address",
          "name": "addr",
          "type": "address"
        },
        {
          "internalType": "bytes32",
          "name": "fileHash",
          "type": "bytes32"
        }
      ],
      "name": "isValidToDistribute",
      "outputs": [
        {
          "internalType": "bool",
          "name": "",
          "type": "bool"
        }
      ],
      "stateMutability": "view",
      "type": "function"
    },
    {
      "inputs": [
        {
          "internalType": "bytes32",
          "name": "",
          "type": "bytes32"
        }
      ],
      "name": "projectsRegistered",
      "outputs": [
        {
          "internalType": "uint256",
          "name": "approved",
          "type": "uint256"
        },
        {
          "internalType": "uint256",
          "name": "rejected",
          "type": "uint256"
        },
        {
          "internalType": "address",
          "name": "proposer",
          "type": "address"
        },
        {
          "internalType": "bool",
          "name": "finalized",
          "type": "bool"
        },
        {
          "internalType": "bool",
          "name": "decision",
          "type": "bool"
        }
      ],
      "stateMutability": "view",
      "type": "function"
    },
    {
      "inputs": [
        {
          "internalType": "bytes32",
          "name": "fileHash",
          "type": "bytes32"
        }
      ],
      "name": "registerProject",
      "outputs": [],
      "stateMutability": "nonpayable",
      "type": "function"
    },
    {
      "inputs": [
        {
          "internalType": "bytes32",
          "name": "fileHash",
          "type": "bytes32"
        }
      ],
      "name": "removeProject",
      "outputs": [],
      "stateMutability": "nonpayable",
      "type": "function"
    },
    {
      "inputs": [
        {
          "internalType": "bytes32",
          "name": "role",
          "type": "bytes32"
        },
        {
          "internalType": "address",
          "name": "account",
          "type": "address"
        }
      ],
      "name": "renounceRole",
      "outputs": [],
      "stateMutability": "nonpayable",
      "type": "function"
    },
    {
      "inputs": [
        {
          "internalType": "bytes32",
          "name": "role",
          "type": "bytes32"
        },
        {
          "internalType": "address",
          "name": "account",
          "type": "address"
        }
      ],
      "name": "revokeRole",
      "outputs": [],
      "stateMutability": "nonpayable",
      "type": "function"
    },
    {
      "inputs": [
        {
          "internalType": "address",
          "name": "",
          "type": "address"
        }
      ],
      "name": "statusList",
      "outputs": [
        {
          "internalType": "enum ProjectRegister.USER_STATUS",
          "name": "",
          "type": "uint8"
        }
      ],
      "stateMutability": "view",
      "type": "function"
    },
    {
      "inputs": [
        {
          "internalType": "bytes4",
          "name": "interfaceId",
          "type": "bytes4"
        }
      ],
      "name": "supportsInterface",
      "outputs": [
        {
          "internalType": "bool",
          "name": "",
          "type": "bool"
        }
      ],
      "stateMutability": "view",
      "type": "function"
    },
    {
      "inputs": [],
      "name": "threshold",
      "outputs": [
        {
          "internalType": "uint256",
          "name": "",
          "type": "uint256"
        }
      ],
      "stateMutability": "view",
      "type": "function"
    },
    {
      "inputs": [
        {
          "internalType": "bytes32",
          "name": "fileHash",
          "type": "bytes32"
        },
        {
          "internalType": "bool",
          "name": "decision",
          "type": "bool"
        }
      ],
      "name": "voteProposal",
      "outputs": [],
      "stateMutability": "nonpayable",
      "type": "function"
    },
    {
      "inputs": [],
      "name": "whitelistedCount",
      "outputs": [
        {
          "internalType": "uint256",
          "name": "",
          "type": "uint256"
        }
      ],
      "stateMutability": "view",
      "type": "function"
    }
  ],
  "bytecode": "0x60806040523480156200001157600080fd5b5060405162001b8b38038062001b8b833981016040819052620000349162000117565b6200004160003362000076565b6200006d7fa49807205ce4d355092ef5a8a18f56e8913cf4a201fbe287825b095693c217753362000076565b60055562000131565b6000828152602081815260408083206001600160a01b038516845290915290205460ff1662000113576000828152602081815260408083206001600160a01b03851684529091529020805460ff19166001179055620000d23390565b6001600160a01b0316816001600160a01b0316837f2f8788117e7eff1d82e926ec794901d17c78024a50270940304540a733656f0d60405160405180910390a45b5050565b6000602082840312156200012a57600080fd5b5051919050565b611a4a80620001416000396000f3fe608060405234801561001057600080fd5b50600436106101165760003560e01c8063663cdc36116100a2578063a217fddf11610071578063a217fddf1461026e578063a4c4d92214610276578063b2a1de2214610289578063d547741f14610292578063d945476a146102a557600080fd5b8063663cdc361461020e578063709248bf1461022157806375b238fc1461023457806391d148541461025b57600080fd5b80632f2ff15d116100e95780632f2ff15d146101b957806336568abe146101cc57806342cde4e8146101df57806344144dda146101e85780634968e2ac146101fb57600080fd5b806301ffc9a71461011b57806302be30fb1461014357806321897cdd14610173578063248a9ca314610188575b600080fd5b61012e6101293660046116d8565b61032a565b60405190151581526020015b60405180910390f35b61016661015136600461171e565b60026020526000908152604090205460ff1681565b60405161013a919061174f565b610186610181366004611777565b610361565b005b6101ab610196366004611777565b60009081526020819052604090206001015490565b60405190815260200161013a565b6101866101c7366004611790565b61049a565b6101866101da366004611790565b6104c4565b6101ab60055481565b6101866101f6366004611777565b610542565b6101866102093660046117bc565b61082c565b61018661021c3660046117f7565b610979565b61012e61022f3660046117f7565b610e0a565b6101ab7fa49807205ce4d355092ef5a8a18f56e8913cf4a201fbe287825b095693c2177581565b61012e610269366004611790565b610f42565b6101ab600081565b610186610284366004611821565b610f6b565b6101ab60045481565b6101866102a0366004611790565b6112e0565b6102f26102b3366004611777565b60016020819052600091825260409091208054918101546002909101546001600160a01b0381169060ff600160a01b8204811691600160a81b90041685565b6040805195865260208601949094526001600160a01b039092169284019290925290151560608301521515608082015260a00161013a565b60006001600160e01b03198216637965db0b60e01b148061035b57506301ffc9a760e01b6001600160e01b03198316145b92915050565b60023360009081526002602052604090205460ff16600381111561038757610387611739565b036103d05760405162461bcd60e51b8152602060048201526014602482015273155cd95c881a5cc81a5b88189b1858dadb1a5cdd60621b60448201526064015b60405180910390fd5b6000818152600160205260409020600201546001600160a01b0316156104385760405162461bcd60e51b815260206004820152601960248201527f50726f6a65637420416c7265616479204578697374732121210000000000000060448201526064016103c7565b6000818152600160205260409081902060020180546001600160a01b0319163390811790915590517f35b95fef243be6acd4535eb4b918ab1ef20a4c3eb373ff569d827c1660e1bcb09061048f9084815260200190565b60405180910390a250565b6000828152602081905260409020600101546104b581611305565b6104bf8383611312565b505050565b6001600160a01b03811633146105345760405162461bcd60e51b815260206004820152602f60248201527f416363657373436f6e74726f6c3a2063616e206f6e6c792072656e6f756e636560448201526e103937b632b9903337b91039b2b63360891b60648201526084016103c7565b61053e8282611396565b5050565b7fa49807205ce4d355092ef5a8a18f56e8913cf4a201fbe287825b095693c2177560026064610572836000610f42565b8061058257506105828333610f42565b6105e55760405162461bcd60e51b815260206004820152602e60248201527f596f7520646f6e27742068617665207065726d697373696f6e20746f2072756e60448201526d103a3434b990333ab731ba34b7b760911b60648201526084016103c7565b600060036000366040516105fa92919061184b565b9081526040519081900360200190206001810154909150819060000361062557436001830155610674565b828260010154436106369190611871565b1061067457600360003660405161064e92919061184b565b908152604051908190036020019020600061066982826116a6565b600182016000905550505b60005b815481101561072d57336001600160a01b031682828154811061069c5761069c611884565b6000918252602090912001546001600160a01b03160361071b5760405162461bcd60e51b815260206004820152603460248201527f596f752063616e2774207369676e2074776963652c20796f75206e65656420746044820152736f2077616974206f74686572207369676e65727360601b60648201526084016103c7565b806107258161189a565b915050610677565b5080546001810182556000828152602090200180546001600160a01b03191633179055805484900361082457600360003660405161076c92919061184b565b908152604051908190036020019020600061078782826116a6565b506000600191820181905587815260209190915260409020600201546001600160a01b03166107f85760405162461bcd60e51b815260206004820152601960248201527f50726f6a65637420446f6573206e6f742065786973742121210000000000000060448201526064016103c7565b600086815260016020819052604082208281559081019190915560020180546001600160b01b03191690555b505050505050565b7fa49807205ce4d355092ef5a8a18f56e8913cf4a201fbe287825b095693c2177561085681611305565b6001600160a01b03831660009081526002602052604090205460ff1680600381111561088457610884611739565b83600381111561089657610896611739565b036108e35760405162461bcd60e51b815260206004820152601c60248201527f5573657220616c7265616479206861732074686973207374617475730000000060448201526064016103c7565b60028160038111156108f7576108f7611739565b61090191906118c9565b600284600381111561091557610915611739565b61091f91906118c9565b60045461092c91906118dd565b6109369190611871565b6004556001600160a01b0384166000908152600260205260409020805484919060ff1916600183600381111561096e5761096e611739565b021790555050505050565b60013360009081526002602052604090205460ff16600381111561099f5761099f611739565b146109e75760405162461bcd60e51b8152602060048201526018602482015277155cd95c881a5cc81b9bdd081a5b881dda1a5d195b1a5cdd60421b60448201526064016103c7565b60008181526001602081815260408084203385526003019091529091200154819060ff1615610a4d5760405162461bcd60e51b8152602060048201526012602482015271155cd95c88185b1c9958591e481d9bdd195960721b60448201526064016103c7565b600082815260016020818152604080842033808652600390910190925290922001548390600160a81b900460ff16610abb5760008181526001602081815260408084206001600160a01b038716855260030190915290912081815501805460ff60a81b1916600160a81b1790555b60008481526001602081815260408084206001600160a01b038a168552600301909152909120015485908590600160a81b900460ff16610b315760008181526001602081815260408084206001600160a01b038716855260030190915290912081815501805460ff60a81b1916600160a81b1790555b6000868152600160209081526040808320338085526003909101909252909120906001600160a01b03891603610ba95760405162461bcd60e51b815260206004820152601e60248201527f53656c662d64656c65676174696f6e20697320646973616c6c6f7765642e000060448201526064016103c7565b60008781526001602081815260408084206001600160a01b038d811686526003909101909252909220015461010090041615610c655760008781526001602081815260408084206001600160a01b039c8d1685526003019091529091200154610100900490971696338803610c605760405162461bcd60e51b815260206004820152601960248201527f466f756e64206c6f6f7020696e2064656c65676174696f6e2e0000000000000060448201526064016103c7565b610ba9565b600181810180546001600160a81b0319166101006001600160a01b038c1690810291909117831790915560008981526020838152604080832093835260039093019052209081015460ff1615610d23576001810154600160b01b900460ff16610cf657815460008981526001602081905260408220018054909190610ceb9084906118dd565b925050819055610d1d565b815460008981526001602052604081208054909190610d169084906118dd565b9250508190555b50610d3d565b815481548290600090610d379084906118dd565b90915550505b8154604080513381526001600160a01b038c1660208201528082018b90526060810192909252517f0f58a7f5fce61f3a134b29076a5844adc7ae0553b8e3797605774ad883f985a29181900360800190a16064600554600454610da091906118f0565b610daa9190611907565b6000898152600160205260409020541180610df157506064600554600454610dd291906118f0565b610ddc9190611907565b60008981526001602081905260409091200154115b15610dff57610dff886113fb565b505050505050505050565b6000818152600160205260408120600201546001600160a01b03848116911614610e765760405162461bcd60e51b815260206004820181905260248201527f50726f706f736572206164647265737320646f6573206e6f74206d617463682160448201526064016103c7565b600082815260016020526040902060020154600160a01b900460ff16610ede5760405162461bcd60e51b815260206004820152601d60248201527f50726f6a65637420766f74696e67206861736e742066696e697368656400000060448201526064016103c7565b600082815260016020526040902060020154600160a81b900460ff16610f395760405162461bcd60e51b815260206004820152601060248201526f141c9bda9958dd081c995a9958dd195960821b60448201526064016103c7565b50600192915050565b6000918252602082815260408084206001600160a01b0393909316845291905290205460ff1690565b60013360009081526002602052604090205460ff166003811115610f9157610f91611739565b14610fd95760405162461bcd60e51b8152602060048201526018602482015277155cd95c881a5cc81b9bdd081a5b881dda1a5d195b1a5cdd60421b60448201526064016103c7565b60008281526001602052604090206002015482906001600160a01b031661103b5760405162461bcd60e51b8152602060048201526016602482015275141c9bda9958dd08191bd95cc81b9bdd08195e1a5cdd60521b60448201526064016103c7565b60008381526001602081815260408084203385526003019091529091200154839060ff16156110a15760405162461bcd60e51b8152602060048201526012602482015271155cd95c88185b1c9958591e481d9bdd195960721b60448201526064016103c7565b600084815260016020818152604080842033808652600390910190925290922001548590600160a81b900460ff1661110f5760008181526001602081815260408084206001600160a01b038716855260030190915290912081815501805460ff60a81b1916600160a81b1790555b600086815260016020526040902060020154600160a01b900460ff161561118a5760405162461bcd60e51b815260206004820152602960248201527f546869732070726f706f73616c20616c726561647920636f6d6520746f2061206044820152683232b1b4b9b4b7b71760b91b60648201526084016103c7565b6000868152600160208181526040808420338552600301909152822080549281558101805488158015600160b01b0260ff60ff60b01b01199092169190911790921790556111fb57600087815260016020526040812080548392906111f09084906118dd565b909155506112229050565b6000878152600160208190526040822001805483929061121c9084906118dd565b90915550505b60408051338152871515602082015290810182905287907fb9fa0d67ee2b448fd04ea607b1b777dfa9b7d139e8082f3ea28c8855ae01a2c69060600160405180910390a2606460055460045461127891906118f0565b6112829190611907565b60008881526001602052604090205411806112c9575060646005546004546112aa91906118f0565b6112b49190611907565b60008881526001602081905260409091200154115b156112d7576112d7876113fb565b50505050505050565b6000828152602081905260409020600101546112fb81611305565b6104bf8383611396565b61130f813361149f565b50565b61131c8282610f42565b61053e576000828152602081815260408083206001600160a01b03851684529091529020805460ff191660011790556113523390565b6001600160a01b0316816001600160a01b0316837f2f8788117e7eff1d82e926ec794901d17c78024a50270940304540a733656f0d60405160405180910390a45050565b6113a08282610f42565b1561053e576000828152602081815260408083206001600160a01b0385168085529252808320805460ff1916905551339285917ff6391f5c32d9c69d2a47ea670b442974b53935d1edc7fd64eb21e047a839171b9190a45050565b6000818152600160208190526040909120908101549054111561143b576000818152600160205260409020600201805460ff60a81b1916600160a81b1790555b60008181526001602052604090819020600201805460ff60a01b1916600160a01b1790819055905182917f34dc9eebd2cd3889d0baf3d3f81611c7bfbe2dde85e090b5c9e5ac43b40841ba9161048f91600160a81b900460ff161515815260200190565b6114a98282610f42565b61053e576114c1816001600160a01b03166014611503565b6114cc836020611503565b6040516020016114dd92919061193f565b60408051601f198184030181529082905262461bcd60e51b82526103c7916004016119b4565b606060006115128360026118f0565b61151d9060026118dd565b67ffffffffffffffff811115611535576115356119e7565b6040519080825280601f01601f19166020018201604052801561155f576020820181803683370190505b509050600360fc1b8160008151811061157a5761157a611884565b60200101906001600160f81b031916908160001a905350600f60fb1b816001815181106115a9576115a9611884565b60200101906001600160f81b031916908160001a90535060006115cd8460026118f0565b6115d89060016118dd565b90505b6001811115611650576f181899199a1a9b1b9c1cb0b131b232b360811b85600f166010811061160c5761160c611884565b1a60f81b82828151811061162257611622611884565b60200101906001600160f81b031916908160001a90535060049490941c93611649816119fd565b90506115db565b50831561169f5760405162461bcd60e51b815260206004820181905260248201527f537472696e67733a20686578206c656e67746820696e73756666696369656e7460448201526064016103c7565b9392505050565b508054600082559060005260206000209081019061130f91905b808211156116d457600081556001016116c0565b5090565b6000602082840312156116ea57600080fd5b81356001600160e01b03198116811461169f57600080fd5b80356001600160a01b038116811461171957600080fd5b919050565b60006020828403121561173057600080fd5b61169f82611702565b634e487b7160e01b600052602160045260246000fd5b602081016004831061177157634e487b7160e01b600052602160045260246000fd5b91905290565b60006020828403121561178957600080fd5b5035919050565b600080604083850312156117a357600080fd5b823591506117b360208401611702565b90509250929050565b600080604083850312156117cf57600080fd5b6117d883611702565b91506020830135600481106117ec57600080fd5b809150509250929050565b6000806040838503121561180a57600080fd5b61181383611702565b946020939093013593505050565b6000806040838503121561183457600080fd5b82359150602083013580151581146117ec57600080fd5b8183823760009101908152919050565b634e487b7160e01b600052601160045260246000fd5b8181038181111561035b5761035b61185b565b634e487b7160e01b600052603260045260246000fd5b6000600182016118ac576118ac61185b565b5060010190565b634e487b7160e01b600052601260045260246000fd5b6000826118d8576118d86118b3565b500690565b8082018082111561035b5761035b61185b565b808202811582820484141761035b5761035b61185b565b600082611916576119166118b3565b500490565b60005b8381101561193657818101518382015260200161191e565b50506000910152565b7f416363657373436f6e74726f6c3a206163636f756e742000000000000000000081526000835161197781601785016020880161191b565b7001034b99036b4b9b9b4b733903937b6329607d1b60179184019182015283516119a881602884016020880161191b565b01602801949350505050565b60208152600082518060208401526119d381604085016020870161191b565b601f01601f19169190910160400192915050565b634e487b7160e01b600052604160045260246000fd5b600081611a0c57611a0c61185b565b50600019019056fea2646970667358221220dc44d0e3f7d5fe0a2edf8198d8b2b6f94241b5baecca272470d3a1e26b4121f164736f6c63430008110033",
  "linkReferences": {},
  "deployedLinkReferences": {}
}