{
  "_format": "hh-sol-artifact-1",
  "contractName": "OBDutchAuction",
  "sourceName": "contracts/UpgradeableAuctions/OBDutchAuction.sol",
  "abi": [
    {
      "anonymous": false,
      "inputs": [
        {
          "indexed": false,
          "internalType": "uint256",
          "name": "end",
          "type": "uint256"
        },
        {
          "indexed": false,
          "internalType": "uint256",
          "name": "finalPrice",
          "type": "uint256"
        }
      ],
      "name": "AuctionFinished",
      "type": "event"
    },
    {
      "anonymous": false,
      "inputs": [
        {
          "indexed": false,
          "internalType": "uint256",
          "name": "pauseDuration",
          "type": "uint256"
        }
      ],
      "name": "AuctionPaused",
      "type": "event"
    },
    {
      "anonymous": false,
      "inputs": [
        {
          "indexed": false,
          "internalType": "uint256",
          "name": "start",
          "type": "uint256"
        },
        {
          "indexed": false,
          "internalType": "uint256",
          "name": "end",
          "type": "uint256"
        }
      ],
      "name": "AuctionStarted",
      "type": "event"
    },
    {
      "anonymous": false,
      "inputs": [
        {
          "indexed": true,
          "internalType": "address",
          "name": "sender",
          "type": "address"
        },
        {
          "indexed": false,
          "internalType": "uint256",
          "name": "amount",
          "type": "uint256"
        }
      ],
      "name": "BidSubmission",
      "type": "event"
    },
    {
      "anonymous": false,
      "inputs": [
        {
          "indexed": false,
          "internalType": "uint8",
          "name": "version",
          "type": "uint8"
        }
      ],
      "name": "Initialized",
      "type": "event"
    },
    {
      "anonymous": false,
      "inputs": [
        {
          "indexed": true,
          "internalType": "bytes32",
          "name": "role",
          "type": "bytes32"
        },
        {
          "indexed": true,
          "internalType": "bytes32",
          "name": "previousAdminRole",
          "type": "bytes32"
        },
        {
          "indexed": true,
          "internalType": "bytes32",
          "name": "newAdminRole",
          "type": "bytes32"
        }
      ],
      "name": "RoleAdminChanged",
      "type": "event"
    },
    {
      "anonymous": false,
      "inputs": [
        {
          "indexed": true,
          "internalType": "bytes32",
          "name": "role",
          "type": "bytes32"
        },
        {
          "indexed": true,
          "internalType": "address",
          "name": "account",
          "type": "address"
        },
        {
          "indexed": true,
          "internalType": "address",
          "name": "sender",
          "type": "address"
        }
      ],
      "name": "RoleGranted",
      "type": "event"
    },
    {
      "anonymous": false,
      "inputs": [
        {
          "indexed": true,
          "internalType": "bytes32",
          "name": "role",
          "type": "bytes32"
        },
        {
          "indexed": true,
          "internalType": "address",
          "name": "account",
          "type": "address"
        },
        {
          "indexed": true,
          "internalType": "address",
          "name": "sender",
          "type": "address"
        }
      ],
      "name": "RoleRevoked",
      "type": "event"
    },
    {
      "anonymous": false,
      "inputs": [
        {
          "indexed": true,
          "internalType": "address",
          "name": "buyer",
          "type": "address"
        },
        {
          "indexed": false,
          "internalType": "uint256",
          "name": "usedBidCoinAmount",
          "type": "uint256"
        },
        {
          "indexed": false,
          "internalType": "uint256",
          "name": "boughtTokenAmount",
          "type": "uint256"
        }
      ],
      "name": "TokenBought",
      "type": "event"
    },
    {
      "anonymous": false,
      "inputs": [
        {
          "indexed": false,
          "internalType": "string",
          "name": "variable",
          "type": "string"
        },
        {
          "indexed": false,
          "internalType": "uint256",
          "name": "value",
          "type": "uint256"
        }
      ],
      "name": "VariableChange",
      "type": "event"
    },
    {
      "inputs": [],
      "name": "DEFAULT_ADMIN_ROLE",
      "outputs": [
        {
          "internalType": "bytes32",
          "name": "",
          "type": "bytes32"
        }
      ],
      "stateMutability": "view",
      "type": "function"
    },
    {
      "inputs": [],
      "name": "PROPOSER_ADMIN_ROLE",
      "outputs": [
        {
          "internalType": "bytes32",
          "name": "",
          "type": "bytes32"
        }
      ],
      "stateMutability": "view",
      "type": "function"
    },
    {
      "inputs": [],
      "name": "PROPOSER_ROLE",
      "outputs": [
        {
          "internalType": "bytes32",
          "name": "",
          "type": "bytes32"
        }
      ],
      "stateMutability": "view",
      "type": "function"
    },
    {
      "inputs": [
        {
          "internalType": "address",
          "name": "",
          "type": "address"
        }
      ],
      "name": "UserOrders",
      "outputs": [
        {
          "internalType": "uint256",
          "name": "deposit",
          "type": "uint256"
        },
        {
          "internalType": "uint256",
          "name": "price",
          "type": "uint256"
        },
        {
          "internalType": "uint256",
          "name": "available",
          "type": "uint256"
        }
      ],
      "stateMutability": "view",
      "type": "function"
    },
    {
      "inputs": [
        {
          "internalType": "uint256",
          "name": "bidCoinBits",
          "type": "uint256"
        }
      ],
      "name": "bid",
      "outputs": [],
      "stateMutability": "nonpayable",
      "type": "function"
    },
    {
      "inputs": [
        {
          "internalType": "uint256",
          "name": "bidCoinBits",
          "type": "uint256"
        },
        {
          "internalType": "uint256",
          "name": "price",
          "type": "uint256"
        }
      ],
      "name": "bid",
      "outputs": [],
      "stateMutability": "nonpayable",
      "type": "function"
    },
    {
      "inputs": [],
      "name": "bidCoin",
      "outputs": [
        {
          "internalType": "contract WrapperToken",
          "name": "",
          "type": "address"
        }
      ],
      "stateMutability": "view",
      "type": "function"
    },
    {
      "inputs": [],
      "name": "currentRate",
      "outputs": [
        {
          "internalType": "uint256",
          "name": "",
          "type": "uint256"
        }
      ],
      "stateMutability": "view",
      "type": "function"
    },
    {
      "inputs": [],
      "name": "forcedManualFinish",
      "outputs": [],
      "stateMutability": "nonpayable",
      "type": "function"
    },
    {
      "inputs": [],
      "name": "fundLimitPerUser",
      "outputs": [
        {
          "internalType": "uint256",
          "name": "",
          "type": "uint256"
        }
      ],
      "stateMutability": "view",
      "type": "function"
    },
    {
      "inputs": [],
      "name": "getCurrentRate",
      "outputs": [
        {
          "internalType": "uint256",
          "name": "current",
          "type": "uint256"
        }
      ],
      "stateMutability": "view",
      "type": "function"
    },
    {
      "inputs": [
        {
          "internalType": "bytes32",
          "name": "role",
          "type": "bytes32"
        }
      ],
      "name": "getRoleAdmin",
      "outputs": [
        {
          "internalType": "bytes32",
          "name": "",
          "type": "bytes32"
        }
      ],
      "stateMutability": "view",
      "type": "function"
    },
    {
      "inputs": [],
      "name": "getStatus",
      "outputs": [
        {
          "internalType": "enum Auction.AuctionStatus",
          "name": "",
          "type": "uint8"
        }
      ],
      "stateMutability": "view",
      "type": "function"
    },
    {
      "inputs": [
        {
          "internalType": "bytes32",
          "name": "role",
          "type": "bytes32"
        },
        {
          "internalType": "address",
          "name": "account",
          "type": "address"
        }
      ],
      "name": "grantRole",
      "outputs": [],
      "stateMutability": "nonpayable",
      "type": "function"
    },
    {
      "inputs": [
        {
          "internalType": "bytes32",
          "name": "role",
          "type": "bytes32"
        },
        {
          "internalType": "address",
          "name": "account",
          "type": "address"
        }
      ],
      "name": "hasRole",
      "outputs": [
        {
          "internalType": "bool",
          "name": "",
          "type": "bool"
        }
      ],
      "stateMutability": "view",
      "type": "function"
    },
    {
      "inputs": [],
      "name": "increment",
      "outputs": [
        {
          "internalType": "uint256",
          "name": "",
          "type": "uint256"
        }
      ],
      "stateMutability": "view",
      "type": "function"
    },
    {
      "inputs": [
        {
          "components": [
            {
              "internalType": "address",
              "name": "token",
              "type": "address"
            },
            {
              "internalType": "address",
              "name": "bidCoin",
              "type": "address"
            },
            {
              "internalType": "uint256",
              "name": "numberOfTokensToBeDistributed",
              "type": "uint256"
            },
            {
              "internalType": "uint256",
              "name": "rate",
              "type": "uint256"
            },
            {
              "internalType": "uint256",
              "name": "finalRate",
              "type": "uint256"
            },
            {
              "internalType": "uint256",
              "name": "limit",
              "type": "uint256"
            }
          ],
          "internalType": "struct Auction.auctionParameters",
          "name": "params",
          "type": "tuple"
        }
      ],
      "name": "initialize",
      "outputs": [],
      "stateMutability": "nonpayable",
      "type": "function"
    },
    {
      "inputs": [],
      "name": "latestEndTime",
      "outputs": [
        {
          "internalType": "uint256",
          "name": "",
          "type": "uint256"
        }
      ],
      "stateMutability": "view",
      "type": "function"
    },
    {
      "inputs": [],
      "name": "manualFinish",
      "outputs": [],
      "stateMutability": "nonpayable",
      "type": "function"
    },
    {
      "inputs": [],
      "name": "minPrice",
      "outputs": [
        {
          "internalType": "uint256",
          "name": "",
          "type": "uint256"
        }
      ],
      "stateMutability": "view",
      "type": "function"
    },
    {
      "inputs": [
        {
          "internalType": "bytes[]",
          "name": "data",
          "type": "bytes[]"
        }
      ],
      "name": "multicall",
      "outputs": [
        {
          "internalType": "bytes[]",
          "name": "results",
          "type": "bytes[]"
        }
      ],
      "stateMutability": "nonpayable",
      "type": "function"
    },
    {
      "inputs": [],
      "name": "numberOfTokensToBeDistributed",
      "outputs": [
        {
          "internalType": "uint256",
          "name": "",
          "type": "uint256"
        }
      ],
      "stateMutability": "view",
      "type": "function"
    },
    {
      "inputs": [
        {
          "internalType": "uint256",
          "name": "",
          "type": "uint256"
        }
      ],
      "name": "ordersForPrice",
      "outputs": [
        {
          "internalType": "uint256",
          "name": "totalWanted",
          "type": "uint256"
        }
      ],
      "stateMutability": "view",
      "type": "function"
    },
    {
      "inputs": [
        {
          "internalType": "uint256",
          "name": "pauseTimeInHours",
          "type": "uint256"
        }
      ],
      "name": "pauseAuction",
      "outputs": [],
      "stateMutability": "nonpayable",
      "type": "function"
    },
    {
      "inputs": [],
      "name": "projectToken",
      "outputs": [
        {
          "internalType": "contract ERC20MintableBurnableUpgradeable",
          "name": "",
          "type": "address"
        }
      ],
      "stateMutability": "view",
      "type": "function"
    },
    {
      "inputs": [],
      "name": "projectWallet",
      "outputs": [
        {
          "internalType": "address",
          "name": "",
          "type": "address"
        }
      ],
      "stateMutability": "view",
      "type": "function"
    },
    {
      "inputs": [],
      "name": "proposerWallet",
      "outputs": [
        {
          "internalType": "address",
          "name": "",
          "type": "address"
        }
      ],
      "stateMutability": "view",
      "type": "function"
    },
    {
      "inputs": [
        {
          "internalType": "bytes32",
          "name": "role",
          "type": "bytes32"
        },
        {
          "internalType": "address",
          "name": "account",
          "type": "address"
        }
      ],
      "name": "renounceRole",
      "outputs": [],
      "stateMutability": "nonpayable",
      "type": "function"
    },
    {
      "inputs": [
        {
          "internalType": "bytes32",
          "name": "role",
          "type": "bytes32"
        },
        {
          "internalType": "address",
          "name": "account",
          "type": "address"
        }
      ],
      "name": "revokeRole",
      "outputs": [],
      "stateMutability": "nonpayable",
      "type": "function"
    },
    {
      "inputs": [
        {
          "internalType": "address",
          "name": "wallet",
          "type": "address"
        }
      ],
      "name": "setTeamWallet",
      "outputs": [],
      "stateMutability": "nonpayable",
      "type": "function"
    },
    {
      "inputs": [],
      "name": "soldExcessive",
      "outputs": [
        {
          "internalType": "bool",
          "name": "",
          "type": "bool"
        }
      ],
      "stateMutability": "view",
      "type": "function"
    },
    {
      "inputs": [],
      "name": "soldProjectTokens",
      "outputs": [
        {
          "internalType": "uint256",
          "name": "",
          "type": "uint256"
        }
      ],
      "stateMutability": "view",
      "type": "function"
    },
    {
      "inputs": [
        {
          "internalType": "uint256",
          "name": "maximumAuctionTimeInHours",
          "type": "uint256"
        }
      ],
      "name": "startAuction",
      "outputs": [],
      "stateMutability": "nonpayable",
      "type": "function"
    },
    {
      "inputs": [],
      "name": "startTime",
      "outputs": [
        {
          "internalType": "uint256",
          "name": "",
          "type": "uint256"
        }
      ],
      "stateMutability": "view",
      "type": "function"
    },
    {
      "inputs": [],
      "name": "status",
      "outputs": [
        {
          "internalType": "enum Auction.AuctionStatus",
          "name": "",
          "type": "uint8"
        }
      ],
      "stateMutability": "view",
      "type": "function"
    },
    {
      "inputs": [
        {
          "internalType": "bytes4",
          "name": "interfaceId",
          "type": "bytes4"
        }
      ],
      "name": "supportsInterface",
      "outputs": [
        {
          "internalType": "bool",
          "name": "",
          "type": "bool"
        }
      ],
      "stateMutability": "view",
      "type": "function"
    },
    {
      "inputs": [],
      "name": "totalDepositedSucoins",
      "outputs": [
        {
          "internalType": "uint256",
          "name": "",
          "type": "uint256"
        }
      ],
      "stateMutability": "view",
      "type": "function"
    },
    {
      "inputs": [],
      "name": "withDraw",
      "outputs": [],
      "stateMutability": "nonpayable",
      "type": "function"
    }
  ],
  "bytecode": "0x608060405260a6805460ff191690553480156200001b57600080fd5b50600054610100900460ff16158080156200003d5750600054600160ff909116105b806200006d57506200005a306200014760201b620017f31760201c565b1580156200006d575060005460ff166001145b620000d55760405162461bcd60e51b815260206004820152602e60248201527f496e697469616c697a61626c653a20636f6e747261637420697320616c72656160448201526d191e481a5b9a5d1a585b1a5e995960921b606482015260840160405180910390fd5b6000805460ff191660011790558015620000f9576000805461ff0019166101001790555b801562000140576000805461ff0019169055604051600181527f7f26b83ff96e1f2b6a682f133852f6798a09c465da95921460cefb38474024989060200160405180910390a15b5062000156565b6001600160a01b03163b151590565b61352180620001666000396000f3fe608060405234801561001057600080fd5b50600436106102325760003560e01c806363c5f7c111610130578063b296558d116100b8578063e7f7c5bd1161007c578063e7f7c5bd146104c8578063f7fb07b0146104eb578063f9f8bdb7146104f3578063faa73500146104fc578063fabb75f51461050557600080fd5b8063b296558d14610482578063beb08ab91461048b578063d09de08a146104a3578063d547741f146104ac578063e45be8eb146104bf57600080fd5b80638f61f4f5116100ff5780638f61f4f51461041f57806391d1485414610434578063a217fddf14610447578063a51993db1461044f578063ac9650d81461046257600080fd5b806363c5f7c1146103fb57806375caa9ef1461040457806378e979251461040d5780638b3e56e11461041657600080fd5b8063248a9ca3116101be5780634b60ce77116101825780634b60ce77146103585780634e69d56014610383578063598647f81461038b5780635ed3bad11461039e578063610b4f36146103e857600080fd5b8063248a9ca3146102ef5780632f2ff15d146103125780633375ee891461032557806336568abe14610332578063454a2ab31461034557600080fd5b80631525ff7d116102055780631525ff7d146102845780631a87a934146102975780631d6833aa146102aa578063200d2ed2146102cd578063228e248e146102e757600080fd5b806301ffc9a714610237578063065de74c1461025f5780630dda507e146102745780630fdb1c101461027c575b600080fd5b61024a610245366004612e80565b610518565b60405190151581526020015b60405180910390f35b61027261026d366004612eaa565b61054f565b005b6102726105e3565b6102726106c0565b610272610292366004612eda565b610d4b565b6102726102a5366004612ef5565b610d86565b6102bf6000805160206134cc83398151915281565b604051908152602001610256565b609b546102da9060ff1681565b6040516102569190612f23565b610272610e9e565b6102bf6102fd366004612eaa565b60009081526065602052604090206001015490565b610272610320366004612f4b565b610f1a565b60a65461024a9060ff1681565b610272610340366004612f4b565b610f44565b610272610353366004612eaa565b610fbe565b609d5461036b906001600160a01b031681565b6040516001600160a01b039091168152602001610256565b6102da611206565b610272610399366004612f77565b611271565b6103cd6103ac366004612eda565b60a96020526000908152604090208054600182015460029092015490919083565b60408051938452602084019290925290820152606001610256565b6102726103f6366004612eaa565b6114be565b6102bf609c5481565b6102bf60995481565b6102bf60985481565b6102bf609f5481565b6102bf6000805160206134ac83398151915281565b61024a610442366004612f4b565b611632565b6102bf600081565b60975461036b906001600160a01b031681565b610475610470366004612f99565b61165d565b604051610256919061305e565b6102bf609e5481565b609b5461036b9061010090046001600160a01b031681565b6102bf60a45481565b6102726104ba366004612f4b565b611752565b6102bf60a35481565b6102bf6104d6366004612eaa565b60aa6020526000908152604090206001015481565b6102bf611777565b6102bf60a05481565b6102bf60a25481565b60a15461036b906001600160a01b031681565b60006001600160e01b03198216637965db0b60e01b148061054957506301ffc9a760e01b6001600160e01b03198316145b92915050565b6000805160206134ac83398151915261056781611802565b6105708261180c565b609b805460ff191660019081179091554260985561058f9083906130d6565b61059990426130ed565b60998190556098546040517ff8910119ddbef5440c54532457dfe8250a10ed39e583292818f44724b9e1344c926105d7928252602082015260400190565b60405180910390a15050565b6002609b5460ff1660038111156105fc576105fc612f0d565b14801561060b5750609a544210155b1561061e57609b805460ff191660011790555b6001609b5460ff16600381111561063757610637612f0d565b14801561064657506099544210155b15610653576106536118d3565b6003609b5460ff16600381111561066c5761066c612f0d565b146106be5760405162461bcd60e51b815260206004820152601c60248201527f41756374696f6e20686173206e6f742066696e6973686564207965740000000060448201526064015b60405180910390fd5b565b6002609b5460ff1660038111156106d9576106d9612f0d565b1480156106e85750609a544210155b156106fb57609b805460ff191660011790555b6001609b5460ff16600381111561071457610714612f0d565b14801561072357506099544210155b15610730576107306118d3565b6003609b5460ff16600381111561074957610749612f0d565b146107965760405162461bcd60e51b815260206004820152601c60248201527f41756374696f6e20686173206e6f742066696e6973686564207965740000000060448201526064016106b5565b33600090815260a96020526040902080546108125760405162461bcd60e51b815260206004820152603660248201527f596f7520616c7265616479207769746864726577206f7220796f757220746f6b604482015275656e20646973747269627574656420616c726561647960501b60648201526084016106b5565b60018101548154609d54600091839161083491906001600160a01b0316611c47565b61083e9190613116565b60a554909150156000816108545760a354610864565b60a45460a354610864919061312a565b90506000609f54609e54106108885760a45460a354610883919061312a565b61088c565b60a3545b905060006108ae61089d83876130d6565b609d546001600160a01b0316611cc7565b9050828610610a3b57609d5460405163a9059cbb60e01b81526001600160a01b039091169063a9059cbb906108e9903390899060040161313d565b6020604051808303816000875af1158015610908573d6000803e3d6000fd5b505050506040513d601f19601f8201168201806040525081019061092c9190613156565b5086548110156109bc5760975487546001600160a01b039091169063a9059cbb90339061095a90859061312a565b6040518363ffffffff1660e01b815260040161097792919061313d565b6020604051808303816000875af1158015610996573d6000803e3d6000fd5b505050506040513d601f19601f820116820180604052508101906109ba9190613156565b505b60975460a15460405163a9059cbb60e01b81526001600160a01b039283169263a9059cbb926109f292911690859060040161313d565b6020604051808303816000875af1158015610a11573d6000803e3d6000fd5b505050506040513d601f19601f82011682018060405250810190610a359190613156565b50610d25565b81861015610a7657609754875460405163a9059cbb60e01b81526001600160a01b039092169163a9059cbb916109f29133919060040161313d565b600085886002015410610a895785610a8f565b87600201545b90508415610b8c57609d5460405163a9059cbb60e01b81526001600160a01b039091169063a9059cbb90610ac99033908a9060040161313d565b6020604051808303816000875af1158015610ae8573d6000803e3d6000fd5b505050506040513d601f19601f82011682018060405250810190610b0c9190613156565b5060975460a154895460405163a9059cbb60e01b81526001600160a01b039384169363a9059cbb93610b439391169160040161313d565b6020604051808303816000875af1158015610b62573d6000803e3d6000fd5b505050506040513d601f19601f82011682018060405250810190610b869190613156565b50610d23565b8015610c9057609d5460405163a9059cbb60e01b81526001600160a01b039091169063a9059cbb90610bc4903390859060040161313d565b6020604051808303816000875af1158015610be3573d6000803e3d6000fd5b505050506040513d601f19601f82011682018060405250810190610c079190613156565b5060975460a1546001600160a01b039182169163a9059cbb9116610c2e61089d8b866130d6565b6040518363ffffffff1660e01b8152600401610c4b92919061313d565b6020604051808303816000875af1158015610c6a573d6000803e3d6000fd5b505050506040513d601f19601f82011682018060405250810190610c8e9190613156565b505b858114610d23576097546001600160a01b031663a9059cbb33610cc18a610cb7868c61312a565b61089d91906130d6565b6040518363ffffffff1660e01b8152600401610cde92919061313d565b6020604051808303816000875af1158015610cfd573d6000803e3d6000fd5b505050506040513d601f19601f82011682018060405250810190610d219190613156565b505b505b505033600090815260a96020526040812081815560018101829055600201555050505050565b6000805160206134cc833981519152610d6381611802565b5060a180546001600160a01b0319166001600160a01b0392909216919091179055565b600054610100900460ff1615808015610da65750600054600160ff909116105b80610dc05750303b158015610dc0575060005460ff166001145b610e235760405162461bcd60e51b815260206004820152602e60248201527f496e697469616c697a61626c653a20636f6e747261637420697320616c72656160448201526d191e481a5b9a5d1a585b1a5e995960921b60648201526084016106b5565b6000805460ff191660011790558015610e46576000805461ff0019166101001790555b610e4f82611d40565b610e5882611d79565b8015610e9a576000805461ff0019169055604051600181527f7f26b83ff96e1f2b6a682f133852f6798a09c465da95921460cefb3847402498906020016105d7565b5050565b6000610ea981611802565b6003609b5460ff166003811115610ec257610ec2612f0d565b03610f0f5760405162461bcd60e51b815260206004820152601a60248201527f546869732041756374696f6e20616c726561647920656e64656400000000000060448201526064016106b5565b610f176118d3565b50565b600082815260656020526040902060010154610f3581611802565b610f3f8383611e39565b505050565b6001600160a01b0381163314610fb45760405162461bcd60e51b815260206004820152602f60248201527f416363657373436f6e74726f6c3a2063616e206f6e6c792072656e6f756e636560448201526e103937b632b9903337b91039b2b63360891b60648201526084016106b5565b610e9a8282611ebf565b6002609b5460ff166003811115610fd757610fd7612f0d565b148015610fe65750609a544210155b15610ff957609b805460ff191660011790555b6001609b5460ff16600381111561101257611012612f0d565b14801561102157506099544210155b1561102e57610f176118d3565b6001609b5460ff16600381111561104757611047612f0d565b146110645760405162461bcd60e51b81526004016106b590613178565b609b5461010090046001600160a01b03166110c15760405162461bcd60e51b815260206004820152601960248201527f50726f6a6563742077616c6c6574206973206e6f74207365740000000000000060448201526064016106b5565b609b5461010090046001600160a01b0316330361111c5760405162461bcd60e51b8152602060048201526019602482015278141c9bda9958dd081dd85b1b195d0818d85b9b9bdd08189a59603a1b60448201526064016106b5565b6111346000805160206134ac83398151915233611632565b156111785760405162461bcd60e51b8152602060048201526014602482015273141c9bdc1bdcd95c9cc818d85b9b9bdd08189a5960621b60448201526064016106b5565b600081116111c85760405162461bcd60e51b815260206004820152601a60248201527f596f75206e65656420746f2062696420736f6d6520636f696e7300000000000060448201526064016106b5565b60405181815233907f9c89e828e6cee6374b68147c9e753e41746aad98ba255a527a4fc0ac1868bff99060200160405180910390a2610f1781611f26565b609b5460009060ff16600281600381111561122357611223612f0d565b1480156112325750609a544210155b1561123b575060015b6001609b5460ff16600381111561125457611254612f0d565b14801561126357506099544210155b1561126c575060035b919050565b6002609b5460ff16600381111561128a5761128a612f0d565b1480156112995750609a544210155b156112ac57609b805460ff191660011790555b6001609b5460ff1660038111156112c5576112c5612f0d565b1480156112d457506099544210155b156112e157610e9a6118d3565b6001609b5460ff1660038111156112fa576112fa612f0d565b146113175760405162461bcd60e51b81526004016106b590613178565b609b5461010090046001600160a01b03166113745760405162461bcd60e51b815260206004820152601a60248201527f50726f706f7365722077616c6c6574206973206e6f742073657400000000000060448201526064016106b5565b609b5461010090046001600160a01b031633036113cf5760405162461bcd60e51b8152602060048201526019602482015278141c9bda9958dd081dd85b1b195d0818d85b9b9bdd08189a59603a1b60448201526064016106b5565b6113e76000805160206134ac83398151915233611632565b1561142b5760405162461bcd60e51b8152602060048201526014602482015273141c9bdc1bdcd95c9cc818d85b9b9bdd08189a5960621b60448201526064016106b5565b6000821161147b5760405162461bcd60e51b815260206004820152601a60248201527f596f75206e65656420746f2062696420736f6d6520636f696e7300000000000060448201526064016106b5565b6114858282611f2e565b60405182815233907f9c89e828e6cee6374b68147c9e753e41746aad98ba255a527a4fc0ac1868bff99060200160405180910390a25050565b6002609b5460ff1660038111156114d7576114d7612f0d565b1480156114e65750609a544210155b156114f957609b805460ff191660011790555b6001609b5460ff16600381111561151257611512612f0d565b14801561152157506099544210155b1561152e57610f176118d3565b600061153981611802565b6001609b5460ff16600381111561155257611552612f0d565b1461156f5760405162461bcd60e51b81526004016106b590613178565b600082116115bf5760405162461bcd60e51b815260206004820152601960248201527f50617573652054696d65206d757374206265206c6f6e6765720000000000000060448201526064016106b5565b6115ca8260016130d6565b6115d490426130ed565b609a81905560995442916115e891906130ed565b6115f2919061312a565b609955609b805460ff191660021790556040518281527fbfbe0eeb9851e98d21f973d30f11b8dacd485bc42ea47fe58b3335603741543f906020016105d7565b60009182526065602090815260408084206001600160a01b0393909316845291905290205460ff1690565b60608167ffffffffffffffff811115611678576116786131a8565b6040519080825280602002602001820160405280156116ab57816020015b60608152602001906001900390816116965790505b50905060005b8281101561174b5761171b308585848181106116cf576116cf6131be565b90506020028101906116e191906131d4565b8080601f01602080910402602001604051908101604052809392919081815260200183838082843760009201919091525061210992505050565b82828151811061172d5761172d6131be565b6020026020010181905250808061174390613222565b9150506116b1565b5092915050565b60008281526065602052604090206001015461176d81611802565b610f3f8383611ebf565b60405163ef47c5e760e01b815260a7600482015260009073__$fb8a7d4c0489e07cf331dd1608ecb2541c$__9063ef47c5e790602401602060405180830381865af41580156117ca573d6000803e3d6000fd5b505050506040513d601f19601f820116820180604052508101906117ee919061323b565b905090565b6001600160a01b03163b151590565b610f17813361212e565b6000609b5460ff16600381111561182557611825612f0d565b146118835760405162461bcd60e51b815260206004820152602860248201527f41756374696f6e20616c72656164792073746172746564206f7220616c726561604482015267191e48195b99195960c21b60648201526084016106b5565b60008111610f175760405162461bcd60e51b815260206004820152601b60248201527f41756374696f6e2054696d65206d757374206265206c6f6e676572000000000060448201526064016106b5565b6118e5609b805460ff19166003179055565b60a554156000816119055760a45460a354611900919061312a565b611909565b60a3545b9050816119ed57600081815260aa6020526040812060a5546001820154919291611933919061312a565b90508160005b81548110156119e857600060a9600084848154811061195a5761195a6131be565b60009182526020808320909101546001600160a01b039081168452908301939093526040909101812060018101548154609d54929550929390926119a092909116611c47565b6119aa9190613116565b9050808510156119c057506002018390556119e8565b600282018190556119d1818661312a565b9450505080806119e090613222565b915050611939565b505050505b6000609e54609f546119ff919061312a565b90508015611a8257609d5460a15460405163a9059cbb60e01b81526001600160a01b039283169263a9059cbb92611a3d92911690859060040161313d565b6020604051808303816000875af1158015611a5c573d6000803e3d6000fd5b505050506040513d601f19601f82011682018060405250810190611a809190613156565b505b60005b60405163ee6ea9a760e01b815260a7600482015273__$fb8a7d4c0489e07cf331dd1608ecb2541c$__9063ee6ea9a790602401602060405180830381865af4158015611ad5573d6000803e3d6000fd5b505050506040513d601f19601f82011682018060405250810190611af9919061323b565b90508015611b935760405163d1612f0f60e01b815260a760048201526024810182905273__$fb8a7d4c0489e07cf331dd1608ecb2541c$__9063d1612f0f9060440160006040518083038186803b158015611b5357600080fd5b505af4158015611b67573d6000803e3d6000fd5b505050600082815260aa602052604081209150611b848282612e4e565b60018201600090555050611a85565b60405163778440ff60e11b815260a760048201526024810184905273__$fb8a7d4c0489e07cf331dd1608ecb2541c$__9063ef0881fe9060440160006040518083038186803b158015611be557600080fd5b505af4158015611bf9573d6000803e3d6000fd5b505050507fa26f614dfadbd6fab0e2c34abdab71ad292b06a4b47d63fda8dc3ccb85cb52094260a054604051611c39929190918252602082015260400190565b60405180910390a150505050565b6000816001600160a01b031663313ce5676040518163ffffffff1660e01b8152600401602060405180830381865afa158015611c87573d6000803e3d6000fd5b505050506040513d601f19601f82011682018060405250810190611cab9190613254565b611cb690600a61335b565b611cc090846130d6565b9392505050565b6000816001600160a01b031663313ce5676040518163ffffffff1660e01b8152600401602060405180830381865afa158015611d07573d6000803e3d6000fd5b505050506040513d601f19601f82011682018060405250810190611d2b9190613254565b611d3690600a61335b565b611cc09084613116565b600054610100900460ff16611d675760405162461bcd60e51b81526004016106b59061336a565b611d7081612192565b610f17816121ca565b600054610100900460ff16611da05760405162461bcd60e51b81526004016106b59061336a565b609b8054610100600160a81b03191630610100021790556060810135611dfb5760405162461bcd60e51b815260206004820152601060248201526f0526174652063616e6e6f7420626520360841b60448201526064016106b5565b606081013560a381905560a0819055600090611e1990600a90613116565b905060008111611e2a576001611e2c565b805b60a4555060a0013560a255565b611e438282611632565b610e9a5760008281526065602090815260408083206001600160a01b03851684529091529020805460ff19166001179055611e7b3390565b6001600160a01b0316816001600160a01b0316837f2f8788117e7eff1d82e926ec794901d17c78024a50270940304540a733656f0d60405160405180910390a45050565b611ec98282611632565b15610e9a5760008281526065602090815260408083206001600160a01b0385168085529252808320805460ff1916905551339285917ff6391f5c32d9c69d2a47ea670b442974b53935d1edc7fd64eb21e047a839171b9190a45050565b610f178160a3545b60a354811015611f805760405162461bcd60e51b815260206004820181905260248201527f596f75206e65656420746f20656e74657220612068696768657220707269636560448201526064016106b5565b60a454611f8d90826133b5565b15611fe85760405162461bcd60e51b815260206004820152602560248201527f5072696365206d7573742062652061206d756c7469706c65206f6620696e6372604482015264195b595b9d60da1b60648201526084016106b5565b33600090815260a9602052604090206001810154156120405760405162461bcd60e51b8152602060048201526014602482015273165bdd481a185d9948185b1c9958591e48189a5960621b60448201526064016106b5565b60a2541580612051575060a2548311155b61209d5760405162461bcd60e51b815260206004820152601d60248201527f596f752063616e277420626964206d6f7265207468616e206c696d697400000060448201526064016106b5565b600181018290556120ae83836122a1565b9250600083116121005760405162461bcd60e51b815260206004820152601d60248201527f596f75206e65656420746f20707574206d6f726520626964636f696e7300000060448201526064016106b5565b610f3f8361230b565b6060611cc08383604051806060016040528060278152602001613485602791396124ef565b6121388282611632565b610e9a57612150816001600160a01b031660146125cc565b61215b8360206125cc565b60405160200161216c9291906133c9565b60408051601f198184030181529082905262461bcd60e51b82526106b59160040161343e565b600054610100900460ff166121b95760405162461bcd60e51b81526004016106b59061336a565b6121c1612768565b610f178161278f565b600054610100900460ff166121f15760405162461bcd60e51b81526004016106b59061336a565b600081604001351161226b5760405162461bcd60e51b815260206004820152603c60248201527f41756374696f6e2063616e6e6f742068617070656e206265636175736520746860448201527f65726520617265206e6f20746f6b656e7320746f2061756374696f6e0000000060648201526084016106b5565b6122786020820182612eda565b609d80546001600160a01b0319166001600160a01b039290921691909117905560400135609f55565b6000806122ed83846122c887609760009054906101000a90046001600160a01b0316611c47565b6122d29190613116565b6122dc91906130d6565b6097546001600160a01b0316611cc7565b6122f7908561312a565b9050612303818561312a565b949350505050565b609754604051636eb1769f60e11b81523360048201523060248201526000916001600160a01b03169063dd62ed3e90604401602060405180830381865afa15801561235a573d6000803e3d6000fd5b505050506040513d601f19601f8201168201806040525081019061237e919061323b565b9050818110156123df5760405162461bcd60e51b815260206004820152602660248201527f417070726f7665642062696420636f696e20616d6f756e74206973206e6f74206044820152650cadcdeeaced60d31b60648201526084016106b5565b609754609b546040516323b872dd60e01b81523360048201526001600160a01b0361010090920482166024820152604481018590529116906323b872dd906064016020604051808303816000875af115801561243f573d6000803e3d6000fd5b505050506040513d601f19601f820116820180604052508101906124639190613156565b5081609c600082825461247691906130ed565b9091555050609c546040517fb325f51492db6a3e2d42f7d2c7721750691a0cf7e6c3e4bd2b940b3528257380916124de91604080825260159082015274746f74616c4465706f73697465645375636f696e7360581b6060820152602081019190915260800190565b60405180910390a1610e9a8261283c565b60606001600160a01b0384163b6125575760405162461bcd60e51b815260206004820152602660248201527f416464726573733a2064656c65676174652063616c6c20746f206e6f6e2d636f6044820152651b9d1c9858dd60d21b60648201526084016106b5565b600080856001600160a01b0316856040516125729190613451565b600060405180830381855af49150503d80600081146125ad576040519150601f19603f3d011682016040523d82523d6000602084013e6125b2565b606091505b50915091506125c2828286612a7d565b9695505050505050565b606060006125db8360026130d6565b6125e69060026130ed565b67ffffffffffffffff8111156125fe576125fe6131a8565b6040519080825280601f01601f191660200182016040528015612628576020820181803683370190505b509050600360fc1b81600081518110612643576126436131be565b60200101906001600160f81b031916908160001a905350600f60fb1b81600181518110612672576126726131be565b60200101906001600160f81b031916908160001a90535060006126968460026130d6565b6126a19060016130ed565b90505b6001811115612719576f181899199a1a9b1b9c1cb0b131b232b360811b85600f16601081106126d5576126d56131be565b1a60f81b8282815181106126eb576126eb6131be565b60200101906001600160f81b031916908160001a90535060049490941c936127128161346d565b90506126a4565b508315611cc05760405162461bcd60e51b815260206004820181905260248201527f537472696e67733a20686578206c656e67746820696e73756666696369656e7460448201526064016106b5565b600054610100900460ff166106be5760405162461bcd60e51b81526004016106b59061336a565b600054610100900460ff166127b65760405162461bcd60e51b81526004016106b59061336a565b6127c1600033611e39565b6127e76000805160206134ac8339815191526000805160206134cc833981519152612ab6565b6127ff6000805160206134cc83398151915233611e39565b609b805460ff191690556128196040820160208301612eda565b609780546001600160a01b0319166001600160a01b039290921691909117905550565b33600090815260a96020908152604080832060018101549085905580845260aa909252822060a3548154929391929091036128dc5760405163778440ff60e11b815260a760048201526024810184905273__$fb8a7d4c0489e07cf331dd1608ecb2541c$__9063ef0881fe9060440160006040518083038186803b1580156128c357600080fd5b505af41580156128d7573d6000803e3d6000fd5b505050505b815460018101835560008381526020812090910180546001600160a01b03191633179055609d5484906129199087906001600160a01b0316611c47565b6129239190613116565b90508083600101600082825461293991906130ed565b9091555050609f54609e54146129bf57600081609e5461295991906130ed565b609f54909150811180156129755760a6805460ff191660011790555b80806129825750609f5482145b156129a05761299d609f5483612998919061312a565b612b01565b93505b609f548210156129b057816129b4565b609f545b609e55506129f69050565b60a65460ff166129d75760a6805460ff191660011790555b60008160a5546129e791906130ed565b90506129f281612b01565b9250505b60a3548214612a565760408051818152600881830152676d696e507269636560c01b60608201526020810184905290517fb325f51492db6a3e2d42f7d2c7721750691a0cf7e6c3e4bd2b940b35282573809181900360800190a160a38290555b84609c6000828254612a6891906130ed565b90915550612a769050612c51565b5050505050565b60608315612a8c575081611cc0565b825115612a9c5782518084602001fd5b8160405162461bcd60e51b81526004016106b5919061343e565b600082815260656020526040808220600101805490849055905190918391839186917fbd79b86ffe0ab8e8776151514217cd7cacd52c909f66475c3af44e129f0b00ff9190a4505050565b60405163ee6ea9a760e01b815260a76004820152600090819073__$fb8a7d4c0489e07cf331dd1608ecb2541c$__9063ee6ea9a790602401602060405180830381865af4158015612b56573d6000803e3d6000fd5b505050506040513d601f19601f82011682018060405250810190612b7a919061323b565b90505b600081815260aa60205260409020600101548310612c3657600081815260aa6020526040902060010154612bb1908461312a565b60405163a87541a560e01b815260a760048201526024810183905290935073__$fb8a7d4c0489e07cf331dd1608ecb2541c$__9063a87541a590604401602060405180830381865af4158015612c0b573d6000803e3d6000fd5b505050506040513d601f19601f82011682018060405250810190612c2f919061323b565b9050612b7d565b60a5839055612c4481612cbf565b60a454611cc090826130ed565b6000612c5b611777565b905060a0548114610f175760408051818152600b818301526a63757272656e745261746560a81b60608201526020810183905290517fb325f51492db6a3e2d42f7d2c7721750691a0cf7e6c3e4bd2b940b35282573809181900360800190a160a055565b60405163ee6ea9a760e01b815260a76004820152819073__$fb8a7d4c0489e07cf331dd1608ecb2541c$__9063ee6ea9a790602401602060405180830381865af4158015612d11573d6000803e3d6000fd5b505050506040513d601f19601f82011682018060405250810190612d35919061323b565b14610f1757604051631a5de1e560e11b815260a760048201526024810182905260009073__$fb8a7d4c0489e07cf331dd1608ecb2541c$__906334bbc3ca90604401602060405180830381865af4158015612d94573d6000803e3d6000fd5b505050506040513d601f19601f82011682018060405250810190612db8919061323b565b60405163d1612f0f60e01b815260a760048201526024810182905290915073__$fb8a7d4c0489e07cf331dd1608ecb2541c$__9063d1612f0f9060440160006040518083038186803b158015612e0d57600080fd5b505af4158015612e21573d6000803e3d6000fd5b505050600082815260aa602052604081209150612e3e8282612e4e565b6001820160009055505050612cbf565b5080546000825590600052602060002090810190610f1791905b80821115612e7c5760008155600101612e68565b5090565b600060208284031215612e9257600080fd5b81356001600160e01b031981168114611cc057600080fd5b600060208284031215612ebc57600080fd5b5035919050565b80356001600160a01b038116811461126c57600080fd5b600060208284031215612eec57600080fd5b611cc082612ec3565b600060c08284031215612f0757600080fd5b50919050565b634e487b7160e01b600052602160045260246000fd5b6020810160048310612f4557634e487b7160e01b600052602160045260246000fd5b91905290565b60008060408385031215612f5e57600080fd5b82359150612f6e60208401612ec3565b90509250929050565b60008060408385031215612f8a57600080fd5b50508035926020909101359150565b60008060208385031215612fac57600080fd5b823567ffffffffffffffff80821115612fc457600080fd5b818501915085601f830112612fd857600080fd5b813581811115612fe757600080fd5b8660208260051b8501011115612ffc57600080fd5b60209290920196919550909350505050565b60005b83811015613029578181015183820152602001613011565b50506000910152565b6000815180845261304a81602086016020860161300e565b601f01601f19169290920160200192915050565b6000602080830181845280855180835260408601915060408160051b870101925083870160005b828110156130b357603f198886030184526130a1858351613032565b94509285019290850190600101613085565b5092979650505050505050565b634e487b7160e01b600052601160045260246000fd5b8082028115828204841417610549576105496130c0565b80820180821115610549576105496130c0565b634e487b7160e01b600052601260045260246000fd5b60008261312557613125613100565b500490565b81810381811115610549576105496130c0565b6001600160a01b03929092168252602082015260400190565b60006020828403121561316857600080fd5b81518015158114611cc057600080fd5b60208082526016908201527541756374696f6e206973206e6f742072756e6e696e6760501b604082015260600190565b634e487b7160e01b600052604160045260246000fd5b634e487b7160e01b600052603260045260246000fd5b6000808335601e198436030181126131eb57600080fd5b83018035915067ffffffffffffffff82111561320657600080fd5b60200191503681900382131561321b57600080fd5b9250929050565b600060018201613234576132346130c0565b5060010190565b60006020828403121561324d57600080fd5b5051919050565b60006020828403121561326657600080fd5b815160ff81168114611cc057600080fd5b600181815b808511156132b2578160001904821115613298576132986130c0565b808516156132a557918102915b93841c939080029061327c565b509250929050565b6000826132c957506001610549565b816132d657506000610549565b81600181146132ec57600281146132f657613312565b6001915050610549565b60ff841115613307576133076130c0565b50506001821b610549565b5060208310610133831016604e8410600b8410161715613335575081810a610549565b61333f8383613277565b8060001904821115613353576133536130c0565b029392505050565b6000611cc060ff8416836132ba565b6020808252602b908201527f496e697469616c697a61626c653a20636f6e7472616374206973206e6f74206960408201526a6e697469616c697a696e6760a81b606082015260800190565b6000826133c4576133c4613100565b500690565b7f416363657373436f6e74726f6c3a206163636f756e742000000000000000000081526000835161340181601785016020880161300e565b7001034b99036b4b9b9b4b733903937b6329607d1b601791840191820152835161343281602884016020880161300e565b01602801949350505050565b602081526000611cc06020830184613032565b6000825161346381846020870161300e565b9190910192915050565b60008161347c5761347c6130c0565b50600019019056fe416464726573733a206c6f772d6c6576656c2064656c65676174652063616c6c206661696c6564b09aa5aeb3702cfd50b6b62bc4532604938f21248a27a1d5ca736082b6819cc19989001599306562c281f170efd64bd922b630d9e66fafc71949876c6ceb48c6a2646970667358221220b4f5adb30335c388599723effd27eeaff992619943942862f3db858eaef760af64736f6c63430008110033",
  "linkReferences": {
    "contracts/libraries/BokkyPooBahsRedBlackTreeLibrary.sol": {
      "BokkyPooBahsRedBlackTreeLibrary": [
        {
          "length": 20,
          "start": 6390
        },
        {
          "length": 20,
          "start": 7169
        },
        {
          "length": 20,
          "start": 7300
        },
        {
          "length": 20,
          "start": 7446
        },
        {
          "length": 20,
          "start": 10740
        },
        {
          "length": 20,
          "start": 11394
        },
        {
          "length": 20,
          "start": 11575
        },
        {
          "length": 20,
          "start": 11837
        },
        {
          "length": 20,
          "start": 11968
        },
        {
          "length": 20,
          "start": 12094
        }
      ]
    }
  },
  "deployedLinkReferences": {
    "contracts/libraries/BokkyPooBahsRedBlackTreeLibrary.sol": {
      "BokkyPooBahsRedBlackTreeLibrary": [
        {
          "length": 20,
          "start": 6032
        },
        {
          "length": 20,
          "start": 6811
        },
        {
          "length": 20,
          "start": 6942
        },
        {
          "length": 20,
          "start": 7088
        },
        {
          "length": 20,
          "start": 10382
        },
        {
          "length": 20,
          "start": 11036
        },
        {
          "length": 20,
          "start": 11217
        },
        {
          "length": 20,
          "start": 11479
        },
        {
          "length": 20,
          "start": 11610
        },
        {
          "length": 20,
          "start": 11736
        }
      ]
    }
  }
}